{
  "_format": "hh-sol-artifact-1",
  "contractName": "YieldAggregator",
  "sourceName": "contracts/YieldAggregator.sol",
  "abi": [
    {
      "inputs": [
        {
          "internalType": "address",
          "name": "admin",
          "type": "address"
        },
        {
          "internalType": "address",
          "name": "usdyAddr",
          "type": "address"
        },
        {
          "internalType": "address",
          "name": "methAddr",
          "type": "address"
        }
      ],
      "stateMutability": "nonpayable",
      "type": "constructor"
    },
    {
      "inputs": [],
      "name": "AccessControlBadConfirmation",
      "type": "error"
    },
    {
      "inputs": [
        {
          "internalType": "address",
          "name": "account",
          "type": "address"
        },
        {
          "internalType": "bytes32",
          "name": "neededRole",
          "type": "bytes32"
        }
      ],
      "name": "AccessControlUnauthorizedAccount",
      "type": "error"
    },
    {
      "anonymous": false,
      "inputs": [
        {
          "indexed": false,
          "internalType": "uint16",
          "name": "usdyApyBps",
          "type": "uint16"
        },
        {
          "indexed": false,
          "internalType": "uint16",
          "name": "methApyBps",
          "type": "uint16"
        },
        {
          "indexed": false,
          "internalType": "address",
          "name": "updater",
          "type": "address"
        }
      ],
      "name": "ApyUpdated",
      "type": "event"
    },
    {
      "anonymous": false,
      "inputs": [
        {
          "indexed": true,
          "internalType": "address",
          "name": "user",
          "type": "address"
        },
        {
          "indexed": false,
          "internalType": "uint16",
          "name": "usdyPct",
          "type": "uint16"
        },
        {
          "indexed": false,
          "internalType": "uint256",
          "name": "usdyShares",
          "type": "uint256"
        },
        {
          "indexed": false,
          "internalType": "uint256",
          "name": "methShares",
          "type": "uint256"
        },
        {
          "indexed": false,
          "internalType": "string",
          "name": "rationale",
          "type": "string"
        }
      ],
      "name": "AutoRebalanced",
      "type": "event"
    },
    {
      "anonymous": false,
      "inputs": [
        {
          "indexed": true,
          "internalType": "address",
          "name": "user",
          "type": "address"
        },
        {
          "indexed": false,
          "internalType": "uint256",
          "name": "amount",
          "type": "uint256"
        },
        {
          "indexed": false,
          "internalType": "uint256",
          "name": "shares",
          "type": "uint256"
        }
      ],
      "name": "DepositedUSDY",
      "type": "event"
    },
    {
      "anonymous": false,
      "inputs": [
        {
          "indexed": true,
          "internalType": "address",
          "name": "user",
          "type": "address"
        },
        {
          "indexed": false,
          "internalType": "uint256",
          "name": "shares",
          "type": "uint256"
        },
        {
          "indexed": false,
          "internalType": "uint256",
          "name": "amount",
          "type": "uint256"
        }
      ],
      "name": "RedeemedUSDY",
      "type": "event"
    },
    {
      "anonymous": false,
      "inputs": [
        {
          "indexed": true,
          "internalType": "address",
          "name": "user",
          "type": "address"
        },
        {
          "indexed": false,
          "internalType": "enum YieldAggregator.RiskTier",
          "name": "tier",
          "type": "uint8"
        }
      ],
      "name": "RiskTierSet",
      "type": "event"
    },
    {
      "anonymous": false,
      "inputs": [
        {
          "indexed": true,
          "internalType": "bytes32",
          "name": "role",
          "type": "bytes32"
        },
        {
          "indexed": true,
          "internalType": "bytes32",
          "name": "previousAdminRole",
          "type": "bytes32"
        },
        {
          "indexed": true,
          "internalType": "bytes32",
          "name": "newAdminRole",
          "type": "bytes32"
        }
      ],
      "name": "RoleAdminChanged",
      "type": "event"
    },
    {
      "anonymous": false,
      "inputs": [
        {
          "indexed": true,
          "internalType": "bytes32",
          "name": "role",
          "type": "bytes32"
        },
        {
          "indexed": true,
          "internalType": "address",
          "name": "account",
          "type": "address"
        },
        {
          "indexed": true,
          "internalType": "address",
          "name": "sender",
          "type": "address"
        }
      ],
      "name": "RoleGranted",
      "type": "event"
    },
    {
      "anonymous": false,
      "inputs": [
        {
          "indexed": true,
          "internalType": "bytes32",
          "name": "role",
          "type": "bytes32"
        },
        {
          "indexed": true,
          "internalType": "address",
          "name": "account",
          "type": "address"
        },
        {
          "indexed": true,
          "internalType": "address",
          "name": "sender",
          "type": "address"
        }
      ],
      "name": "RoleRevoked",
      "type": "event"
    },
    {
      "anonymous": false,
      "inputs": [
        {
          "indexed": true,
          "internalType": "address",
          "name": "user",
          "type": "address"
        },
        {
          "indexed": false,
          "internalType": "uint256",
          "name": "ethAmount",
          "type": "uint256"
        },
        {
          "indexed": false,
          "internalType": "uint256",
          "name": "shares",
          "type": "uint256"
        }
      ],
      "name": "StakedMETH",
      "type": "event"
    },
    {
      "anonymous": false,
      "inputs": [
        {
          "indexed": true,
          "internalType": "address",
          "name": "user",
          "type": "address"
        },
        {
          "indexed": false,
          "internalType": "uint256",
          "name": "shares",
          "type": "uint256"
        },
        {
          "indexed": false,
          "internalType": "uint256",
          "name": "amount",
          "type": "uint256"
        }
      ],
      "name": "UnstakedMETH",
      "type": "event"
    },
    {
      "inputs": [],
      "name": "AI_AGENT_ROLE",
      "outputs": [
        {
          "internalType": "bytes32",
          "name": "",
          "type": "bytes32"
        }
      ],
      "stateMutability": "view",
      "type": "function"
    },
    {
      "inputs": [],
      "name": "DEFAULT_ADMIN_ROLE",
      "outputs": [
        {
          "internalType": "bytes32",
          "name": "",
          "type": "bytes32"
        }
      ],
      "stateMutability": "view",
      "type": "function"
    },
    {
      "inputs": [],
      "name": "MANAGER_ROLE",
      "outputs": [
        {
          "internalType": "bytes32",
          "name": "",
          "type": "bytes32"
        }
      ],
      "stateMutability": "view",
      "type": "function"
    },
    {
      "inputs": [
        {
          "internalType": "address",
          "name": "user",
          "type": "address"
        },
        {
          "internalType": "uint16",
          "name": "usdyPct",
          "type": "uint16"
        },
        {
          "internalType": "string",
          "name": "rationale",
          "type": "string"
        }
      ],
      "name": "autoRebalance",
      "outputs": [],
      "stateMutability": "nonpayable",
      "type": "function"
    },
    {
      "inputs": [
        {
          "internalType": "address",
          "name": "user",
          "type": "address"
        },
        {
          "internalType": "uint256",
          "name": "amount",
          "type": "uint256"
        }
      ],
      "name": "depositUSDY",
      "outputs": [],
      "stateMutability": "nonpayable",
      "type": "function"
    },
    {
      "inputs": [
        {
          "internalType": "address",
          "name": "user",
          "type": "address"
        }
      ],
      "name": "getPortfolioYieldBps",
      "outputs": [
        {
          "internalType": "uint16",
          "name": "weightedBps",
          "type": "uint16"
        }
      ],
      "stateMutability": "view",
      "type": "function"
    },
    {
      "inputs": [
        {
          "internalType": "bytes32",
          "name": "role",
          "type": "bytes32"
        }
      ],
      "name": "getRoleAdmin",
      "outputs": [
        {
          "internalType": "bytes32",
          "name": "",
          "type": "bytes32"
        }
      ],
      "stateMutability": "view",
      "type": "function"
    },
    {
      "inputs": [],
      "name": "getYieldInfo",
      "outputs": [
        {
          "internalType": "uint16",
          "name": "usdyApy",
          "type": "uint16"
        },
        {
          "internalType": "uint16",
          "name": "methApy",
          "type": "uint16"
        },
        {
          "internalType": "uint64",
          "name": "lastUpdate",
          "type": "uint64"
        }
      ],
      "stateMutability": "view",
      "type": "function"
    },
    {
      "inputs": [
        {
          "internalType": "bytes32",
          "name": "role",
          "type": "bytes32"
        },
        {
          "internalType": "address",
          "name": "account",
          "type": "address"
        }
      ],
      "name": "grantRole",
      "outputs": [],
      "stateMutability": "nonpayable",
      "type": "function"
    },
    {
      "inputs": [
        {
          "internalType": "bytes32",
          "name": "role",
          "type": "bytes32"
        },
        {
          "internalType": "address",
          "name": "account",
          "type": "address"
        }
      ],
      "name": "hasRole",
      "outputs": [
        {
          "internalType": "bool",
          "name": "",
          "type": "bool"
        }
      ],
      "stateMutability": "view",
      "type": "function"
    },
    {
      "inputs": [],
      "name": "lastApyUpdate",
      "outputs": [
        {
          "internalType": "uint64",
          "name": "",
          "type": "uint64"
        }
      ],
      "stateMutability": "view",
      "type": "function"
    },
    {
      "inputs": [
        {
          "internalType": "address",
          "name": "user",
          "type": "address"
        }
      ],
      "name": "lastRebalance",
      "outputs": [
        {
          "internalType": "uint64",
          "name": "timestamp",
          "type": "uint64"
        },
        {
          "internalType": "uint256",
          "name": "usdyShares",
          "type": "uint256"
        },
        {
          "internalType": "uint256",
          "name": "methShares",
          "type": "uint256"
        },
        {
          "internalType": "uint16",
          "name": "usdyPct",
          "type": "uint16"
        },
        {
          "internalType": "string",
          "name": "aiRationale",
          "type": "string"
        }
      ],
      "stateMutability": "view",
      "type": "function"
    },
    {
      "inputs": [],
      "name": "meth",
      "outputs": [
        {
          "internalType": "contract ImETH",
          "name": "",
          "type": "address"
        }
      ],
      "stateMutability": "view",
      "type": "function"
    },
    {
      "inputs": [],
      "name": "methApyBps",
      "outputs": [
        {
          "internalType": "uint16",
          "name": "",
          "type": "uint16"
        }
      ],
      "stateMutability": "view",
      "type": "function"
    },
    {
      "inputs": [
        {
          "internalType": "address",
          "name": "user",
          "type": "address"
        }
      ],
      "name": "methDeposits",
      "outputs": [
        {
          "internalType": "uint256",
          "name": "methShares",
          "type": "uint256"
        }
      ],
      "stateMutability": "view",
      "type": "function"
    },
    {
      "inputs": [
        {
          "internalType": "address",
          "name": "user",
          "type": "address"
        },
        {
          "internalType": "uint256",
          "name": "shares",
          "type": "uint256"
        }
      ],
      "name": "redeemUSDY",
      "outputs": [
        {
          "internalType": "uint256",
          "name": "",
          "type": "uint256"
        }
      ],
      "stateMutability": "nonpayable",
      "type": "function"
    },
    {
      "inputs": [
        {
          "internalType": "bytes32",
          "name": "role",
          "type": "bytes32"
        },
        {
          "internalType": "address",
          "name": "callerConfirmation",
          "type": "address"
        }
      ],
      "name": "renounceRole",
      "outputs": [],
      "stateMutability": "nonpayable",
      "type": "function"
    },
    {
      "inputs": [
        {
          "internalType": "bytes32",
          "name": "role",
          "type": "bytes32"
        },
        {
          "internalType": "address",
          "name": "account",
          "type": "address"
        }
      ],
      "name": "revokeRole",
      "outputs": [],
      "stateMutability": "nonpayable",
      "type": "function"
    },
    {
      "inputs": [
        {
          "internalType": "address",
          "name": "user",
          "type": "address"
        }
      ],
      "name": "riskTiers",
      "outputs": [
        {
          "internalType": "enum YieldAggregator.RiskTier",
          "name": "",
          "type": "uint8"
        }
      ],
      "stateMutability": "view",
      "type": "function"
    },
    {
      "inputs": [
        {
          "internalType": "uint16",
          "name": "usdyBps",
          "type": "uint16"
        },
        {
          "internalType": "uint16",
          "name": "methBps",
          "type": "uint16"
        }
      ],
      "name": "setApyRates",
      "outputs": [],
      "stateMutability": "nonpayable",
      "type": "function"
    },
    {
      "inputs": [
        {
          "internalType": "address",
          "name": "user",
          "type": "address"
        },
        {
          "internalType": "enum YieldAggregator.RiskTier",
          "name": "tier",
          "type": "uint8"
        }
      ],
      "name": "setRiskTier",
      "outputs": [],
      "stateMutability": "nonpayable",
      "type": "function"
    },
    {
      "inputs": [
        {
          "internalType": "address",
          "name": "user",
          "type": "address"
        }
      ],
      "name": "stakeMETH",
      "outputs": [],
      "stateMutability": "payable",
      "type": "function"
    },
    {
      "inputs": [
        {
          "internalType": "bytes4",
          "name": "interfaceId",
          "type": "bytes4"
        }
      ],
      "name": "supportsInterface",
      "outputs": [
        {
          "internalType": "bool",
          "name": "",
          "type": "bool"
        }
      ],
      "stateMutability": "view",
      "type": "function"
    },
    {
      "inputs": [
        {
          "internalType": "address",
          "name": "user",
          "type": "address"
        }
      ],
      "name": "totalMETHShares",
      "outputs": [
        {
          "internalType": "uint256",
          "name": "",
          "type": "uint256"
        }
      ],
      "stateMutability": "view",
      "type": "function"
    },
    {
      "inputs": [
        {
          "internalType": "address",
          "name": "user",
          "type": "address"
        }
      ],
      "name": "totalUSDYShares",
      "outputs": [
        {
          "internalType": "uint256",
          "name": "",
          "type": "uint256"
        }
      ],
      "stateMutability": "view",
      "type": "function"
    },
    {
      "inputs": [
        {
          "internalType": "address",
          "name": "user",
          "type": "address"
        },
        {
          "internalType": "uint256",
          "name": "shares",
          "type": "uint256"
        }
      ],
      "name": "unstakeMETH",
      "outputs": [
        {
          "internalType": "uint256",
          "name": "",
          "type": "uint256"
        }
      ],
      "stateMutability": "nonpayable",
      "type": "function"
    },
    {
      "inputs": [],
      "name": "usdy",
      "outputs": [
        {
          "internalType": "contract IUSDY",
          "name": "",
          "type": "address"
        }
      ],
      "stateMutability": "view",
      "type": "function"
    },
    {
      "inputs": [],
      "name": "usdyApyBps",
      "outputs": [
        {
          "internalType": "uint16",
          "name": "",
          "type": "uint16"
        }
      ],
      "stateMutability": "view",
      "type": "function"
    },
    {
      "inputs": [
        {
          "internalType": "address",
          "name": "user",
          "type": "address"
        }
      ],
      "name": "usdyDeposits",
      "outputs": [
        {
          "internalType": "uint256",
          "name": "usdyShares",
          "type": "uint256"
        }
      ],
      "stateMutability": "view",
      "type": "function"
    },
    {
      "stateMutability": "payable",
      "type": "receive"
    }
  ],
  "bytecode": "0x60806040523480156200001157600080fd5b5060405162001a7a38038062001a7a8339810160408190526200003491620001cb565b62000041600084620000ff565b506200006e7f241ecf16d79d0f8dbfb92cbc07fe17840425976cf0667f022fe9877caa831b0884620000ff565b506200009b7ffaa623ff490ff9197b5ad863cd7f72b33e2e131994d09bd7260d7cd680faad7984620000ff565b50600180546001600160a01b0319166001600160a01b0393841617905560028054605f60b21b929093166001600160b01b031990931692909217607d60a21b176001600160b01b0316600160c01b426001600160401b031602171790555062000215565b6000828152602081815260408083206001600160a01b038516845290915281205460ff16620001a4576000838152602081815260408083206001600160a01b03861684529091529020805460ff191660011790556200015b3390565b6001600160a01b0316826001600160a01b0316847f2f8788117e7eff1d82e926ec794901d17c78024a50270940304540a733656f0d60405160405180910390a4506001620001a8565b5060005b92915050565b80516001600160a01b0381168114620001c657600080fd5b919050565b600080600060608486031215620001e157600080fd5b620001ec84620001ae565b9250620001fc60208501620001ae565b91506200020c60408501620001ae565b90509250925092565b61185580620002256000396000f3fe6080604052600436106101c65760003560e01c806398d506e9116100f7578063d590793b11610095578063eee707ca11610064578063eee707ca14610604578063f2c4b8f914610624578063f92f639414610646578063fdd0fd2d1461066657600080fd5b8063d590793b14610533578063de6c3f7314610553578063e3e664cd14610594578063ec87621c146105e257600080fd5b8063ae691082116100d1578063ae691082146104ab578063bc22aee8146104e0578063c87ed40b14610500578063d547741f1461051357600080fd5b806398d506e914610456578063a217fddf14610476578063a7db25ed1461048b57600080fd5b80632c3319fb116101645780633c9b1f5b1161013e5780633c9b1f5b146103a15780635d01acdb146103d95780636b1bab561461041657806391d148541461043657600080fd5b80632c3319fb1461033f5780632f2ff15d1461035f57806336568abe1461038157600080fd5b8063230e404f116101a0578063230e404f14610278578063248a9ca3146102ae57806325b8e7eb146102de5780632973fc801461031257600080fd5b806301ffc9a7146101d257806309e2b6a6146102075780631312de291461024b57600080fd5b366101cd57005b600080fd5b3480156101de57600080fd5b506101f26101ed366004611335565b610697565b60405190151581526020015b60405180910390f35b34801561021357600080fd5b5061023d610222366004611382565b6001600160a01b031660009081526004602052604090205490565b6040519081526020016101fe565b34801561025757600080fd5b5061023d610266366004611382565b60036020526000908152604090205481565b34801561028457600080fd5b5061023d610293366004611382565b6001600160a01b031660009081526003602052604090205490565b3480156102ba57600080fd5b5061023d6102c936600461139d565b60009081526020819052604090206001015490565b3480156102ea57600080fd5b5061023d7ffaa623ff490ff9197b5ad863cd7f72b33e2e131994d09bd7260d7cd680faad7981565b34801561031e57600080fd5b5061023d61032d366004611382565b60046020526000908152604090205481565b34801561034b57600080fd5b5061023d61035a3660046113b6565b6106ce565b34801561036b57600080fd5b5061037f61037a3660046113e0565b61084a565b005b34801561038d57600080fd5b5061037f61039c3660046113e0565b610875565b3480156103ad57600080fd5b506002546103c1906001600160a01b031681565b6040516001600160a01b0390911681526020016101fe565b3480156103e557600080fd5b506104096103f4366004611382565b60056020526000908152604090205460ff1681565b6040516101fe9190611422565b34801561042257600080fd5b5061037f6104313660046113b6565b6108ad565b34801561044257600080fd5b506101f26104513660046113e0565b6109b7565b34801561046257600080fd5b506001546103c1906001600160a01b031681565b34801561048257600080fd5b5061023d600081565b34801561049757600080fd5b5061037f6104a636600461145c565b6109e0565b3480156104b757600080fd5b506002546104cd90600160b01b900461ffff1681565b60405161ffff90911681526020016101fe565b3480156104ec57600080fd5b5061037f6104fb3660046114ea565b610c0d565b61037f61050e366004611382565b610d2a565b34801561051f57600080fd5b5061037f61052e3660046113e0565b610e3a565b34801561053f57600080fd5b5061023d61054e3660046113b6565b610e5f565b34801561055f57600080fd5b5060025461057b90600160c01b900467ffffffffffffffff1681565b60405167ffffffffffffffff90911681526020016101fe565b3480156105a057600080fd5b5060025460408051600160a01b830461ffff9081168252600160b01b8404166020820152600160c01b90920467ffffffffffffffff16908201526060016101fe565b3480156105ee57600080fd5b5061023d60008051602061180083398151915281565b34801561061057600080fd5b506104cd61061f366004611382565b610fc2565b34801561063057600080fd5b506002546104cd90600160a01b900461ffff1681565b34801561065257600080fd5b5061037f610661366004611514565b61109a565b34801561067257600080fd5b50610686610681366004611382565b611125565b6040516101fe95949392919061154f565b60006001600160e01b03198216637965db0b60e01b14806106c857506301ffc9a760e01b6001600160e01b03198316145b92915050565b60006000805160206118008339815191526106e8816111ee565b6001600160a01b0384166000908152600360205260409020548311156107555760405162461bcd60e51b815260206004820152601860248201527f696e73756666696369656e74205553445920736861726573000000000000000060448201526064015b60405180910390fd5b6001600160a01b0384166000908152600360205260408120805485929061077d9084906115df565b9091555050600154604051633def417960e11b8152600481018590526001600160a01b0386811660248301526000921690637bde82f2906044016020604051808303816000875af11580156107d6573d6000803e3d6000fd5b505050506040513d601f19601f820116820180604052508101906107fa91906115f2565b60408051868152602081018390529192506001600160a01b038716917f91b0b5450ca4d90b3326eac0279af1bb6b14b505511096cc46ea87de755694aa91015b60405180910390a2949350505050565b600082815260208190526040902060010154610865816111ee565b61086f83836111fb565b50505050565b6001600160a01b038116331461089e5760405163334bd91960e11b815260040160405180910390fd5b6108a8828261128d565b505050565b6000805160206118008339815191526108c5816111ee565b6001546040516311f9fbc960e21b8152306004820152602481018490526000916001600160a01b0316906347e7ef24906044016020604051808303816000875af1158015610917573d6000803e3d6000fd5b505050506040513d601f19601f8201168201806040525081019061093b91906115f2565b6001600160a01b03851660009081526003602052604081208054929350839290919061096890849061160b565b909155505060408051848152602081018390526001600160a01b038616917f8918e017c9244ca8cc16cfaccdd00b95cc23f8f8f2b39af504dc766eba21a3a7910160405180910390a250505050565b6000918252602082815260408084206001600160a01b0393909316845291905290205460ff1690565b7ffaa623ff490ff9197b5ad863cd7f72b33e2e131994d09bd7260d7cd680faad79610a0a816111ee565b60648461ffff161115610a525760405162461bcd60e51b815260206004820152601060248201526f706374206f7574206f662072616e676560801b604482015260640161074c565b6001600160a01b0385166000908152600460209081526040808320546003909252822054610a80919061160b565b905060006064610a9461ffff88168461161e565b610a9e9190611635565b90506000610aac82846115df565b6001600160a01b03891660009081526003602090815260408083208690556004825291829020839055815160a08101835267ffffffffffffffff4216815280820186905280830184905261ffff8b1660608201528251601f8a01839004830281018301909352888352929350608083019190899089908190840183828082843760009201829052509390945250506001600160a01b038b168152600660209081526040918290208451815467ffffffffffffffff191667ffffffffffffffff909116178155908401516001820155908301516002820155606083015160038201805461ffff191661ffff90921691909117905560808301519091506004820190610bb690826116f7565b50905050876001600160a01b03167f0a4ac9e668ac8af00a476f44ff307c366a2baf773e6bcbfd22bd99ff9fa36ab78884848a8a604051610bfb9594939291906117b7565b60405180910390a25050505050505050565b7ffaa623ff490ff9197b5ad863cd7f72b33e2e131994d09bd7260d7cd680faad79610c37816111ee565b6113888361ffff1611158015610c5357506113888261ffff1611155b610c925760405162461bcd60e51b815260206004820152601060248201526f415059206f7574206f662072616e676560801b604482015260640161074c565b6002805463ffffffff60a01b1916600160a01b61ffff86811691820261ffff60b01b191692909217600160b01b928616928302176001600160c01b0316600160c01b4267ffffffffffffffff16021790925560408051928352602083019190915233908201527f8da8be0c094847c79ff2f87dba793d6082b8bd9d412309b42fa429cdf4f6b8699060600160405180910390a1505050565b600080516020611800833981519152610d42816111ee565b6000600260009054906101000a90046001600160a01b03166001600160a01b0316633a4b66f1346040518263ffffffff1660e01b815260040160206040518083038185885af1158015610d99573d6000803e3d6000fd5b50505050506040513d601f19601f82011682018060405250810190610dbe91906115f2565b6001600160a01b038416600090815260046020526040812080549293508392909190610deb90849061160b565b909155505060408051348152602081018390526001600160a01b038516917f32f75b329e6940bb17eb6464a4536dcaf332e0659d6434c169614f7d4e219e5291015b60405180910390a2505050565b600082815260208190526040902060010154610e55816111ee565b61086f838361128d565b6000600080516020611800833981519152610e79816111ee565b6001600160a01b038416600090815260046020526040902054831115610ee15760405162461bcd60e51b815260206004820152601860248201527f696e73756666696369656e74206d455448207368617265730000000000000000604482015260640161074c565b6001600160a01b03841660009081526004602052604081208054859290610f099084906115df565b90915550506002546040516305c2fbcf60e31b8152600481018590526000916001600160a01b031690632e17de78906024016020604051808303816000875af1158015610f5a573d6000803e3d6000fd5b505050506040513d601f19601f82011682018060405250810190610f7e91906115f2565b60408051868152602081018390529192506001600160a01b038716917f52dbc20e3285c6bcc09430f48f0ede068849b650f7c4dce8f81b81b674e3a768910161083a565b6001600160a01b03811660009081526004602090815260408083205460039092528220548291610ff19161160b565b9050806000036110045750600092915050565b6002546001600160a01b0384166000908152600360205260408120549091839161103991600160a01b900461ffff169061161e565b6110439190611635565b6002546001600160a01b03861660009081526004602052604081205492935091849161107b91600160b01b90910461ffff169061161e565b6110859190611635565b9050611091818361160b565b95945050505050565b6000805160206118008339815191526110b2816111ee565b6001600160a01b0383166000908152600560205260409020805483919060ff191660018360028111156110e7576110e761140c565b0217905550826001600160a01b03167f1327e702bf97a8a60661a0dd3ba2ac0e8c383af1ddcd0c139c8b98c8b11fa13483604051610e2d9190611422565b6006602052600090815260409020805460018201546002830154600384015460048501805467ffffffffffffffff909516959394929361ffff9092169261116b9061166d565b80601f01602080910402602001604051908101604052809291908181526020018280546111979061166d565b80156111e45780601f106111b9576101008083540402835291602001916111e4565b820191906000526020600020905b8154815290600101906020018083116111c757829003601f168201915b5050505050905085565b6111f881336112f8565b50565b600061120783836109b7565b611285576000838152602081815260408083206001600160a01b03861684529091529020805460ff1916600117905561123d3390565b6001600160a01b0316826001600160a01b0316847f2f8788117e7eff1d82e926ec794901d17c78024a50270940304540a733656f0d60405160405180910390a45060016106c8565b5060006106c8565b600061129983836109b7565b15611285576000838152602081815260408083206001600160a01b0386168085529252808320805460ff1916905551339286917ff6391f5c32d9c69d2a47ea670b442974b53935d1edc7fd64eb21e047a839171b9190a45060016106c8565b61130282826109b7565b6113315760405163e2517d3f60e01b81526001600160a01b03821660048201526024810183905260440161074c565b5050565b60006020828403121561134757600080fd5b81356001600160e01b03198116811461135f57600080fd5b9392505050565b80356001600160a01b038116811461137d57600080fd5b919050565b60006020828403121561139457600080fd5b61135f82611366565b6000602082840312156113af57600080fd5b5035919050565b600080604083850312156113c957600080fd5b6113d283611366565b946020939093013593505050565b600080604083850312156113f357600080fd5b8235915061140360208401611366565b90509250929050565b634e487b7160e01b600052602160045260246000fd5b602081016003831061144457634e487b7160e01b600052602160045260246000fd5b91905290565b803561ffff8116811461137d57600080fd5b6000806000806060858703121561147257600080fd5b61147b85611366565b93506114896020860161144a565b9250604085013567ffffffffffffffff808211156114a657600080fd5b818701915087601f8301126114ba57600080fd5b8135818111156114c957600080fd5b8860208285010111156114db57600080fd5b95989497505060200194505050565b600080604083850312156114fd57600080fd5b6115068361144a565b91506114036020840161144a565b6000806040838503121561152757600080fd5b61153083611366565b915060208301356003811061154457600080fd5b809150509250929050565b67ffffffffffffffff861681526000602086602084015285604084015261ffff8516606084015260a0608084015283518060a085015260005b818110156115a45785810183015185820160c001528201611588565b50600060c0828601015260c0601f19601f830116850101925050509695505050505050565b634e487b7160e01b600052601160045260246000fd5b818103818111156106c8576106c86115c9565b60006020828403121561160457600080fd5b5051919050565b808201808211156106c8576106c86115c9565b80820281158282048414176106c8576106c86115c9565b60008261165257634e487b7160e01b600052601260045260246000fd5b500490565b634e487b7160e01b600052604160045260246000fd5b600181811c9082168061168157607f821691505b6020821081036116a157634e487b7160e01b600052602260045260246000fd5b50919050565b601f8211156108a8576000816000526020600020601f850160051c810160208610156116d05750805b601f850160051c820191505b818110156116ef578281556001016116dc565b505050505050565b815167ffffffffffffffff81111561171157611711611657565b6117258161171f845461166d565b846116a7565b602080601f83116001811461175a57600084156117425750858301515b600019600386901b1c1916600185901b1785556116ef565b600085815260208120601f198616915b828110156117895788860151825594840194600190910190840161176a565b50858210156117a75787850151600019600388901b60f8161c191681555b5050505050600190811b01905550565b61ffff8616815284602082015283604082015260806060820152816080820152818360a0830137600081830160a090810191909152601f909201601f1916010194935050505056fe241ecf16d79d0f8dbfb92cbc07fe17840425976cf0667f022fe9877caa831b08a2646970667358221220ea7b6ae792d30830d0a83263848ac2389b54538c60bdddbfc701d4b891e71a2064736f6c63430008180033",
  "linkReferences": {},
  "deployedLinkReferences": {}
}