{
  "_format": "hh-sol-artifact-1",
  "contractName": "MockMETH",
  "sourceName": "contracts/MockMETH.sol",
  "abi": [
    {
      "inputs": [
        {
          "internalType": "address",
          "name": "admin",
          "type": "address"
        }
      ],
      "stateMutability": "nonpayable",
      "type": "constructor"
    },
    {
      "inputs": [
        {
          "internalType": "address",
          "name": "spender",
          "type": "address"
        },
        {
          "internalType": "uint256",
          "name": "allowance",
          "type": "uint256"
        },
        {
          "internalType": "uint256",
          "name": "needed",
          "type": "uint256"
        }
      ],
      "name": "ERC20InsufficientAllowance",
      "type": "error"
    },
    {
      "inputs": [
        {
          "internalType": "address",
          "name": "sender",
          "type": "address"
        },
        {
          "internalType": "uint256",
          "name": "balance",
          "type": "uint256"
        },
        {
          "internalType": "uint256",
          "name": "needed",
          "type": "uint256"
        }
      ],
      "name": "ERC20InsufficientBalance",
      "type": "error"
    },
    {
      "inputs": [
        {
          "internalType": "address",
          "name": "approver",
          "type": "address"
        }
      ],
      "name": "ERC20InvalidApprover",
      "type": "error"
    },
    {
      "inputs": [
        {
          "internalType": "address",
          "name": "receiver",
          "type": "address"
        }
      ],
      "name": "ERC20InvalidReceiver",
      "type": "error"
    },
    {
      "inputs": [
        {
          "internalType": "address",
          "name": "sender",
          "type": "address"
        }
      ],
      "name": "ERC20InvalidSender",
      "type": "error"
    },
    {
      "inputs": [
        {
          "internalType": "address",
          "name": "spender",
          "type": "address"
        }
      ],
      "name": "ERC20InvalidSpender",
      "type": "error"
    },
    {
      "inputs": [
        {
          "internalType": "address",
          "name": "owner",
          "type": "address"
        }
      ],
      "name": "OwnableInvalidOwner",
      "type": "error"
    },
    {
      "inputs": [
        {
          "internalType": "address",
          "name": "account",
          "type": "address"
        }
      ],
      "name": "OwnableUnauthorizedAccount",
      "type": "error"
    },
    {
      "anonymous": false,
      "inputs": [
        {
          "indexed": true,
          "internalType": "address",
          "name": "owner",
          "type": "address"
        },
        {
          "indexed": true,
          "internalType": "address",
          "name": "spender",
          "type": "address"
        },
        {
          "indexed": false,
          "internalType": "uint256",
          "name": "value",
          "type": "uint256"
        }
      ],
      "name": "Approval",
      "type": "event"
    },
    {
      "anonymous": false,
      "inputs": [
        {
          "indexed": true,
          "internalType": "address",
          "name": "previousOwner",
          "type": "address"
        },
        {
          "indexed": true,
          "internalType": "address",
          "name": "newOwner",
          "type": "address"
        }
      ],
      "name": "OwnershipTransferred",
      "type": "event"
    },
    {
      "anonymous": false,
      "inputs": [
        {
          "indexed": true,
          "internalType": "address",
          "name": "from",
          "type": "address"
        },
        {
          "indexed": true,
          "internalType": "address",
          "name": "to",
          "type": "address"
        },
        {
          "indexed": false,
          "internalType": "uint256",
          "name": "value",
          "type": "uint256"
        }
      ],
      "name": "Transfer",
      "type": "event"
    },
    {
      "inputs": [
        {
          "internalType": "address",
          "name": "owner",
          "type": "address"
        },
        {
          "internalType": "address",
          "name": "spender",
          "type": "address"
        }
      ],
      "name": "allowance",
      "outputs": [
        {
          "internalType": "uint256",
          "name": "",
          "type": "uint256"
        }
      ],
      "stateMutability": "view",
      "type": "function"
    },
    {
      "inputs": [
        {
          "internalType": "address",
          "name": "spender",
          "type": "address"
        },
        {
          "internalType": "uint256",
          "name": "value",
          "type": "uint256"
        }
      ],
      "name": "approve",
      "outputs": [
        {
          "internalType": "bool",
          "name": "",
          "type": "bool"
        }
      ],
      "stateMutability": "nonpayable",
      "type": "function"
    },
    {
      "inputs": [
        {
          "internalType": "address",
          "name": "account",
          "type": "address"
        }
      ],
      "name": "balanceOf",
      "outputs": [
        {
          "internalType": "uint256",
          "name": "",
          "type": "uint256"
        }
      ],
      "stateMutability": "view",
      "type": "function"
    },
    {
      "inputs": [],
      "name": "decimals",
      "outputs": [
        {
          "internalType": "uint8",
          "name": "",
          "type": "uint8"
        }
      ],
      "stateMutability": "view",
      "type": "function"
    },
    {
      "inputs": [
        {
          "internalType": "address",
          "name": "to",
          "type": "address"
        },
        {
          "internalType": "uint256",
          "name": "amount",
          "type": "uint256"
        }
      ],
      "name": "mint",
      "outputs": [],
      "stateMutability": "nonpayable",
      "type": "function"
    },
    {
      "inputs": [],
      "name": "name",
      "outputs": [
        {
          "internalType": "string",
          "name": "",
          "type": "string"
        }
      ],
      "stateMutability": "view",
      "type": "function"
    },
    {
      "inputs": [],
      "name": "owner",
      "outputs": [
        {
          "internalType": "address",
          "name": "",
          "type": "address"
        }
      ],
      "stateMutability": "view",
      "type": "function"
    },
    {
      "inputs": [],
      "name": "renounceOwnership",
      "outputs": [],
      "stateMutability": "nonpayable",
      "type": "function"
    },
    {
      "inputs": [],
      "name": "stake",
      "outputs": [
        {
          "internalType": "uint256",
          "name": "shares",
          "type": "uint256"
        }
      ],
      "stateMutability": "payable",
      "type": "function"
    },
    {
      "inputs": [],
      "name": "symbol",
      "outputs": [
        {
          "internalType": "string",
          "name": "",
          "type": "string"
        }
      ],
      "stateMutability": "view",
      "type": "function"
    },
    {
      "inputs": [],
      "name": "totalSupply",
      "outputs": [
        {
          "internalType": "uint256",
          "name": "",
          "type": "uint256"
        }
      ],
      "stateMutability": "view",
      "type": "function"
    },
    {
      "inputs": [
        {
          "internalType": "address",
          "name": "to",
          "type": "address"
        },
        {
          "internalType": "uint256",
          "name": "value",
          "type": "uint256"
        }
      ],
      "name": "transfer",
      "outputs": [
        {
          "internalType": "bool",
          "name": "",
          "type": "bool"
        }
      ],
      "stateMutability": "nonpayable",
      "type": "function"
    },
    {
      "inputs": [
        {
          "internalType": "address",
          "name": "from",
          "type": "address"
        },
        {
          "internalType": "address",
          "name": "to",
          "type": "address"
        },
        {
          "internalType": "uint256",
          "name": "value",
          "type": "uint256"
        }
      ],
      "name": "transferFrom",
      "outputs": [
        {
          "internalType": "bool",
          "name": "",
          "type": "bool"
        }
      ],
      "stateMutability": "nonpayable",
      "type": "function"
    },
    {
      "inputs": [
        {
          "internalType": "address",
          "name": "newOwner",
          "type": "address"
        }
      ],
      "name": "transferOwnership",
      "outputs": [],
      "stateMutability": "nonpayable",
      "type": "function"
    },
    {
      "inputs": [
        {
          "internalType": "uint256",
          "name": "shares",
          "type": "uint256"
        }
      ],
      "name": "unstake",
      "outputs": [
        {
          "internalType": "uint256",
          "name": "amount",
          "type": "uint256"
        }
      ],
      "stateMutability": "nonpayable",
      "type": "function"
    },
    {
      "stateMutability": "payable",
      "type": "receive"
    }
  ],
  "bytecode": "0x60806040523480156200001157600080fd5b5060405162000f4238038062000f428339810160408190526200003491620002b4565b806040518060400160405280600981526020016809adec6d640da8aa8960bb1b815250604051806040016040528060058152602001640dada8aa8960db1b81525081600390816200008691906200038d565b5060046200009582826200038d565b5050506001600160a01b038116620000c857604051631e4fbdf760e01b8152600060048201526024015b60405180910390fd5b620000d381620000f1565b50620000ea8169021e19e0c9bab240000062000143565b5062000481565b600580546001600160a01b038381166001600160a01b0319831681179093556040519116919082907f8be0079c531659141344cd1fd0a4f28419497f9722a3daafe3b4186f6b6457e090600090a35050565b6001600160a01b0382166200016f5760405163ec442f0560e01b815260006004820152602401620000bf565b6200017d6000838362000181565b5050565b6001600160a01b038316620001b0578060026000828254620001a4919062000459565b90915550620002249050565b6001600160a01b03831660009081526020819052604090205481811015620002055760405163391434e360e21b81526001600160a01b03851660048201526024810182905260448101839052606401620000bf565b6001600160a01b03841660009081526020819052604090209082900390555b6001600160a01b038216620002425760028054829003905562000261565b6001600160a01b03821660009081526020819052604090208054820190555b816001600160a01b0316836001600160a01b03167fddf252ad1be2c89b69c2b068fc378daa952ba7f163c4a11628f55a4df523b3ef83604051620002a791815260200190565b60405180910390a3505050565b600060208284031215620002c757600080fd5b81516001600160a01b0381168114620002df57600080fd5b9392505050565b634e487b7160e01b600052604160045260246000fd5b600181811c908216806200031157607f821691505b6020821081036200033257634e487b7160e01b600052602260045260246000fd5b50919050565b601f82111562000388576000816000526020600020601f850160051c81016020861015620003635750805b601f850160051c820191505b8181101562000384578281556001016200036f565b5050505b505050565b81516001600160401b03811115620003a957620003a9620002e6565b620003c181620003ba8454620002fc565b8462000338565b602080601f831160018114620003f95760008415620003e05750858301515b600019600386901b1c1916600185901b17855562000384565b600085815260208120601f198616915b828110156200042a5788860151825594840194600190910190840162000409565b5085821015620004495787850151600019600388901b60f8161c191681555b5050505050600190811b01905550565b808201808211156200047b57634e487b7160e01b600052601160045260246000fd5b92915050565b610ab180620004916000396000f3fe6080604052600436106100ec5760003560e01c806340c10f191161008a57806395d89b411161005957806395d89b411461026b578063a9059cbb14610280578063dd62ed3e146102a0578063f2fde38b146102e657600080fd5b806340c10f19146101d657806370a08231146101f8578063715018a61461022e5780638da5cb5b1461024357600080fd5b806323b872dd116100c657806323b872dd146101725780632e17de7814610192578063313ce567146101b25780633a4b66f1146101ce57600080fd5b806306fdde03146100f8578063095ea7b31461012357806318160ddd1461015357600080fd5b366100f357005b600080fd5b34801561010457600080fd5b5061010d610306565b60405161011a91906108e7565b60405180910390f35b34801561012f57600080fd5b5061014361013e366004610952565b610398565b604051901515815260200161011a565b34801561015f57600080fd5b506002545b60405190815260200161011a565b34801561017e57600080fd5b5061014361018d36600461097c565b6103b2565b34801561019e57600080fd5b506101646101ad3660046109b8565b6103d6565b3480156101be57600080fd5b506040516012815260200161011a565b61016461047a565b3480156101e257600080fd5b506101f66101f1366004610952565b610488565b005b34801561020457600080fd5b506101646102133660046109d1565b6001600160a01b031660009081526020819052604090205490565b34801561023a57600080fd5b506101f661049e565b34801561024f57600080fd5b506005546040516001600160a01b03909116815260200161011a565b34801561027757600080fd5b5061010d6104b2565b34801561028c57600080fd5b5061014361029b366004610952565b6104c1565b3480156102ac57600080fd5b506101646102bb3660046109f3565b6001600160a01b03918216600090815260016020908152604080832093909416825291909152205490565b3480156102f257600080fd5b506101f66103013660046109d1565b6104cf565b60606003805461031590610a26565b80601f016020809104026020016040519081016040528092919081815260200182805461034190610a26565b801561038e5780601f106103635761010080835404028352916020019161038e565b820191906000526020600020905b81548152906001019060200180831161037157829003601f168201915b5050505050905090565b6000336103a681858561050d565b60019150505b92915050565b6000336103c085828561051f565b6103cb85858561059e565b506001949350505050565b60006103e233836105fd565b506040518190600090339083908381818185875af1925050503d8060008114610427576040519150601f19603f3d011682016040523d82523d6000602084013e61042c565b606091505b50509050806104745760405162461bcd60e51b815260206004820152600f60248201526e1d1c985b9cd9995c8819985a5b1959608a1b60448201526064015b60405180910390fd5b50919050565b346104853382610633565b90565b610490610669565b61049a8282610633565b5050565b6104a6610669565b6104b06000610696565b565b60606004805461031590610a26565b6000336103a681858561059e565b6104d7610669565b6001600160a01b03811661050157604051631e4fbdf760e01b81526000600482015260240161046b565b61050a81610696565b50565b61051a83838360016106e8565b505050565b6001600160a01b03838116600090815260016020908152604080832093861683529290522054600019811015610598578181101561058957604051637dc7a0d960e11b81526001600160a01b0384166004820152602481018290526044810183905260640161046b565b610598848484840360006106e8565b50505050565b6001600160a01b0383166105c857604051634b637e8f60e11b81526000600482015260240161046b565b6001600160a01b0382166105f25760405163ec442f0560e01b81526000600482015260240161046b565b61051a8383836107bd565b6001600160a01b03821661062757604051634b637e8f60e11b81526000600482015260240161046b565b61049a826000836107bd565b6001600160a01b03821661065d5760405163ec442f0560e01b81526000600482015260240161046b565b61049a600083836107bd565b6005546001600160a01b031633146104b05760405163118cdaa760e01b815233600482015260240161046b565b600580546001600160a01b038381166001600160a01b0319831681179093556040519116919082907f8be0079c531659141344cd1fd0a4f28419497f9722a3daafe3b4186f6b6457e090600090a35050565b6001600160a01b0384166107125760405163e602df0560e01b81526000600482015260240161046b565b6001600160a01b03831661073c57604051634a1406b160e11b81526000600482015260240161046b565b6001600160a01b038085166000908152600160209081526040808320938716835292905220829055801561059857826001600160a01b0316846001600160a01b03167f8c5be1e5ebec7d5bd14f71427d1e84f3dd0314c0f7b2291e5b200ac8c7c3b925846040516107af91815260200190565b60405180910390a350505050565b6001600160a01b0383166107e85780600260008282546107dd9190610a5a565b9091555061085a9050565b6001600160a01b0383166000908152602081905260409020548181101561083b5760405163391434e360e21b81526001600160a01b0385166004820152602481018290526044810183905260640161046b565b6001600160a01b03841660009081526020819052604090209082900390555b6001600160a01b03821661087657600280548290039055610895565b6001600160a01b03821660009081526020819052604090208054820190555b816001600160a01b0316836001600160a01b03167fddf252ad1be2c89b69c2b068fc378daa952ba7f163c4a11628f55a4df523b3ef836040516108da91815260200190565b60405180910390a3505050565b60006020808352835180602085015260005b81811015610915578581018301518582016040015282016108f9565b506000604082860101526040601f19601f8301168501019250505092915050565b80356001600160a01b038116811461094d57600080fd5b919050565b6000806040838503121561096557600080fd5b61096e83610936565b946020939093013593505050565b60008060006060848603121561099157600080fd5b61099a84610936565b92506109a860208501610936565b9150604084013590509250925092565b6000602082840312156109ca57600080fd5b5035919050565b6000602082840312156109e357600080fd5b6109ec82610936565b9392505050565b60008060408385031215610a0657600080fd5b610a0f83610936565b9150610a1d60208401610936565b90509250929050565b600181811c90821680610a3a57607f821691505b60208210810361047457634e487b7160e01b600052602260045260246000fd5b808201808211156103ac57634e487b7160e01b600052601160045260246000fdfea26469706673582212204fb316c7de51486d8ead08e8b91d8933575ab7bfc5af71a4f139b7a53008e06364736f6c63430008180033",
  "linkReferences": {},
  "deployedLinkReferences": {}
}