{"contracts/HarbourRWAToken.sol":{"HarbourRWAToken":{"abi":[{"inputs":[{"internalType":"string","name":"name_","type":"string"},{"internalType":"string","name":"symbol_","type":"string"},{"internalType":"address","name":"admin","type":"address"},{"internalType":"contract ComplianceModule","name":"module","type":"address"},{"internalType":"contract IERC20","name":"couponToken_","type":"address"}],"stateMutability":"nonpayable","type":"constructor"},{"inputs":[],"name":"AccessControlBadConfirmation","type":"error"},{"inputs":[{"internalType":"address","name":"account","type":"address"},{"internalType":"bytes32","name":"neededRole","type":"bytes32"}],"name":"AccessControlUnauthorizedAccount","type":"error"},{"inputs":[{"internalType":"bytes32","name":"assetId","type":"bytes32"}],"name":"AssetNotApproved","type":"error"},{"inputs":[],"name":"ComplianceCheckFailed","type":"error"},{"inputs":[{"internalType":"bytes32","name":"assetId","type":"bytes32"},{"internalType":"uint256","name":"index","type":"uint256"},{"internalType":"address","name":"investor","type":"address"}],"name":"DividendAlreadyClaimed","type":"error"},{"inputs":[{"internalType":"bytes32","name":"assetId","type":"bytes32"},{"internalType":"uint256","name":"index","type":"uint256"}],"name":"DividendAlreadyFunded","type":"error"},{"inputs":[{"internalType":"bytes32","name":"assetId","type":"bytes32"},{"internalType":"uint256","name":"index","type":"uint256"}],"name":"DividendNotFunded","type":"error"},{"inputs":[{"internalType":"address","name":"spender","type":"address"},{"internalType":"uint256","name":"allowance","type":"uint256"},{"internalType":"uint256","name":"needed","type":"uint256"}],"name":"ERC20InsufficientAllowance","type":"error"},{"inputs":[{"internalType":"address","name":"sender","type":"address"},{"internalType":"uint256","name":"balance","type":"uint256"},{"internalType":"uint256","name":"needed","type":"uint256"}],"name":"ERC20InsufficientBalance","type":"error"},{"inputs":[{"internalType":"address","name":"approver","type":"address"}],"name":"ERC20InvalidApprover","type":"error"},{"inputs":[{"internalType":"address","name":"receiver","type":"address"}],"name":"ERC20InvalidReceiver","type":"error"},{"inputs":[{"internalType":"address","name":"sender","type":"address"}],"name":"ERC20InvalidSender","type":"error"},{"inputs":[{"internalType":"address","name":"spender","type":"address"}],"name":"ERC20InvalidSpender","type":"error"},{"inputs":[],"name":"EnforcedPause","type":"error"},{"inputs":[],"name":"ExpectedPause","type":"error"},{"inputs":[{"internalType":"uint256","name":"expectedAmount","type":"uint256"},{"internalType":"uint256","name":"providedAmount","type":"uint256"}],"name":"FundingShortfall","type":"error"},{"inputs":[],"name":"InvalidCouponToken","type":"error"},{"inputs":[{"internalType":"bytes32","name":"assetId","type":"bytes32"},{"internalType":"uint256","name":"index","type":"uint256"}],"name":"InvalidDividendIndex","type":"error"},{"inputs":[],"name":"NotDueYet","type":"error"},{"inputs":[{"internalType":"bytes32","name":"assetId","type":"bytes32"},{"internalType":"uint256","name":"index","type":"uint256"},{"internalType":"address","name":"investor","type":"address"}],"name":"NothingToClaim","type":"error"},{"inputs":[{"internalType":"address","name":"token","type":"address"}],"name":"SafeERC20FailedOperation","type":"error"},{"anonymous":false,"inputs":[{"indexed":true,"internalType":"address","name":"owner","type":"address"},{"indexed":true,"internalType":"address","name":"spender","type":"address"},{"indexed":false,"internalType":"uint256","name":"value","type":"uint256"}],"name":"Approval","type":"event"},{"anonymous":false,"inputs":[{"indexed":true,"internalType":"bytes32","name":"assetId","type":"bytes32"},{"indexed":false,"internalType":"enum HarbourRWAToken.AssetType","name":"assetType","type":"uint8"},{"indexed":false,"internalType":"string","name":"name","type":"string"}],"name":"AssetRegistered","type":"event"},{"anonymous":false,"inputs":[{"indexed":true,"internalType":"bytes32","name":"assetId","type":"bytes32"},{"indexed":true,"internalType":"uint256","name":"index","type":"uint256"},{"indexed":true,"internalType":"address","name":"investor","type":"address"},{"indexed":false,"internalType":"uint256","name":"amount","type":"uint256"}],"name":"DividendClaimed","type":"event"},{"anonymous":false,"inputs":[{"indexed":true,"internalType":"bytes32","name":"assetId","type":"bytes32"},{"indexed":true,"internalType":"uint256","name":"index","type":"uint256"},{"indexed":false,"internalType":"uint256","name":"totalAmount","type":"uint256"}],"name":"DividendFunded","type":"event"},{"anonymous":false,"inputs":[{"indexed":true,"internalType":"bytes32","name":"assetId","type":"bytes32"},{"indexed":false,"internalType":"uint256","name":"paymentDate","type":"uint256"},{"indexed":false,"internalType":"uint256","name":"amountPerToken","type":"uint256"}],"name":"DividendScheduled","type":"event"},{"anonymous":false,"inputs":[{"indexed":false,"internalType":"address","name":"account","type":"address"}],"name":"Paused","type":"event"},{"anonymous":false,"inputs":[{"indexed":true,"internalType":"bytes32","name":"role","type":"bytes32"},{"indexed":true,"internalType":"bytes32","name":"previousAdminRole","type":"bytes32"},{"indexed":true,"internalType":"bytes32","name":"newAdminRole","type":"bytes32"}],"name":"RoleAdminChanged","type":"event"},{"anonymous":false,"inputs":[{"indexed":true,"internalType":"bytes32","name":"role","type":"bytes32"},{"indexed":true,"internalType":"address","name":"account","type":"address"},{"indexed":true,"internalType":"address","name":"sender","type":"address"}],"name":"RoleGranted","type":"event"},{"anonymous":false,"inputs":[{"indexed":true,"internalType":"bytes32","name":"role","type":"bytes32"},{"indexed":true,"internalType":"address","name":"account","type":"address"},{"indexed":true,"internalType":"address","name":"sender","type":"address"}],"name":"RoleRevoked","type":"event"},{"anonymous":false,"inputs":[{"indexed":true,"internalType":"address","name":"to","type":"address"},{"indexed":true,"internalType":"bytes32","name":"assetId","type":"bytes32"},{"indexed":false,"internalType":"uint256","name":"amount","type":"uint256"}],"name":"TokensMinted","type":"event"},{"anonymous":false,"inputs":[{"indexed":true,"internalType":"address","name":"from","type":"address"},{"indexed":true,"internalType":"address","name":"to","type":"address"},{"indexed":false,"internalType":"uint256","name":"value","type":"uint256"}],"name":"Transfer","type":"event"},{"anonymous":false,"inputs":[{"indexed":false,"internalType":"address","name":"account","type":"address"}],"name":"Unpaused","type":"event"},{"inputs":[],"name":"DEFAULT_ADMIN_ROLE","outputs":[{"internalType":"bytes32","name":"","type":"bytes32"}],"stateMutability":"view","type":"function"},{"inputs":[],"name":"ISSUER_ROLE","outputs":[{"internalType":"bytes32","name":"","type":"bytes32"}],"stateMutability":"view","type":"function"},{"inputs":[{"internalType":"address","name":"owner","type":"address"},{"internalType":"address","name":"spender","type":"address"}],"name":"allowance","outputs":[{"internalType":"uint256","name":"","type":"uint256"}],"stateMutability":"view","type":"function"},{"inputs":[{"internalType":"address","name":"spender","type":"address"},{"internalType":"uint256","name":"value","type":"uint256"}],"name":"approve","outputs":[{"internalType":"bool","name":"","type":"bool"}],"stateMutability":"nonpayable","type":"function"},{"inputs":[{"internalType":"bytes32","name":"assetId","type":"bytes32"}],"name":"assets","outputs":[{"internalType":"bool","name":"approved","type":"bool"},{"internalType":"enum HarbourRWAToken.AssetType","name":"assetType","type":"uint8"},{"internalType":"string","name":"name","type":"string"},{"internalType":"uint256","name":"maturityDate","type":"uint256"},{"internalType":"uint256","name":"couponBps","type":"uint256"},{"internalType":"bytes32","name":"prospectusCommitment","type":"bytes32"}],"stateMutability":"view","type":"function"},{"inputs":[{"internalType":"address","name":"account","type":"address"}],"name":"balanceOf","outputs":[{"internalType":"uint256","name":"","type":"uint256"}],"stateMutability":"view","type":"function"},{"inputs":[{"internalType":"bytes32","name":"assetId","type":"bytes32"},{"internalType":"uint256","name":"index","type":"uint256"}],"name":"claimDividend","outputs":[],"stateMutability":"nonpayable","type":"function"},{"inputs":[],"name":"complianceModule","outputs":[{"internalType":"contract ComplianceModule","name":"","type":"address"}],"stateMutability":"view","type":"function"},{"inputs":[],"name":"couponToken","outputs":[{"internalType":"contract IERC20","name":"","type":"address"}],"stateMutability":"view","type":"function"},{"inputs":[],"name":"decimals","outputs":[{"internalType":"uint8","name":"","type":"uint8"}],"stateMutability":"view","type":"function"},{"inputs":[{"internalType":"bytes32","name":"assetId","type":"bytes32"},{"internalType":"uint256","name":"index","type":"uint256"}],"name":"dividendFunding","outputs":[{"internalType":"uint256","name":"remainingAmount","type":"uint256"}],"stateMutability":"view","type":"function"},{"inputs":[{"internalType":"bytes32","name":"assetId","type":"bytes32"},{"internalType":"uint256","name":"","type":"uint256"}],"name":"dividendSchedules","outputs":[{"internalType":"uint256","name":"paymentDate","type":"uint256"},{"internalType":"uint256","name":"amountPerToken","type":"uint256"},{"internalType":"bool","name":"distributed","type":"bool"}],"stateMutability":"view","type":"function"},{"inputs":[{"internalType":"bytes32","name":"assetId","type":"bytes32"},{"internalType":"uint256","name":"index","type":"uint256"},{"internalType":"uint256","name":"totalAmount","type":"uint256"}],"name":"fundDividend","outputs":[],"stateMutability":"nonpayable","type":"function"},{"inputs":[{"internalType":"bytes32","name":"role","type":"bytes32"}],"name":"getRoleAdmin","outputs":[{"internalType":"bytes32","name":"","type":"bytes32"}],"stateMutability":"view","type":"function"},{"inputs":[{"internalType":"bytes32","name":"role","type":"bytes32"},{"internalType":"address","name":"account","type":"address"}],"name":"grantRole","outputs":[],"stateMutability":"nonpayable","type":"function"},{"inputs":[{"internalType":"bytes32","name":"assetId","type":"bytes32"},{"internalType":"uint256","name":"index","type":"uint256"},{"internalType":"address","name":"investor","type":"address"}],"name":"hasClaimedDividend","outputs":[{"internalType":"bool","name":"","type":"bool"}],"stateMutability":"view","type":"function"},{"inputs":[{"internalType":"bytes32","name":"role","type":"bytes32"},{"internalType":"address","name":"account","type":"address"}],"name":"hasRole","outputs":[{"internalType":"bool","name":"","type":"bool"}],"stateMutability":"view","type":"function"},{"inputs":[{"internalType":"address","name":"to","type":"address"},{"internalType":"uint256","name":"amount","type":"uint256"},{"internalType":"bytes32","name":"assetId","type":"bytes32"}],"name":"mintForAsset","outputs":[],"stateMutability":"nonpayable","type":"function"},{"inputs":[],"name":"name","outputs":[{"internalType":"string","name":"","type":"string"}],"stateMutability":"view","type":"function"},{"inputs":[],"name":"pause","outputs":[],"stateMutability":"nonpayable","type":"function"},{"inputs":[],"name":"paused","outputs":[{"internalType":"bool","name":"","type":"bool"}],"stateMutability":"view","type":"function"},{"inputs":[{"internalType":"bytes32","name":"assetId","type":"bytes32"},{"internalType":"uint256","name":"index","type":"uint256"},{"internalType":"address","name":"investor","type":"address"}],"name":"previewDividendClaim","outputs":[{"internalType":"uint256","name":"","type":"uint256"}],"stateMutability":"view","type":"function"},{"inputs":[{"internalType":"bytes32","name":"assetId","type":"bytes32"},{"internalType":"enum HarbourRWAToken.AssetType","name":"assetType","type":"uint8"},{"internalType":"string","name":"assetName","type":"string"},{"internalType":"uint256","name":"maturityDate","type":"uint256"},{"internalType":"uint256","name":"couponBps","type":"uint256"},{"internalType":"bytes32","name":"prospectusCommitment","type":"bytes32"}],"name":"registerAsset","outputs":[],"stateMutability":"nonpayable","type":"function"},{"inputs":[{"internalType":"bytes32","name":"role","type":"bytes32"},{"internalType":"address","name":"callerConfirmation","type":"address"}],"name":"renounceRole","outputs":[],"stateMutability":"nonpayable","type":"function"},{"inputs":[{"internalType":"bytes32","name":"role","type":"bytes32"},{"internalType":"address","name":"account","type":"address"}],"name":"revokeRole","outputs":[],"stateMutability":"nonpayable","type":"function"},{"inputs":[{"internalType":"bytes32","name":"assetId","type":"bytes32"},{"internalType":"uint256","name":"paymentDate","type":"uint256"},{"internalType":"uint256","name":"amountPerToken","type":"uint256"}],"name":"scheduleDividend","outputs":[],"stateMutability":"nonpayable","type":"function"},{"inputs":[{"internalType":"bytes4","name":"interfaceId","type":"bytes4"}],"name":"supportsInterface","outputs":[{"internalType":"bool","name":"","type":"bool"}],"stateMutability":"view","type":"function"},{"inputs":[],"name":"symbol","outputs":[{"internalType":"string","name":"","type":"string"}],"stateMutability":"view","type":"function"},{"inputs":[],"name":"totalSupply","outputs":[{"internalType":"uint256","name":"","type":"uint256"}],"stateMutability":"view","type":"function"},{"inputs":[{"internalType":"address","name":"to","type":"address"},{"internalType":"uint256","name":"value","type":"uint256"}],"name":"transfer","outputs":[{"internalType":"bool","name":"","type":"bool"}],"stateMutability":"nonpayable","type":"function"},{"inputs":[{"internalType":"address","name":"from","type":"address"},{"internalType":"address","name":"to","type":"address"},{"internalType":"uint256","name":"value","type":"uint256"}],"name":"transferFrom","outputs":[{"internalType":"bool","name":"","type":"bool"}],"stateMutability":"nonpayable","type":"function"},{"inputs":[],"name":"unpause","outputs":[],"stateMutability":"nonpayable","type":"function"}],"evm":{"bytecode":{"linkReferences":{},"object":"60c06040523480156200001157600080fd5b506040516200230d3803806200230d833981016040819052620000349162000269565b84846003620000448382620003a6565b506004620000538282620003a6565b5050506001600160a01b0381166200007e5760405163b12aa72160e01b815260040160405180910390fd5b6200008b600084620000d5565b50620000b87f114e74f6ea3bd819998f78687bfcb11b140da08e9b7d222fa9c1f1ba1f2aa12284620000d5565b506001600160a01b039182166080521660a0525062000472915050565b60008281526006602090815260408083206001600160a01b038516845290915281205460ff166200017e5760008381526006602090815260408083206001600160a01b03861684529091529020805460ff19166001179055620001353390565b6001600160a01b0316826001600160a01b0316847f2f8788117e7eff1d82e926ec794901d17c78024a50270940304540a733656f0d60405160405180910390a450600162000182565b5060005b92915050565b634e487b7160e01b600052604160045260246000fd5b600082601f830112620001b057600080fd5b81516001600160401b0380821115620001cd57620001cd62000188565b604051601f8301601f19908116603f01168101908282118183101715620001f857620001f862000188565b81604052838152602092508660208588010111156200021657600080fd5b600091505b838210156200023a57858201830151818301840152908201906200021b565b6000602085830101528094505050505092915050565b6001600160a01b03811681146200026657600080fd5b50565b600080600080600060a086880312156200028257600080fd5b85516001600160401b03808211156200029a57600080fd5b620002a889838a016200019e565b96506020880151915080821115620002bf57600080fd5b50620002ce888289016200019e565b9450506040860151620002e18162000250565b6060870151909350620002f48162000250565b6080870151909250620003078162000250565b809150509295509295909350565b600181811c908216806200032a57607f821691505b6020821081036200034b57634e487b7160e01b600052602260045260246000fd5b50919050565b601f821115620003a1576000816000526020600020601f850160051c810160208610156200037c5750805b601f850160051c820191505b818110156200039d5782815560010162000388565b5050505b505050565b81516001600160401b03811115620003c257620003c262000188565b620003da81620003d3845462000315565b8462000351565b602080601f831160018114620004125760008415620003f95750858301515b600019600386901b1c1916600185901b1785556200039d565b600085815260208120601f198616915b82811015620004435788860151825594840194600190910190840162000422565b5085821015620004625787850151600019600388901b60f8161c191681555b5050505050600190811b01905550565b60805160a051611e59620004b46000396000818161030e015281816108e30152610b4f0152600081816104ba01528181610d19015261154f0152611e596000f3fe608060405234801561001057600080fd5b50600436106101f05760003560e01c8063772312181161010f578063a217fddf116100a2578063c1ac79ae11610071578063c1ac79ae146104b5578063d547741f146104dc578063dd62ed3e146104ef578063fdfb8cee1461052857600080fd5b8063a217fddf1461045c578063a8caf84214610464578063a9059cbb14610477578063a935ba6e1461048a57600080fd5b806392193ecd116100de57806392193ecd146103ec57806395d89b411461041c5780639e4a803f146104245780639fda5b661461043757600080fd5b8063772312181461037c57806382aefa24146103bc5780638456cb59146103d157806391d14854146103d957600080fd5b8063306057d2116101875780633f4ba83a116101565780633f4ba83a14610301578063457cf77a146103095780635c975abb1461034857806370a082311461035357600080fd5b8063306057d2146102b9578063313ce567146102cc578063354cd135146102db57806336568abe146102ee57600080fd5b806318160ddd116101c357806318160ddd1461026657806323b872dd1461026e578063248a9ca3146102815780632f2ff15d146102a457600080fd5b806301ffc9a7146101f557806306affb811461021d57806306fdde031461023e578063095ea7b314610253575b600080fd5b61020861020336600461184e565b61053b565b60405190151581526020015b60405180910390f35b61023061022b366004611894565b610572565b604051908152602001610214565b6102466106cb565b604051610214919061190f565b610208610261366004611922565b61075d565b600254610230565b61020861027c36600461194c565b610775565b61023061028f366004611988565b60009081526006602052604090206001015490565b6102b76102b23660046119a1565b610799565b005b6102b76102c73660046119cd565b6107c4565b60405160128152602001610214565b6102b76102e93660046119f9565b610973565b6102b76102fc3660046119a1565b610bc1565b6102b7610bf9565b6103307f000000000000000000000000000000000000000000000000000000000000000081565b6040516001600160a01b039091168152602001610214565b60055460ff16610208565b610230610361366004611a1b565b6001600160a01b031660009081526020819052604090205490565b61020861038a366004611894565b6000928352600a602090815260408085209385529281528284206001600160a01b039290921684525290205460ff1690565b610230600080516020611e0483398151915281565b6102b7610c0f565b6102086103e73660046119a1565b610c22565b6103ff6103fa3660046119f9565b610c4d565b604080519384526020840192909252151590820152606001610214565b610246610c92565b6102b7610432366004611a36565b610ca1565b61044a610445366004611988565b610df5565b60405161021496959493929190611aa1565b610230600081565b6102b76104723660046119cd565b610eb9565b610208610485366004611922565b610f72565b6102306104983660046119f9565b600960209081526000928352604080842090915290825290205481565b6103307f000000000000000000000000000000000000000000000000000000000000000081565b6102b76104ea3660046119a1565b610f80565b6102306104fd366004611ae7565b6001600160a01b03918216600090815260016020908152604080832093909416825291909152205490565b6102b7610536366004611b11565b610fa5565b60006001600160e01b03198216637965db0b60e01b148061056c57506301ffc9a760e01b6001600160e01b03198316145b92915050565b600083815260086020526040812054831061058f575060006106c4565b60008481526008602052604081208054859081106105af576105af611bb9565b60009182526020918290206040805160608101825260039093029091018054835260018101549383019390935260029092015460ff16158015928201929092529150806105fc5750805142105b8061063157506000858152600a6020908152604080832087845282528083206001600160a01b038716845290915290205460ff165b156106405760009150506106c4565b6001600160a01b0383166000908152602081905260408120549081900361066c576000925050506106c4565b6000670de0b6b3a76400008284602001516106879190611be5565b6106919190611bfc565b60008881526009602090815260408083208a84529091529020549091508082116106bb57816106bd565b805b9450505050505b9392505050565b6060600380546106da90611c1e565b80601f016020809104026020016040519081016040528092919081815260200182805461070690611c1e565b80156107535780601f1061072857610100808354040283529160200191610753565b820191906000526020600020905b81548152906001019060200180831161073657829003601f168201915b5050505050905090565b60003361076b8185856110f2565b5060019392505050565b6000336107838582856110ff565b61078e858585611178565b506001949350505050565b6000828152600660205260409020600101546107b4816111d7565b6107be83836111e1565b50505050565b600080516020611e048339815191526107dc816111d7565b60008481526008602052604090205483106108195760405163562eb54160e11b815260048101859052602481018490526044015b60405180910390fd5b600084815260086020526040812080548590811061083957610839611bb9565b60009182526020909120600390910201600281015490915060ff161561087c57604051636c88bf9d60e11b81526004810186905260248101859052604401610810565b6000670de0b6b3a764000061089060025490565b836001015461089f9190611be5565b6108a99190611bfc565b9050808410156108d65760405163049c0a1d60e11b81526004810182905260248101859052604401610810565b61090b6001600160a01b037f000000000000000000000000000000000000000000000000000000000000000016333087611275565b600086815260096020908152604080832088845282529182902086905560028401805460ff191660011790559051858152869188917f1ac4fca8e6d1280086bad5346029e500b63870934d3627d8c95837963d8e6aa1910160405180910390a3505050505050565b61097b6112ab565b60008281526008602052604090205481106109b35760405163562eb54160e11b81526004810183905260248101829052604401610810565b60008281526008602052604081208054839081106109d3576109d3611bb9565b600091825260209182902060408051606081018252600390930290910180548084526001820154948401949094526002015460ff161515908201529150421015610a3057604051630fabf49160e31b815260040160405180910390fd5b8060400151610a5c576040516389cda7d360e01b81526004810184905260248101839052604401610810565b6000838152600a60209081526040808320858452825280832033845290915290205460ff1615610aae5760405162b4443f60e81b81526004810184905260248101839052336044820152606401610810565b6000610abb848433610572565b905080600003610aee5760405163ecb73f0360e01b81526004810185905260248101849052336044820152606401610810565b6000848152600a6020908152604080832086845282528083203384528252808320805460ff191660011790558683526009825280832086845290915281208054839290610b3c908490611c58565b90915550610b7690506001600160a01b037f00000000000000000000000000000000000000000000000000000000000000001633836112d1565b336001600160a01b031683857fdb754ae180fcf8b321152843aa997a5e4f1f8025b57a17567e1dacb81f88c3f584604051610bb391815260200190565b60405180910390a450505050565b6001600160a01b0381163314610bea5760405163334bd91960e11b815260040160405180910390fd5b610bf48282611306565b505050565b6000610c04816111d7565b610c0c611373565b50565b6000610c1a816111d7565b610c0c6113c5565b60009182526006602090815260408084206001600160a01b0393909316845291905290205460ff1690565b60086020528160005260406000208181548110610c6957600080fd5b600091825260209091206003909102018054600182015460029092015490935090915060ff1683565b6060600480546106da90611c1e565b610ca96112ab565b600080516020611e04833981519152610cc1816111d7565b60008281526007602052604090205460ff16610cf35760405163f65f93b160e01b815260048101839052602401610810565b604051631c7a216b60e21b81526001600160a01b038581166004830152602482018490527f000000000000000000000000000000000000000000000000000000000000000016906371e885ac90604401602060405180830381865afa158015610d60573d6000803e3d6000fd5b505050506040513d601f19601f82011682018060405250810190610d849190611c6b565b610da15760405163a0e1accb60e01b815260040160405180910390fd5b610dab8484611402565b81846001600160a01b03167f9e2374b0b3d852fcde010b91454cd6c1e129ed3f402ae29700d06820689391d485604051610de791815260200190565b60405180910390a350505050565b6007602052600090815260409020805460018201805460ff8084169461010090940416929190610e2490611c1e565b80601f0160208091040260200160405190810160405280929190818152602001828054610e5090611c1e565b8015610e9d5780601f10610e7257610100808354040283529160200191610e9d565b820191906000526020600020905b815481529060010190602001808311610e8057829003601f168201915b5050505050908060020154908060030154908060040154905086565b600080516020611e04833981519152610ed1816111d7565b6000848152600860209081526040808320815160608101835287815280840187815281840186815283546001808201865594885296869020925160039097029092019586555191850191909155516002909301805460ff191693151593909317909255815185815290810184905285917f46654254c461830917617635ac084cbab56cce83ce9c1fbdcf22bf0d7f3c32aa910160405180910390a250505050565b60003361076b818585611178565b600082815260066020526040902060010154610f9b816111d7565b6107be8383611306565b6000610fb0816111d7565b6040518060c00160405280600115158152602001886003811115610fd657610fd6611a69565b815260200187878080601f01602080910402602001604051908101604052809392919081815260200183838082843760009201829052509385525050506020808301889052604080840188905260609093018690528b8252600781529190208251815490151560ff19821681178355928401519192839161ff001990911661ffff199091161761010083600381111561107157611071611a69565b02179055506040820151600182019061108a9082611cf3565b50606082015181600201556080820151816003015560a08201518160040155905050877f9fc5dc8acc874f211f1111a5b09f56f3901120538731643153850cf65d35f64c8888886040516110e093929190611db3565b60405180910390a25050505050505050565b610bf4838383600161143c565b6001600160a01b038381166000908152600160209081526040808320938616835292905220546000198110156107be578181101561116957604051637dc7a0d960e11b81526001600160a01b03841660048201526024810182905260448101839052606401610810565b6107be8484848403600061143c565b6001600160a01b0383166111a257604051634b637e8f60e11b815260006004820152602401610810565b6001600160a01b0382166111cc5760405163ec442f0560e01b815260006004820152602401610810565b610bf4838383611503565b610c0c81336115e2565b60006111ed8383610c22565b61126d5760008381526006602090815260408083206001600160a01b03861684529091529020805460ff191660011790556112253390565b6001600160a01b0316826001600160a01b0316847f2f8788117e7eff1d82e926ec794901d17c78024a50270940304540a733656f0d60405160405180910390a450600161056c565b50600061056c565b61128384848484600161161b565b6107be57604051635274afe760e01b81526001600160a01b0385166004820152602401610810565b60055460ff16156112cf5760405163d93c066560e01b815260040160405180910390fd5b565b6112de838383600161168d565b610bf457604051635274afe760e01b81526001600160a01b0384166004820152602401610810565b60006113128383610c22565b1561126d5760008381526006602090815260408083206001600160a01b0386168085529252808320805460ff1916905551339286917ff6391f5c32d9c69d2a47ea670b442974b53935d1edc7fd64eb21e047a839171b9190a450600161056c565b61137b6116f3565b6005805460ff191690557f5db9ee0a495bf2e6ff9c91a7834c1ba4fdd244a5e8aa4e537bd38aeae4b073aa335b6040516001600160a01b03909116815260200160405180910390a1565b6113cd6112ab565b6005805460ff191660011790557f62e78cea01bee320cd4e420270b5ea74000d11b0c9f74754ebdbfc544b05a2586113a83390565b6001600160a01b03821661142c5760405163ec442f0560e01b815260006004820152602401610810565b61143860008383611503565b5050565b6001600160a01b0384166114665760405163e602df0560e01b815260006004820152602401610810565b6001600160a01b03831661149057604051634a1406b160e11b815260006004820152602401610810565b6001600160a01b03808516600090815260016020908152604080832093871683529290522082905580156107be57826001600160a01b0316846001600160a01b03167f8c5be1e5ebec7d5bd14f71427d1e84f3dd0314c0f7b2291e5b200ac8c7c3b92584604051610de791815260200190565b6001600160a01b0383161580159061152357506001600160a01b03821615155b156115d757604051636c85cf6760e01b81526001600160a01b03848116600483015283811660248301527f00000000000000000000000000000000000000000000000000000000000000001690636c85cf6790604401602060405180830381865afa158015611596573d6000803e3d6000fd5b505050506040513d601f19601f820116820180604052508101906115ba9190611c6b565b6115d75760405163a0e1accb60e01b815260040160405180910390fd5b610bf4838383611716565b6115ec8282610c22565b6114385760405163e2517d3f60e01b81526001600160a01b038216600482015260248101839052604401610810565b6040516323b872dd60e01b60008181526001600160a01b038781166004528616602452604485905291602083606481808c5af19250600160005114831661167b57838315161561166e573d6000823e3d81fd5b6000883b113d1516831692505b60405250600060605295945050505050565b60405163a9059cbb60e01b60008181526001600160a01b038616600452602485905291602083604481808b5af1925060016000511483166116e75783831516156116da573d6000823e3d81fd5b6000873b113d1516831692505b60405250949350505050565b60055460ff166112cf57604051638dfc202b60e01b815260040160405180910390fd5b61171e6112ab565b610bf48383836001600160a01b03831661174f5780600260008282546117449190611df0565b909155506117c19050565b6001600160a01b038316600090815260208190526040902054818110156117a25760405163391434e360e21b81526001600160a01b03851660048201526024810182905260448101839052606401610810565b6001600160a01b03841660009081526020819052604090209082900390555b6001600160a01b0382166117dd576002805482900390556117fc565b6001600160a01b03821660009081526020819052604090208054820190555b816001600160a01b0316836001600160a01b03167fddf252ad1be2c89b69c2b068fc378daa952ba7f163c4a11628f55a4df523b3ef8360405161184191815260200190565b60405180910390a3505050565b60006020828403121561186057600080fd5b81356001600160e01b0319811681146106c457600080fd5b80356001600160a01b038116811461188f57600080fd5b919050565b6000806000606084860312156118a957600080fd5b83359250602084013591506118c060408501611878565b90509250925092565b6000815180845260005b818110156118ef576020818501810151868301820152016118d3565b506000602082860101526020601f19601f83011685010191505092915050565b6020815260006106c460208301846118c9565b6000806040838503121561193557600080fd5b61193e83611878565b946020939093013593505050565b60008060006060848603121561196157600080fd5b61196a84611878565b925061197860208501611878565b9150604084013590509250925092565b60006020828403121561199a57600080fd5b5035919050565b600080604083850312156119b457600080fd5b823591506119c460208401611878565b90509250929050565b6000806000606084860312156119e257600080fd5b505081359360208301359350604090920135919050565b60008060408385031215611a0c57600080fd5b50508035926020909101359150565b600060208284031215611a2d57600080fd5b6106c482611878565b600080600060608486031215611a4b57600080fd5b611a5484611878565b95602085013595506040909401359392505050565b634e487b7160e01b600052602160045260246000fd5b60048110611a9d57634e487b7160e01b600052602160045260246000fd5b9052565b8615158152611ab36020820187611a7f565b60c060408201526000611ac960c08301876118c9565b606083019590955250608081019290925260a0909101529392505050565b60008060408385031215611afa57600080fd5b611b0383611878565b91506119c460208401611878565b600080600080600080600060c0888a031215611b2c57600080fd5b87359650602088013560048110611b4257600080fd5b9550604088013567ffffffffffffffff80821115611b5f57600080fd5b818a0191508a601f830112611b7357600080fd5b813581811115611b8257600080fd5b8b6020828501011115611b9457600080fd5b989b979a5050602001976060810135966080820135965060a090910135945092505050565b634e487b7160e01b600052603260045260246000fd5b634e487b7160e01b600052601160045260246000fd5b808202811582820484141761056c5761056c611bcf565b600082611c1957634e487b7160e01b600052601260045260246000fd5b500490565b600181811c90821680611c3257607f821691505b602082108103611c5257634e487b7160e01b600052602260045260246000fd5b50919050565b8181038181111561056c5761056c611bcf565b600060208284031215611c7d57600080fd5b815180151581146106c457600080fd5b634e487b7160e01b600052604160045260246000fd5b601f821115610bf4576000816000526020600020601f850160051c81016020861015611ccc5750805b601f850160051c820191505b81811015611ceb57828155600101611cd8565b505050505050565b815167ffffffffffffffff811115611d0d57611d0d611c8d565b611d2181611d1b8454611c1e565b84611ca3565b602080601f831160018114611d565760008415611d3e5750858301515b600019600386901b1c1916600185901b178555611ceb565b600085815260208120601f198616915b82811015611d8557888601518255948401946001909101908401611d66565b5085821015611da35787850151600019600388901b60f8161c191681555b5050505050600190811b01905550565b611dbd8185611a7f565b60406020820152816040820152818360608301376000818301606090810191909152601f909201601f1916010192915050565b8082018082111561056c5761056c611bcf56fe114e74f6ea3bd819998f78687bfcb11b140da08e9b7d222fa9c1f1ba1f2aa122a26469706673582212206215c6ab5d9c2fced0f02c2d2da76a809e2b0c6c587fd54a8bc0f5db74392ddd64736f6c63430008180033","opcodes":"PUSH1 0xC0 PUSH1 0x40 MSTORE CALLVALUE DUP1 ISZERO PUSH3 0x11 JUMPI PUSH1 0x0 DUP1 REVERT JUMPDEST POP PUSH1 0x40 MLOAD PUSH3 0x230D CODESIZE SUB DUP1 PUSH3 0x230D DUP4 CODECOPY DUP2 ADD PUSH1 0x40 DUP2 SWAP1 MSTORE PUSH3 0x34 SWAP2 PUSH3 0x269 JUMP JUMPDEST DUP5 DUP5 PUSH1 0x3 PUSH3 0x44 DUP4 DUP3 PUSH3 0x3A6 JUMP JUMPDEST POP PUSH1 0x4 PUSH3 0x53 DUP3 DUP3 PUSH3 0x3A6 JUMP JUMPDEST POP POP POP PUSH1 0x1 PUSH1 0x1 PUSH1 0xA0 SHL SUB DUP2 AND PUSH3 0x7E JUMPI PUSH1 0x40 MLOAD PUSH4 0xB12AA721 PUSH1 0xE0 SHL DUP2 MSTORE PUSH1 0x4 ADD PUSH1 0x40 MLOAD DUP1 SWAP2 SUB SWAP1 REVERT JUMPDEST PUSH3 0x8B PUSH1 0x0 DUP5 PUSH3 0xD5 JUMP JUMPDEST POP PUSH3 0xB8 PUSH32 0x114E74F6EA3BD819998F78687BFCB11B140DA08E9B7D222FA9C1F1BA1F2AA122 DUP5 PUSH3 0xD5 JUMP JUMPDEST POP PUSH1 0x1 PUSH1 0x1 PUSH1 0xA0 SHL SUB SWAP2 DUP3 AND PUSH1 0x80 MSTORE AND PUSH1 0xA0 MSTORE POP PUSH3 0x472 SWAP2 POP POP JUMP JUMPDEST PUSH1 0x0 DUP3 DUP2 MSTORE PUSH1 0x6 PUSH1 0x20 SWAP1 DUP2 MSTORE PUSH1 0x40 DUP1 DUP4 KECCAK256 PUSH1 0x1 PUSH1 0x1 PUSH1 0xA0 SHL SUB DUP6 AND DUP5 MSTORE SWAP1 SWAP2 MSTORE DUP2 KECCAK256 SLOAD PUSH1 0xFF AND PUSH3 0x17E JUMPI PUSH1 0x0 DUP4 DUP2 MSTORE PUSH1 0x6 PUSH1 0x20 SWAP1 DUP2 MSTORE PUSH1 0x40 DUP1 DUP4 KECCAK256 PUSH1 0x1 PUSH1 0x1 PUSH1 0xA0 SHL SUB DUP7 AND DUP5 MSTORE SWAP1 SWAP2 MSTORE SWAP1 KECCAK256 DUP1 SLOAD PUSH1 0xFF NOT AND PUSH1 0x1 OR SWAP1 SSTORE PUSH3 0x135 CALLER SWAP1 JUMP JUMPDEST PUSH1 0x1 PUSH1 0x1 PUSH1 0xA0 SHL SUB AND DUP3 PUSH1 0x1 PUSH1 0x1 PUSH1 0xA0 SHL SUB AND DUP5 PUSH32 0x2F8788117E7EFF1D82E926EC794901D17C78024A50270940304540A733656F0D PUSH1 0x40 MLOAD PUSH1 0x40 MLOAD DUP1 SWAP2 SUB SWAP1 LOG4 POP PUSH1 0x1 PUSH3 0x182 JUMP JUMPDEST POP PUSH1 0x0 JUMPDEST SWAP3 SWAP2 POP POP JUMP JUMPDEST PUSH4 0x4E487B71 PUSH1 0xE0 SHL PUSH1 0x0 MSTORE PUSH1 0x41 PUSH1 0x4 MSTORE PUSH1 0x24 PUSH1 0x0 REVERT JUMPDEST PUSH1 0x0 DUP3 PUSH1 0x1F DUP4 ADD SLT PUSH3 0x1B0 JUMPI PUSH1 0x0 DUP1 REVERT JUMPDEST DUP2 MLOAD PUSH1 0x1 PUSH1 0x1 PUSH1 0x40 SHL SUB DUP1 DUP3 GT ISZERO PUSH3 0x1CD JUMPI PUSH3 0x1CD PUSH3 0x188 JUMP JUMPDEST PUSH1 0x40 MLOAD PUSH1 0x1F DUP4 ADD PUSH1 0x1F NOT SWAP1 DUP2 AND PUSH1 0x3F ADD AND DUP2 ADD SWAP1 DUP3 DUP3 GT DUP2 DUP4 LT OR ISZERO PUSH3 0x1F8 JUMPI PUSH3 0x1F8 PUSH3 0x188 JUMP JUMPDEST DUP2 PUSH1 0x40 MSTORE DUP4 DUP2 MSTORE PUSH1 0x20 SWAP3 POP DUP7 PUSH1 0x20 DUP6 DUP9 ADD ADD GT ISZERO PUSH3 0x216 JUMPI PUSH1 0x0 DUP1 REVERT JUMPDEST PUSH1 0x0 SWAP2 POP JUMPDEST DUP4 DUP3 LT ISZERO PUSH3 0x23A JUMPI DUP6 DUP3 ADD DUP4 ADD MLOAD DUP2 DUP4 ADD DUP5 ADD MSTORE SWAP1 DUP3 ADD SWAP1 PUSH3 0x21B JUMP JUMPDEST PUSH1 0x0 PUSH1 0x20 DUP6 DUP4 ADD ADD MSTORE DUP1 SWAP5 POP POP POP POP POP SWAP3 SWAP2 POP POP JUMP JUMPDEST PUSH1 0x1 PUSH1 0x1 PUSH1 0xA0 SHL SUB DUP2 AND DUP2 EQ PUSH3 0x266 JUMPI PUSH1 0x0 DUP1 REVERT JUMPDEST POP JUMP JUMPDEST PUSH1 0x0 DUP1 PUSH1 0x0 DUP1 PUSH1 0x0 PUSH1 0xA0 DUP7 DUP9 SUB SLT ISZERO PUSH3 0x282 JUMPI PUSH1 0x0 DUP1 REVERT JUMPDEST DUP6 MLOAD PUSH1 0x1 PUSH1 0x1 PUSH1 0x40 SHL SUB DUP1 DUP3 GT ISZERO PUSH3 0x29A JUMPI PUSH1 0x0 DUP1 REVERT JUMPDEST PUSH3 0x2A8 DUP10 DUP4 DUP11 ADD PUSH3 0x19E JUMP JUMPDEST SWAP7 POP PUSH1 0x20 DUP9 ADD MLOAD SWAP2 POP DUP1 DUP3 GT ISZERO PUSH3 0x2BF JUMPI PUSH1 0x0 DUP1 REVERT JUMPDEST POP PUSH3 0x2CE DUP9 DUP3 DUP10 ADD PUSH3 0x19E JUMP JUMPDEST SWAP5 POP POP PUSH1 0x40 DUP7 ADD MLOAD PUSH3 0x2E1 DUP2 PUSH3 0x250 JUMP JUMPDEST PUSH1 0x60 DUP8 ADD MLOAD SWAP1 SWAP4 POP PUSH3 0x2F4 DUP2 PUSH3 0x250 JUMP JUMPDEST PUSH1 0x80 DUP8 ADD MLOAD SWAP1 SWAP3 POP PUSH3 0x307 DUP2 PUSH3 0x250 JUMP JUMPDEST DUP1 SWAP2 POP POP SWAP3 SWAP6 POP SWAP3 SWAP6 SWAP1 SWAP4 POP JUMP JUMPDEST PUSH1 0x1 DUP2 DUP2 SHR SWAP1 DUP3 AND DUP1 PUSH3 0x32A JUMPI PUSH1 0x7F DUP3 AND SWAP2 POP JUMPDEST PUSH1 0x20 DUP3 LT DUP2 SUB PUSH3 0x34B JUMPI PUSH4 0x4E487B71 PUSH1 0xE0 SHL PUSH1 0x0 MSTORE PUSH1 0x22 PUSH1 0x4 MSTORE PUSH1 0x24 PUSH1 0x0 REVERT JUMPDEST POP SWAP2 SWAP1 POP JUMP JUMPDEST PUSH1 0x1F DUP3 GT ISZERO PUSH3 0x3A1 JUMPI PUSH1 0x0 DUP2 PUSH1 0x0 MSTORE PUSH1 0x20 PUSH1 0x0 KECCAK256 PUSH1 0x1F DUP6 ADD PUSH1 0x5 SHR DUP2 ADD PUSH1 0x20 DUP7 LT ISZERO PUSH3 0x37C JUMPI POP DUP1 JUMPDEST PUSH1 0x1F DUP6 ADD PUSH1 0x5 SHR DUP3 ADD SWAP2 POP JUMPDEST DUP2 DUP2 LT ISZERO PUSH3 0x39D JUMPI DUP3 DUP2 SSTORE PUSH1 0x1 ADD PUSH3 0x388 JUMP JUMPDEST POP POP POP JUMPDEST POP POP POP JUMP JUMPDEST DUP2 MLOAD PUSH1 0x1 PUSH1 0x1 PUSH1 0x40 SHL SUB DUP2 GT ISZERO PUSH3 0x3C2 JUMPI PUSH3 0x3C2 PUSH3 0x188 JUMP JUMPDEST PUSH3 0x3DA DUP2 PUSH3 0x3D3 DUP5 SLOAD PUSH3 0x315 JUMP JUMPDEST DUP5 PUSH3 0x351 JUMP JUMPDEST PUSH1 0x20 DUP1 PUSH1 0x1F DUP4 GT PUSH1 0x1 DUP2 EQ PUSH3 0x412 JUMPI PUSH1 0x0 DUP5 ISZERO PUSH3 0x3F9 JUMPI POP DUP6 DUP4 ADD MLOAD JUMPDEST PUSH1 0x0 NOT PUSH1 0x3 DUP7 SWAP1 SHL SHR NOT AND PUSH1 0x1 DUP6 SWAP1 SHL OR DUP6 SSTORE PUSH3 0x39D JUMP JUMPDEST PUSH1 0x0 DUP6 DUP2 MSTORE PUSH1 0x20 DUP2 KECCAK256 PUSH1 0x1F NOT DUP7 AND SWAP2 JUMPDEST DUP3 DUP2 LT ISZERO PUSH3 0x443 JUMPI DUP9 DUP7 ADD MLOAD DUP3 SSTORE SWAP5 DUP5 ADD SWAP5 PUSH1 0x1 SWAP1 SWAP2 ADD SWAP1 DUP5 ADD PUSH3 0x422 JUMP JUMPDEST POP DUP6 DUP3 LT ISZERO PUSH3 0x462 JUMPI DUP8 DUP6 ADD MLOAD PUSH1 0x0 NOT PUSH1 0x3 DUP9 SWAP1 SHL PUSH1 0xF8 AND SHR NOT AND DUP2 SSTORE JUMPDEST POP POP POP POP POP PUSH1 0x1 SWAP1 DUP2 SHL ADD SWAP1 SSTORE POP JUMP JUMPDEST PUSH1 0x80 MLOAD PUSH1 0xA0 MLOAD PUSH2 0x1E59 PUSH3 0x4B4 PUSH1 0x0 CODECOPY PUSH1 0x0 DUP2 DUP2 PUSH2 0x30E ADD MSTORE DUP2 DUP2 PUSH2 0x8E3 ADD MSTORE PUSH2 0xB4F ADD MSTORE PUSH1 0x0 DUP2 DUP2 PUSH2 0x4BA ADD MSTORE DUP2 DUP2 PUSH2 0xD19 ADD MSTORE PUSH2 0x154F ADD MSTORE PUSH2 0x1E59 PUSH1 0x0 RETURN INVALID PUSH1 0x80 PUSH1 0x40 MSTORE CALLVALUE DUP1 ISZERO PUSH2 0x10 JUMPI PUSH1 0x0 DUP1 REVERT JUMPDEST POP PUSH1 0x4 CALLDATASIZE LT PUSH2 0x1F0 JUMPI PUSH1 0x0 CALLDATALOAD PUSH1 0xE0 SHR DUP1 PUSH4 0x77231218 GT PUSH2 0x10F JUMPI DUP1 PUSH4 0xA217FDDF GT PUSH2 0xA2 JUMPI DUP1 PUSH4 0xC1AC79AE GT PUSH2 0x71 JUMPI DUP1 PUSH4 0xC1AC79AE EQ PUSH2 0x4B5 JUMPI DUP1 PUSH4 0xD547741F EQ PUSH2 0x4DC JUMPI DUP1 PUSH4 0xDD62ED3E EQ PUSH2 0x4EF JUMPI DUP1 PUSH4 0xFDFB8CEE EQ PUSH2 0x528 JUMPI PUSH1 0x0 DUP1 REVERT JUMPDEST DUP1 PUSH4 0xA217FDDF EQ PUSH2 0x45C JUMPI DUP1 PUSH4 0xA8CAF842 EQ PUSH2 0x464 JUMPI DUP1 PUSH4 0xA9059CBB EQ PUSH2 0x477 JUMPI DUP1 PUSH4 0xA935BA6E EQ PUSH2 0x48A JUMPI PUSH1 0x0 DUP1 REVERT JUMPDEST DUP1 PUSH4 0x92193ECD GT PUSH2 0xDE JUMPI DUP1 PUSH4 0x92193ECD EQ PUSH2 0x3EC JUMPI DUP1 PUSH4 0x95D89B41 EQ PUSH2 0x41C JUMPI DUP1 PUSH4 0x9E4A803F EQ PUSH2 0x424 JUMPI DUP1 PUSH4 0x9FDA5B66 EQ PUSH2 0x437 JUMPI PUSH1 0x0 DUP1 REVERT JUMPDEST DUP1 PUSH4 0x77231218 EQ PUSH2 0x37C JUMPI DUP1 PUSH4 0x82AEFA24 EQ PUSH2 0x3BC JUMPI DUP1 PUSH4 0x8456CB59 EQ PUSH2 0x3D1 JUMPI DUP1 PUSH4 0x91D14854 EQ PUSH2 0x3D9 JUMPI PUSH1 0x0 DUP1 REVERT JUMPDEST DUP1 PUSH4 0x306057D2 GT PUSH2 0x187 JUMPI DUP1 PUSH4 0x3F4BA83A GT PUSH2 0x156 JUMPI DUP1 PUSH4 0x3F4BA83A EQ PUSH2 0x301 JUMPI DUP1 PUSH4 0x457CF77A EQ PUSH2 0x309 JUMPI DUP1 PUSH4 0x5C975ABB EQ PUSH2 0x348 JUMPI DUP1 PUSH4 0x70A08231 EQ PUSH2 0x353 JUMPI PUSH1 0x0 DUP1 REVERT JUMPDEST DUP1 PUSH4 0x306057D2 EQ PUSH2 0x2B9 JUMPI DUP1 PUSH4 0x313CE567 EQ PUSH2 0x2CC JUMPI DUP1 PUSH4 0x354CD135 EQ PUSH2 0x2DB JUMPI DUP1 PUSH4 0x36568ABE EQ PUSH2 0x2EE JUMPI PUSH1 0x0 DUP1 REVERT JUMPDEST DUP1 PUSH4 0x18160DDD GT PUSH2 0x1C3 JUMPI DUP1 PUSH4 0x18160DDD EQ PUSH2 0x266 JUMPI DUP1 PUSH4 0x23B872DD EQ PUSH2 0x26E JUMPI DUP1 PUSH4 0x248A9CA3 EQ PUSH2 0x281 JUMPI DUP1 PUSH4 0x2F2FF15D EQ PUSH2 0x2A4 JUMPI PUSH1 0x0 DUP1 REVERT JUMPDEST DUP1 PUSH4 0x1FFC9A7 EQ PUSH2 0x1F5 JUMPI DUP1 PUSH4 0x6AFFB81 EQ PUSH2 0x21D JUMPI DUP1 PUSH4 0x6FDDE03 EQ PUSH2 0x23E JUMPI DUP1 PUSH4 0x95EA7B3 EQ PUSH2 0x253 JUMPI JUMPDEST PUSH1 0x0 DUP1 REVERT JUMPDEST PUSH2 0x208 PUSH2 0x203 CALLDATASIZE PUSH1 0x4 PUSH2 0x184E JUMP JUMPDEST PUSH2 0x53B JUMP JUMPDEST PUSH1 0x40 MLOAD SWAP1 ISZERO ISZERO DUP2 MSTORE PUSH1 0x20 ADD JUMPDEST PUSH1 0x40 MLOAD DUP1 SWAP2 SUB SWAP1 RETURN JUMPDEST PUSH2 0x230 PUSH2 0x22B CALLDATASIZE PUSH1 0x4 PUSH2 0x1894 JUMP JUMPDEST PUSH2 0x572 JUMP JUMPDEST PUSH1 0x40 MLOAD SWAP1 DUP2 MSTORE PUSH1 0x20 ADD PUSH2 0x214 JUMP JUMPDEST PUSH2 0x246 PUSH2 0x6CB JUMP JUMPDEST PUSH1 0x40 MLOAD PUSH2 0x214 SWAP2 SWAP1 PUSH2 0x190F JUMP JUMPDEST PUSH2 0x208 PUSH2 0x261 CALLDATASIZE PUSH1 0x4 PUSH2 0x1922 JUMP JUMPDEST PUSH2 0x75D JUMP JUMPDEST PUSH1 0x2 SLOAD PUSH2 0x230 JUMP JUMPDEST PUSH2 0x208 PUSH2 0x27C CALLDATASIZE PUSH1 0x4 PUSH2 0x194C JUMP JUMPDEST PUSH2 0x775 JUMP JUMPDEST PUSH2 0x230 PUSH2 0x28F CALLDATASIZE PUSH1 0x4 PUSH2 0x1988 JUMP JUMPDEST PUSH1 0x0 SWAP1 DUP2 MSTORE PUSH1 0x6 PUSH1 0x20 MSTORE PUSH1 0x40 SWAP1 KECCAK256 PUSH1 0x1 ADD SLOAD SWAP1 JUMP JUMPDEST PUSH2 0x2B7 PUSH2 0x2B2 CALLDATASIZE PUSH1 0x4 PUSH2 0x19A1 JUMP JUMPDEST PUSH2 0x799 JUMP JUMPDEST STOP JUMPDEST PUSH2 0x2B7 PUSH2 0x2C7 CALLDATASIZE PUSH1 0x4 PUSH2 0x19CD JUMP JUMPDEST PUSH2 0x7C4 JUMP JUMPDEST PUSH1 0x40 MLOAD PUSH1 0x12 DUP2 MSTORE PUSH1 0x20 ADD PUSH2 0x214 JUMP JUMPDEST PUSH2 0x2B7 PUSH2 0x2E9 CALLDATASIZE PUSH1 0x4 PUSH2 0x19F9 JUMP JUMPDEST PUSH2 0x973 JUMP JUMPDEST PUSH2 0x2B7 PUSH2 0x2FC CALLDATASIZE PUSH1 0x4 PUSH2 0x19A1 JUMP JUMPDEST PUSH2 0xBC1 JUMP JUMPDEST PUSH2 0x2B7 PUSH2 0xBF9 JUMP JUMPDEST PUSH2 0x330 PUSH32 0x0 DUP2 JUMP JUMPDEST PUSH1 0x40 MLOAD PUSH1 0x1 PUSH1 0x1 PUSH1 0xA0 SHL SUB SWAP1 SWAP2 AND DUP2 MSTORE PUSH1 0x20 ADD PUSH2 0x214 JUMP JUMPDEST PUSH1 0x5 SLOAD PUSH1 0xFF AND PUSH2 0x208 JUMP JUMPDEST PUSH2 0x230 PUSH2 0x361 CALLDATASIZE PUSH1 0x4 PUSH2 0x1A1B JUMP JUMPDEST PUSH1 0x1 PUSH1 0x1 PUSH1 0xA0 SHL SUB AND PUSH1 0x0 SWAP1 DUP2 MSTORE PUSH1 0x20 DUP2 SWAP1 MSTORE PUSH1 0x40 SWAP1 KECCAK256 SLOAD SWAP1 JUMP JUMPDEST PUSH2 0x208 PUSH2 0x38A CALLDATASIZE PUSH1 0x4 PUSH2 0x1894 JUMP JUMPDEST PUSH1 0x0 SWAP3 DUP4 MSTORE PUSH1 0xA PUSH1 0x20 SWAP1 DUP2 MSTORE PUSH1 0x40 DUP1 DUP6 KECCAK256 SWAP4 DUP6 MSTORE SWAP3 DUP2 MSTORE DUP3 DUP5 KECCAK256 PUSH1 0x1 PUSH1 0x1 PUSH1 0xA0 SHL SUB SWAP3 SWAP1 SWAP3 AND DUP5 MSTORE MSTORE SWAP1 KECCAK256 SLOAD PUSH1 0xFF AND SWAP1 JUMP JUMPDEST PUSH2 0x230 PUSH1 0x0 DUP1 MLOAD PUSH1 0x20 PUSH2 0x1E04 DUP4 CODECOPY DUP2 MLOAD SWAP2 MSTORE DUP2 JUMP JUMPDEST PUSH2 0x2B7 PUSH2 0xC0F JUMP JUMPDEST PUSH2 0x208 PUSH2 0x3E7 CALLDATASIZE PUSH1 0x4 PUSH2 0x19A1 JUMP JUMPDEST PUSH2 0xC22 JUMP JUMPDEST PUSH2 0x3FF PUSH2 0x3FA CALLDATASIZE PUSH1 0x4 PUSH2 0x19F9 JUMP JUMPDEST PUSH2 0xC4D JUMP JUMPDEST PUSH1 0x40 DUP1 MLOAD SWAP4 DUP5 MSTORE PUSH1 0x20 DUP5 ADD SWAP3 SWAP1 SWAP3 MSTORE ISZERO ISZERO SWAP1 DUP3 ADD MSTORE PUSH1 0x60 ADD PUSH2 0x214 JUMP JUMPDEST PUSH2 0x246 PUSH2 0xC92 JUMP JUMPDEST PUSH2 0x2B7 PUSH2 0x432 CALLDATASIZE PUSH1 0x4 PUSH2 0x1A36 JUMP JUMPDEST PUSH2 0xCA1 JUMP JUMPDEST PUSH2 0x44A PUSH2 0x445 CALLDATASIZE PUSH1 0x4 PUSH2 0x1988 JUMP JUMPDEST PUSH2 0xDF5 JUMP JUMPDEST PUSH1 0x40 MLOAD PUSH2 0x214 SWAP7 SWAP6 SWAP5 SWAP4 SWAP3 SWAP2 SWAP1 PUSH2 0x1AA1 JUMP JUMPDEST PUSH2 0x230 PUSH1 0x0 DUP2 JUMP JUMPDEST PUSH2 0x2B7 PUSH2 0x472 CALLDATASIZE PUSH1 0x4 PUSH2 0x19CD JUMP JUMPDEST PUSH2 0xEB9 JUMP JUMPDEST PUSH2 0x208 PUSH2 0x485 CALLDATASIZE PUSH1 0x4 PUSH2 0x1922 JUMP JUMPDEST PUSH2 0xF72 JUMP JUMPDEST PUSH2 0x230 PUSH2 0x498 CALLDATASIZE PUSH1 0x4 PUSH2 0x19F9 JUMP JUMPDEST PUSH1 0x9 PUSH1 0x20 SWAP1 DUP2 MSTORE PUSH1 0x0 SWAP3 DUP4 MSTORE PUSH1 0x40 DUP1 DUP5 KECCAK256 SWAP1 SWAP2 MSTORE SWAP1 DUP3 MSTORE SWAP1 KECCAK256 SLOAD DUP2 JUMP JUMPDEST PUSH2 0x330 PUSH32 0x0 DUP2 JUMP JUMPDEST PUSH2 0x2B7 PUSH2 0x4EA CALLDATASIZE PUSH1 0x4 PUSH2 0x19A1 JUMP JUMPDEST PUSH2 0xF80 JUMP JUMPDEST PUSH2 0x230 PUSH2 0x4FD CALLDATASIZE PUSH1 0x4 PUSH2 0x1AE7 JUMP JUMPDEST PUSH1 0x1 PUSH1 0x1 PUSH1 0xA0 SHL SUB SWAP2 DUP3 AND PUSH1 0x0 SWAP1 DUP2 MSTORE PUSH1 0x1 PUSH1 0x20 SWAP1 DUP2 MSTORE PUSH1 0x40 DUP1 DUP4 KECCAK256 SWAP4 SWAP1 SWAP5 AND DUP3 MSTORE SWAP2 SWAP1 SWAP2 MSTORE KECCAK256 SLOAD SWAP1 JUMP JUMPDEST PUSH2 0x2B7 PUSH2 0x536 CALLDATASIZE PUSH1 0x4 PUSH2 0x1B11 JUMP JUMPDEST PUSH2 0xFA5 JUMP JUMPDEST PUSH1 0x0 PUSH1 0x1 PUSH1 0x1 PUSH1 0xE0 SHL SUB NOT DUP3 AND PUSH4 0x7965DB0B PUSH1 0xE0 SHL EQ DUP1 PUSH2 0x56C JUMPI POP PUSH4 0x1FFC9A7 PUSH1 0xE0 SHL PUSH1 0x1 PUSH1 0x1 PUSH1 0xE0 SHL SUB NOT DUP4 AND EQ JUMPDEST SWAP3 SWAP2 POP POP JUMP JUMPDEST PUSH1 0x0 DUP4 DUP2 MSTORE PUSH1 0x8 PUSH1 0x20 MSTORE PUSH1 0x40 DUP2 KECCAK256 SLOAD DUP4 LT PUSH2 0x58F JUMPI POP PUSH1 0x0 PUSH2 0x6C4 JUMP JUMPDEST PUSH1 0x0 DUP5 DUP2 MSTORE PUSH1 0x8 PUSH1 0x20 MSTORE PUSH1 0x40 DUP2 KECCAK256 DUP1 SLOAD DUP6 SWAP1 DUP2 LT PUSH2 0x5AF JUMPI PUSH2 0x5AF PUSH2 0x1BB9 JUMP JUMPDEST PUSH1 0x0 SWAP2 DUP3 MSTORE PUSH1 0x20 SWAP2 DUP3 SWAP1 KECCAK256 PUSH1 0x40 DUP1 MLOAD PUSH1 0x60 DUP2 ADD DUP3 MSTORE PUSH1 0x3 SWAP1 SWAP4 MUL SWAP1 SWAP2 ADD DUP1 SLOAD DUP4 MSTORE PUSH1 0x1 DUP2 ADD SLOAD SWAP4 DUP4 ADD SWAP4 SWAP1 SWAP4 MSTORE PUSH1 0x2 SWAP1 SWAP3 ADD SLOAD PUSH1 0xFF AND ISZERO DUP1 ISZERO SWAP3 DUP3 ADD SWAP3 SWAP1 SWAP3 MSTORE SWAP2 POP DUP1 PUSH2 0x5FC JUMPI POP DUP1 MLOAD TIMESTAMP LT JUMPDEST DUP1 PUSH2 0x631 JUMPI POP PUSH1 0x0 DUP6 DUP2 MSTORE PUSH1 0xA PUSH1 0x20 SWAP1 DUP2 MSTORE PUSH1 0x40 DUP1 DUP4 KECCAK256 DUP8 DUP5 MSTORE DUP3 MSTORE DUP1 DUP4 KECCAK256 PUSH1 0x1 PUSH1 0x1 PUSH1 0xA0 SHL SUB DUP8 AND DUP5 MSTORE SWAP1 SWAP2 MSTORE SWAP1 KECCAK256 SLOAD PUSH1 0xFF AND JUMPDEST ISZERO PUSH2 0x640 JUMPI PUSH1 0x0 SWAP2 POP POP PUSH2 0x6C4 JUMP JUMPDEST PUSH1 0x1 PUSH1 0x1 PUSH1 0xA0 SHL SUB DUP4 AND PUSH1 0x0 SWAP1 DUP2 MSTORE PUSH1 0x20 DUP2 SWAP1 MSTORE PUSH1 0x40 DUP2 KECCAK256 SLOAD SWAP1 DUP2 SWAP1 SUB PUSH2 0x66C JUMPI PUSH1 0x0 SWAP3 POP POP POP PUSH2 0x6C4 JUMP JUMPDEST PUSH1 0x0 PUSH8 0xDE0B6B3A7640000 DUP3 DUP5 PUSH1 0x20 ADD MLOAD PUSH2 0x687 SWAP2 SWAP1 PUSH2 0x1BE5 JUMP JUMPDEST PUSH2 0x691 SWAP2 SWAP1 PUSH2 0x1BFC JUMP JUMPDEST PUSH1 0x0 DUP9 DUP2 MSTORE PUSH1 0x9 PUSH1 0x20 SWAP1 DUP2 MSTORE PUSH1 0x40 DUP1 DUP4 KECCAK256 DUP11 DUP5 MSTORE SWAP1 SWAP2 MSTORE SWAP1 KECCAK256 SLOAD SWAP1 SWAP2 POP DUP1 DUP3 GT PUSH2 0x6BB JUMPI DUP2 PUSH2 0x6BD JUMP JUMPDEST DUP1 JUMPDEST SWAP5 POP POP POP POP POP JUMPDEST SWAP4 SWAP3 POP POP POP JUMP JUMPDEST PUSH1 0x60 PUSH1 0x3 DUP1 SLOAD PUSH2 0x6DA SWAP1 PUSH2 0x1C1E JUMP JUMPDEST DUP1 PUSH1 0x1F ADD PUSH1 0x20 DUP1 SWAP2 DIV MUL PUSH1 0x20 ADD PUSH1 0x40 MLOAD SWAP1 DUP2 ADD PUSH1 0x40 MSTORE DUP1 SWAP3 SWAP2 SWAP1 DUP2 DUP2 MSTORE PUSH1 0x20 ADD DUP3 DUP1 SLOAD PUSH2 0x706 SWAP1 PUSH2 0x1C1E JUMP JUMPDEST DUP1 ISZERO PUSH2 0x753 JUMPI DUP1 PUSH1 0x1F LT PUSH2 0x728 JUMPI PUSH2 0x100 DUP1 DUP4 SLOAD DIV MUL DUP4 MSTORE SWAP2 PUSH1 0x20 ADD SWAP2 PUSH2 0x753 JUMP JUMPDEST DUP3 ADD SWAP2 SWAP1 PUSH1 0x0 MSTORE PUSH1 0x20 PUSH1 0x0 KECCAK256 SWAP1 JUMPDEST DUP2 SLOAD DUP2 MSTORE SWAP1 PUSH1 0x1 ADD SWAP1 PUSH1 0x20 ADD DUP1 DUP4 GT PUSH2 0x736 JUMPI DUP3 SWAP1 SUB PUSH1 0x1F AND DUP3 ADD SWAP2 JUMPDEST POP POP POP POP POP SWAP1 POP SWAP1 JUMP JUMPDEST PUSH1 0x0 CALLER PUSH2 0x76B DUP2 DUP6 DUP6 PUSH2 0x10F2 JUMP JUMPDEST POP PUSH1 0x1 SWAP4 SWAP3 POP POP POP JUMP JUMPDEST PUSH1 0x0 CALLER PUSH2 0x783 DUP6 DUP3 DUP6 PUSH2 0x10FF JUMP JUMPDEST PUSH2 0x78E DUP6 DUP6 DUP6 PUSH2 0x1178 JUMP JUMPDEST POP PUSH1 0x1 SWAP5 SWAP4 POP POP POP POP JUMP JUMPDEST PUSH1 0x0 DUP3 DUP2 MSTORE PUSH1 0x6 PUSH1 0x20 MSTORE PUSH1 0x40 SWAP1 KECCAK256 PUSH1 0x1 ADD SLOAD PUSH2 0x7B4 DUP2 PUSH2 0x11D7 JUMP JUMPDEST PUSH2 0x7BE DUP4 DUP4 PUSH2 0x11E1 JUMP JUMPDEST POP POP POP POP JUMP JUMPDEST PUSH1 0x0 DUP1 MLOAD PUSH1 0x20 PUSH2 0x1E04 DUP4 CODECOPY DUP2 MLOAD SWAP2 MSTORE PUSH2 0x7DC DUP2 PUSH2 0x11D7 JUMP JUMPDEST PUSH1 0x0 DUP5 DUP2 MSTORE PUSH1 0x8 PUSH1 0x20 MSTORE PUSH1 0x40 SWAP1 KECCAK256 SLOAD DUP4 LT PUSH2 0x819 JUMPI PUSH1 0x40 MLOAD PUSH4 0x562EB541 PUSH1 0xE1 SHL DUP2 MSTORE PUSH1 0x4 DUP2 ADD DUP6 SWAP1 MSTORE PUSH1 0x24 DUP2 ADD DUP5 SWAP1 MSTORE PUSH1 0x44 ADD JUMPDEST PUSH1 0x40 MLOAD DUP1 SWAP2 SUB SWAP1 REVERT JUMPDEST PUSH1 0x0 DUP5 DUP2 MSTORE PUSH1 0x8 PUSH1 0x20 MSTORE PUSH1 0x40 DUP2 KECCAK256 DUP1 SLOAD DUP6 SWAP1 DUP2 LT PUSH2 0x839 JUMPI PUSH2 0x839 PUSH2 0x1BB9 JUMP JUMPDEST PUSH1 0x0 SWAP2 DUP3 MSTORE PUSH1 0x20 SWAP1 SWAP2 KECCAK256 PUSH1 0x3 SWAP1 SWAP2 MUL ADD PUSH1 0x2 DUP2 ADD SLOAD SWAP1 SWAP2 POP PUSH1 0xFF AND ISZERO PUSH2 0x87C JUMPI PUSH1 0x40 MLOAD PUSH4 0x6C88BF9D PUSH1 0xE1 SHL DUP2 MSTORE PUSH1 0x4 DUP2 ADD DUP7 SWAP1 MSTORE PUSH1 0x24 DUP2 ADD DUP6 SWAP1 MSTORE PUSH1 0x44 ADD PUSH2 0x810 JUMP JUMPDEST PUSH1 0x0 PUSH8 0xDE0B6B3A7640000 PUSH2 0x890 PUSH1 0x2 SLOAD SWAP1 JUMP JUMPDEST DUP4 PUSH1 0x1 ADD SLOAD PUSH2 0x89F SWAP2 SWAP1 PUSH2 0x1BE5 JUMP JUMPDEST PUSH2 0x8A9 SWAP2 SWAP1 PUSH2 0x1BFC JUMP JUMPDEST SWAP1 POP DUP1 DUP5 LT ISZERO PUSH2 0x8D6 JUMPI PUSH1 0x40 MLOAD PUSH4 0x49C0A1D PUSH1 0xE1 SHL DUP2 MSTORE PUSH1 0x4 DUP2 ADD DUP3 SWAP1 MSTORE PUSH1 0x24 DUP2 ADD DUP6 SWAP1 MSTORE PUSH1 0x44 ADD PUSH2 0x810 JUMP JUMPDEST PUSH2 0x90B PUSH1 0x1 PUSH1 0x1 PUSH1 0xA0 SHL SUB PUSH32 0x0 AND CALLER ADDRESS DUP8 PUSH2 0x1275 JUMP JUMPDEST PUSH1 0x0 DUP7 DUP2 MSTORE PUSH1 0x9 PUSH1 0x20 SWAP1 DUP2 MSTORE PUSH1 0x40 DUP1 DUP4 KECCAK256 DUP9 DUP5 MSTORE DUP3 MSTORE SWAP2 DUP3 SWAP1 KECCAK256 DUP7 SWAP1 SSTORE PUSH1 0x2 DUP5 ADD DUP1 SLOAD PUSH1 0xFF NOT AND PUSH1 0x1 OR SWAP1 SSTORE SWAP1 MLOAD DUP6 DUP2 MSTORE DUP7 SWAP2 DUP9 SWAP2 PUSH32 0x1AC4FCA8E6D1280086BAD5346029E500B63870934D3627D8C95837963D8E6AA1 SWAP2 ADD PUSH1 0x40 MLOAD DUP1 SWAP2 SUB SWAP1 LOG3 POP POP POP POP POP POP JUMP JUMPDEST PUSH2 0x97B PUSH2 0x12AB JUMP JUMPDEST PUSH1 0x0 DUP3 DUP2 MSTORE PUSH1 0x8 PUSH1 0x20 MSTORE PUSH1 0x40 SWAP1 KECCAK256 SLOAD DUP2 LT PUSH2 0x9B3 JUMPI PUSH1 0x40 MLOAD PUSH4 0x562EB541 PUSH1 0xE1 SHL DUP2 MSTORE PUSH1 0x4 DUP2 ADD DUP4 SWAP1 MSTORE PUSH1 0x24 DUP2 ADD DUP3 SWAP1 MSTORE PUSH1 0x44 ADD PUSH2 0x810 JUMP JUMPDEST PUSH1 0x0 DUP3 DUP2 MSTORE PUSH1 0x8 PUSH1 0x20 MSTORE PUSH1 0x40 DUP2 KECCAK256 DUP1 SLOAD DUP4 SWAP1 DUP2 LT PUSH2 0x9D3 JUMPI PUSH2 0x9D3 PUSH2 0x1BB9 JUMP JUMPDEST PUSH1 0x0 SWAP2 DUP3 MSTORE PUSH1 0x20 SWAP2 DUP3 SWAP1 KECCAK256 PUSH1 0x40 DUP1 MLOAD PUSH1 0x60 DUP2 ADD DUP3 MSTORE PUSH1 0x3 SWAP1 SWAP4 MUL SWAP1 SWAP2 ADD DUP1 SLOAD DUP1 DUP5 MSTORE PUSH1 0x1 DUP3 ADD SLOAD SWAP5 DUP5 ADD SWAP5 SWAP1 SWAP5 MSTORE PUSH1 0x2 ADD SLOAD PUSH1 0xFF AND ISZERO ISZERO SWAP1 DUP3 ADD MSTORE SWAP2 POP TIMESTAMP LT ISZERO PUSH2 0xA30 JUMPI PUSH1 0x40 MLOAD PUSH4 0xFABF491 PUSH1 0xE3 SHL DUP2 MSTORE PUSH1 0x4 ADD PUSH1 0x40 MLOAD DUP1 SWAP2 SUB SWAP1 REVERT JUMPDEST DUP1 PUSH1 0x40 ADD MLOAD PUSH2 0xA5C JUMPI PUSH1 0x40 MLOAD PUSH4 0x89CDA7D3 PUSH1 0xE0 SHL DUP2 MSTORE PUSH1 0x4 DUP2 ADD DUP5 SWAP1 MSTORE PUSH1 0x24 DUP2 ADD DUP4 SWAP1 MSTORE PUSH1 0x44 ADD PUSH2 0x810 JUMP JUMPDEST PUSH1 0x0 DUP4 DUP2 MSTORE PUSH1 0xA PUSH1 0x20 SWAP1 DUP2 MSTORE PUSH1 0x40 DUP1 DUP4 KECCAK256 DUP6 DUP5 MSTORE DUP3 MSTORE DUP1 DUP4 KECCAK256 CALLER DUP5 MSTORE SWAP1 SWAP2 MSTORE SWAP1 KECCAK256 SLOAD PUSH1 0xFF AND ISZERO PUSH2 0xAAE JUMPI PUSH1 0x40 MLOAD PUSH3 0xB4443F PUSH1 0xE8 SHL DUP2 MSTORE PUSH1 0x4 DUP2 ADD DUP5 SWAP1 MSTORE PUSH1 0x24 DUP2 ADD DUP4 SWAP1 MSTORE CALLER PUSH1 0x44 DUP3 ADD MSTORE PUSH1 0x64 ADD PUSH2 0x810 JUMP JUMPDEST PUSH1 0x0 PUSH2 0xABB DUP5 DUP5 CALLER PUSH2 0x572 JUMP JUMPDEST SWAP1 POP DUP1 PUSH1 0x0 SUB PUSH2 0xAEE JUMPI PUSH1 0x40 MLOAD PUSH4 0xECB73F03 PUSH1 0xE0 SHL DUP2 MSTORE PUSH1 0x4 DUP2 ADD DUP6 SWAP1 MSTORE PUSH1 0x24 DUP2 ADD DUP5 SWAP1 MSTORE CALLER PUSH1 0x44 DUP3 ADD MSTORE PUSH1 0x64 ADD PUSH2 0x810 JUMP JUMPDEST PUSH1 0x0 DUP5 DUP2 MSTORE PUSH1 0xA PUSH1 0x20 SWAP1 DUP2 MSTORE PUSH1 0x40 DUP1 DUP4 KECCAK256 DUP7 DUP5 MSTORE DUP3 MSTORE DUP1 DUP4 KECCAK256 CALLER DUP5 MSTORE DUP3 MSTORE DUP1 DUP4 KECCAK256 DUP1 SLOAD PUSH1 0xFF NOT AND PUSH1 0x1 OR SWAP1 SSTORE DUP7 DUP4 MSTORE PUSH1 0x9 DUP3 MSTORE DUP1 DUP4 KECCAK256 DUP7 DUP5 MSTORE SWAP1 SWAP2 MSTORE DUP2 KECCAK256 DUP1 SLOAD DUP4 SWAP3 SWAP1 PUSH2 0xB3C SWAP1 DUP5 SWAP1 PUSH2 0x1C58 JUMP JUMPDEST SWAP1 SWAP2 SSTORE POP PUSH2 0xB76 SWAP1 POP PUSH1 0x1 PUSH1 0x1 PUSH1 0xA0 SHL SUB PUSH32 0x0 AND CALLER DUP4 PUSH2 0x12D1 JUMP JUMPDEST CALLER PUSH1 0x1 PUSH1 0x1 PUSH1 0xA0 SHL SUB AND DUP4 DUP6 PUSH32 0xDB754AE180FCF8B321152843AA997A5E4F1F8025B57A17567E1DACB81F88C3F5 DUP5 PUSH1 0x40 MLOAD PUSH2 0xBB3 SWAP2 DUP2 MSTORE PUSH1 0x20 ADD SWAP1 JUMP JUMPDEST PUSH1 0x40 MLOAD DUP1 SWAP2 SUB SWAP1 LOG4 POP POP POP POP JUMP JUMPDEST PUSH1 0x1 PUSH1 0x1 PUSH1 0xA0 SHL SUB DUP2 AND CALLER EQ PUSH2 0xBEA JUMPI PUSH1 0x40 MLOAD PUSH4 0x334BD919 PUSH1 0xE1 SHL DUP2 MSTORE PUSH1 0x4 ADD PUSH1 0x40 MLOAD DUP1 SWAP2 SUB SWAP1 REVERT JUMPDEST PUSH2 0xBF4 DUP3 DUP3 PUSH2 0x1306 JUMP JUMPDEST POP POP POP JUMP JUMPDEST PUSH1 0x0 PUSH2 0xC04 DUP2 PUSH2 0x11D7 JUMP JUMPDEST PUSH2 0xC0C PUSH2 0x1373 JUMP JUMPDEST POP JUMP JUMPDEST PUSH1 0x0 PUSH2 0xC1A DUP2 PUSH2 0x11D7 JUMP JUMPDEST PUSH2 0xC0C PUSH2 0x13C5 JUMP JUMPDEST PUSH1 0x0 SWAP2 DUP3 MSTORE PUSH1 0x6 PUSH1 0x20 SWAP1 DUP2 MSTORE PUSH1 0x40 DUP1 DUP5 KECCAK256 PUSH1 0x1 PUSH1 0x1 PUSH1 0xA0 SHL SUB SWAP4 SWAP1 SWAP4 AND DUP5 MSTORE SWAP2 SWAP1 MSTORE SWAP1 KECCAK256 SLOAD PUSH1 0xFF AND SWAP1 JUMP JUMPDEST PUSH1 0x8 PUSH1 0x20 MSTORE DUP2 PUSH1 0x0 MSTORE PUSH1 0x40 PUSH1 0x0 KECCAK256 DUP2 DUP2 SLOAD DUP2 LT PUSH2 0xC69 JUMPI PUSH1 0x0 DUP1 REVERT JUMPDEST PUSH1 0x0 SWAP2 DUP3 MSTORE PUSH1 0x20 SWAP1 SWAP2 KECCAK256 PUSH1 0x3 SWAP1 SWAP2 MUL ADD DUP1 SLOAD PUSH1 0x1 DUP3 ADD SLOAD PUSH1 0x2 SWAP1 SWAP3 ADD SLOAD SWAP1 SWAP4 POP SWAP1 SWAP2 POP PUSH1 0xFF AND DUP4 JUMP JUMPDEST PUSH1 0x60 PUSH1 0x4 DUP1 SLOAD PUSH2 0x6DA SWAP1 PUSH2 0x1C1E JUMP JUMPDEST PUSH2 0xCA9 PUSH2 0x12AB JUMP JUMPDEST PUSH1 0x0 DUP1 MLOAD PUSH1 0x20 PUSH2 0x1E04 DUP4 CODECOPY DUP2 MLOAD SWAP2 MSTORE PUSH2 0xCC1 DUP2 PUSH2 0x11D7 JUMP JUMPDEST PUSH1 0x0 DUP3 DUP2 MSTORE PUSH1 0x7 PUSH1 0x20 MSTORE PUSH1 0x40 SWAP1 KECCAK256 SLOAD PUSH1 0xFF AND PUSH2 0xCF3 JUMPI PUSH1 0x40 MLOAD PUSH4 0xF65F93B1 PUSH1 0xE0 SHL DUP2 MSTORE PUSH1 0x4 DUP2 ADD DUP4 SWAP1 MSTORE PUSH1 0x24 ADD PUSH2 0x810 JUMP JUMPDEST PUSH1 0x40 MLOAD PUSH4 0x1C7A216B PUSH1 0xE2 SHL DUP2 MSTORE PUSH1 0x1 PUSH1 0x1 PUSH1 0xA0 SHL SUB DUP6 DUP2 AND PUSH1 0x4 DUP4 ADD MSTORE PUSH1 0x24 DUP3 ADD DUP5 SWAP1 MSTORE PUSH32 0x0 AND SWAP1 PUSH4 0x71E885AC SWAP1 PUSH1 0x44 ADD PUSH1 0x20 PUSH1 0x40 MLOAD DUP1 DUP4 SUB DUP2 DUP7 GAS STATICCALL ISZERO DUP1 ISZERO PUSH2 0xD60 JUMPI RETURNDATASIZE PUSH1 0x0 DUP1 RETURNDATACOPY RETURNDATASIZE PUSH1 0x0 REVERT JUMPDEST POP POP POP POP PUSH1 0x40 MLOAD RETURNDATASIZE PUSH1 0x1F NOT PUSH1 0x1F DUP3 ADD AND DUP3 ADD DUP1 PUSH1 0x40 MSTORE POP DUP2 ADD SWAP1 PUSH2 0xD84 SWAP2 SWAP1 PUSH2 0x1C6B JUMP JUMPDEST PUSH2 0xDA1 JUMPI PUSH1 0x40 MLOAD PUSH4 0xA0E1ACCB PUSH1 0xE0 SHL DUP2 MSTORE PUSH1 0x4 ADD PUSH1 0x40 MLOAD DUP1 SWAP2 SUB SWAP1 REVERT JUMPDEST PUSH2 0xDAB DUP5 DUP5 PUSH2 0x1402 JUMP JUMPDEST DUP2 DUP5 PUSH1 0x1 PUSH1 0x1 PUSH1 0xA0 SHL SUB AND PUSH32 0x9E2374B0B3D852FCDE010B91454CD6C1E129ED3F402AE29700D06820689391D4 DUP6 PUSH1 0x40 MLOAD PUSH2 0xDE7 SWAP2 DUP2 MSTORE PUSH1 0x20 ADD SWAP1 JUMP JUMPDEST PUSH1 0x40 MLOAD DUP1 SWAP2 SUB SWAP1 LOG3 POP POP POP POP JUMP JUMPDEST PUSH1 0x7 PUSH1 0x20 MSTORE PUSH1 0x0 SWAP1 DUP2 MSTORE PUSH1 0x40 SWAP1 KECCAK256 DUP1 SLOAD PUSH1 0x1 DUP3 ADD DUP1 SLOAD PUSH1 0xFF DUP1 DUP5 AND SWAP5 PUSH2 0x100 SWAP1 SWAP5 DIV AND SWAP3 SWAP2 SWAP1 PUSH2 0xE24 SWAP1 PUSH2 0x1C1E JUMP JUMPDEST DUP1 PUSH1 0x1F ADD PUSH1 0x20 DUP1 SWAP2 DIV MUL PUSH1 0x20 ADD PUSH1 0x40 MLOAD SWAP1 DUP2 ADD PUSH1 0x40 MSTORE DUP1 SWAP3 SWAP2 SWAP1 DUP2 DUP2 MSTORE PUSH1 0x20 ADD DUP3 DUP1 SLOAD PUSH2 0xE50 SWAP1 PUSH2 0x1C1E JUMP JUMPDEST DUP1 ISZERO PUSH2 0xE9D JUMPI DUP1 PUSH1 0x1F LT PUSH2 0xE72 JUMPI PUSH2 0x100 DUP1 DUP4 SLOAD DIV MUL DUP4 MSTORE SWAP2 PUSH1 0x20 ADD SWAP2 PUSH2 0xE9D JUMP JUMPDEST DUP3 ADD SWAP2 SWAP1 PUSH1 0x0 MSTORE PUSH1 0x20 PUSH1 0x0 KECCAK256 SWAP1 JUMPDEST DUP2 SLOAD DUP2 MSTORE SWAP1 PUSH1 0x1 ADD SWAP1 PUSH1 0x20 ADD DUP1 DUP4 GT PUSH2 0xE80 JUMPI DUP3 SWAP1 SUB PUSH1 0x1F AND DUP3 ADD SWAP2 JUMPDEST POP POP POP POP POP SWAP1 DUP1 PUSH1 0x2 ADD SLOAD SWAP1 DUP1 PUSH1 0x3 ADD SLOAD SWAP1 DUP1 PUSH1 0x4 ADD SLOAD SWAP1 POP DUP7 JUMP JUMPDEST PUSH1 0x0 DUP1 MLOAD PUSH1 0x20 PUSH2 0x1E04 DUP4 CODECOPY DUP2 MLOAD SWAP2 MSTORE PUSH2 0xED1 DUP2 PUSH2 0x11D7 JUMP JUMPDEST PUSH1 0x0 DUP5 DUP2 MSTORE PUSH1 0x8 PUSH1 0x20 SWAP1 DUP2 MSTORE PUSH1 0x40 DUP1 DUP4 KECCAK256 DUP2 MLOAD PUSH1 0x60 DUP2 ADD DUP4 MSTORE DUP8 DUP2 MSTORE DUP1 DUP5 ADD DUP8 DUP2 MSTORE DUP2 DUP5 ADD DUP7 DUP2 MSTORE DUP4 SLOAD PUSH1 0x1 DUP1 DUP3 ADD DUP7 SSTORE SWAP5 DUP9 MSTORE SWAP7 DUP7 SWAP1 KECCAK256 SWAP3 MLOAD PUSH1 0x3 SWAP1 SWAP8 MUL SWAP1 SWAP3 ADD SWAP6 DUP7 SSTORE MLOAD SWAP2 DUP6 ADD SWAP2 SWAP1 SWAP2 SSTORE MLOAD PUSH1 0x2 SWAP1 SWAP4 ADD DUP1 SLOAD PUSH1 0xFF NOT AND SWAP4 ISZERO ISZERO SWAP4 SWAP1 SWAP4 OR SWAP1 SWAP3 SSTORE DUP2 MLOAD DUP6 DUP2 MSTORE SWAP1 DUP2 ADD DUP5 SWAP1 MSTORE DUP6 SWAP2 PUSH32 0x46654254C461830917617635AC084CBAB56CCE83CE9C1FBDCF22BF0D7F3C32AA SWAP2 ADD PUSH1 0x40 MLOAD DUP1 SWAP2 SUB SWAP1 LOG2 POP POP POP POP JUMP JUMPDEST PUSH1 0x0 CALLER PUSH2 0x76B DUP2 DUP6 DUP6 PUSH2 0x1178 JUMP JUMPDEST PUSH1 0x0 DUP3 DUP2 MSTORE PUSH1 0x6 PUSH1 0x20 MSTORE PUSH1 0x40 SWAP1 KECCAK256 PUSH1 0x1 ADD SLOAD PUSH2 0xF9B DUP2 PUSH2 0x11D7 JUMP JUMPDEST PUSH2 0x7BE DUP4 DUP4 PUSH2 0x1306 JUMP JUMPDEST PUSH1 0x0 PUSH2 0xFB0 DUP2 PUSH2 0x11D7 JUMP JUMPDEST PUSH1 0x40 MLOAD DUP1 PUSH1 0xC0 ADD PUSH1 0x40 MSTORE DUP1 PUSH1 0x1 ISZERO ISZERO DUP2 MSTORE PUSH1 0x20 ADD DUP9 PUSH1 0x3 DUP2 GT ISZERO PUSH2 0xFD6 JUMPI PUSH2 0xFD6 PUSH2 0x1A69 JUMP JUMPDEST DUP2 MSTORE PUSH1 0x20 ADD DUP8 DUP8 DUP1 DUP1 PUSH1 0x1F ADD PUSH1 0x20 DUP1 SWAP2 DIV MUL PUSH1 0x20 ADD PUSH1 0x40 MLOAD SWAP1 DUP2 ADD PUSH1 0x40 MSTORE DUP1 SWAP4 SWAP3 SWAP2 SWAP1 DUP2 DUP2 MSTORE PUSH1 0x20 ADD DUP4 DUP4 DUP1 DUP3 DUP5 CALLDATACOPY PUSH1 0x0 SWAP3 ADD DUP3 SWAP1 MSTORE POP SWAP4 DUP6 MSTORE POP POP POP PUSH1 0x20 DUP1 DUP4 ADD DUP9 SWAP1 MSTORE PUSH1 0x40 DUP1 DUP5 ADD DUP9 SWAP1 MSTORE PUSH1 0x60 SWAP1 SWAP4 ADD DUP7 SWAP1 MSTORE DUP12 DUP3 MSTORE PUSH1 0x7 DUP2 MSTORE SWAP2 SWAP1 KECCAK256 DUP3 MLOAD DUP2 SLOAD SWAP1 ISZERO ISZERO PUSH1 0xFF NOT DUP3 AND DUP2 OR DUP4 SSTORE SWAP3 DUP5 ADD MLOAD SWAP2 SWAP3 DUP4 SWAP2 PUSH2 0xFF00 NOT SWAP1 SWAP2 AND PUSH2 0xFFFF NOT SWAP1 SWAP2 AND OR PUSH2 0x100 DUP4 PUSH1 0x3 DUP2 GT ISZERO PUSH2 0x1071 JUMPI PUSH2 0x1071 PUSH2 0x1A69 JUMP JUMPDEST MUL OR SWAP1 SSTORE POP PUSH1 0x40 DUP3 ADD MLOAD PUSH1 0x1 DUP3 ADD SWAP1 PUSH2 0x108A SWAP1 DUP3 PUSH2 0x1CF3 JUMP JUMPDEST POP PUSH1 0x60 DUP3 ADD MLOAD DUP2 PUSH1 0x2 ADD SSTORE PUSH1 0x80 DUP3 ADD MLOAD DUP2 PUSH1 0x3 ADD SSTORE PUSH1 0xA0 DUP3 ADD MLOAD DUP2 PUSH1 0x4 ADD SSTORE SWAP1 POP POP DUP8 PUSH32 0x9FC5DC8ACC874F211F1111A5B09F56F3901120538731643153850CF65D35F64C DUP9 DUP9 DUP9 PUSH1 0x40 MLOAD PUSH2 0x10E0 SWAP4 SWAP3 SWAP2 SWAP1 PUSH2 0x1DB3 JUMP JUMPDEST PUSH1 0x40 MLOAD DUP1 SWAP2 SUB SWAP1 LOG2 POP POP POP POP POP POP POP POP JUMP JUMPDEST PUSH2 0xBF4 DUP4 DUP4 DUP4 PUSH1 0x1 PUSH2 0x143C JUMP JUMPDEST PUSH1 0x1 PUSH1 0x1 PUSH1 0xA0 SHL SUB DUP4 DUP2 AND PUSH1 0x0 SWAP1 DUP2 MSTORE PUSH1 0x1 PUSH1 0x20 SWAP1 DUP2 MSTORE PUSH1 0x40 DUP1 DUP4 KECCAK256 SWAP4 DUP7 AND DUP4 MSTORE SWAP3 SWAP1 MSTORE KECCAK256 SLOAD PUSH1 0x0 NOT DUP2 LT ISZERO PUSH2 0x7BE JUMPI DUP2 DUP2 LT ISZERO PUSH2 0x1169 JUMPI PUSH1 0x40 MLOAD PUSH4 0x7DC7A0D9 PUSH1 0xE1 SHL DUP2 MSTORE PUSH1 0x1 PUSH1 0x1 PUSH1 0xA0 SHL SUB DUP5 AND PUSH1 0x4 DUP3 ADD MSTORE PUSH1 0x24 DUP2 ADD DUP3 SWAP1 MSTORE PUSH1 0x44 DUP2 ADD DUP4 SWAP1 MSTORE PUSH1 0x64 ADD PUSH2 0x810 JUMP JUMPDEST PUSH2 0x7BE DUP5 DUP5 DUP5 DUP5 SUB PUSH1 0x0 PUSH2 0x143C JUMP JUMPDEST PUSH1 0x1 PUSH1 0x1 PUSH1 0xA0 SHL SUB DUP4 AND PUSH2 0x11A2 JUMPI PUSH1 0x40 MLOAD PUSH4 0x4B637E8F PUSH1 0xE1 SHL DUP2 MSTORE PUSH1 0x0 PUSH1 0x4 DUP3 ADD MSTORE PUSH1 0x24 ADD PUSH2 0x810 JUMP JUMPDEST PUSH1 0x1 PUSH1 0x1 PUSH1 0xA0 SHL SUB DUP3 AND PUSH2 0x11CC JUMPI PUSH1 0x40 MLOAD PUSH4 0xEC442F05 PUSH1 0xE0 SHL DUP2 MSTORE PUSH1 0x0 PUSH1 0x4 DUP3 ADD MSTORE PUSH1 0x24 ADD PUSH2 0x810 JUMP JUMPDEST PUSH2 0xBF4 DUP4 DUP4 DUP4 PUSH2 0x1503 JUMP JUMPDEST PUSH2 0xC0C DUP2 CALLER PUSH2 0x15E2 JUMP JUMPDEST PUSH1 0x0 PUSH2 0x11ED DUP4 DUP4 PUSH2 0xC22 JUMP JUMPDEST PUSH2 0x126D JUMPI PUSH1 0x0 DUP4 DUP2 MSTORE PUSH1 0x6 PUSH1 0x20 SWAP1 DUP2 MSTORE PUSH1 0x40 DUP1 DUP4 KECCAK256 PUSH1 0x1 PUSH1 0x1 PUSH1 0xA0 SHL SUB DUP7 AND DUP5 MSTORE SWAP1 SWAP2 MSTORE SWAP1 KECCAK256 DUP1 SLOAD PUSH1 0xFF NOT AND PUSH1 0x1 OR SWAP1 SSTORE PUSH2 0x1225 CALLER SWAP1 JUMP JUMPDEST PUSH1 0x1 PUSH1 0x1 PUSH1 0xA0 SHL SUB AND DUP3 PUSH1 0x1 PUSH1 0x1 PUSH1 0xA0 SHL SUB AND DUP5 PUSH32 0x2F8788117E7EFF1D82E926EC794901D17C78024A50270940304540A733656F0D PUSH1 0x40 MLOAD PUSH1 0x40 MLOAD DUP1 SWAP2 SUB SWAP1 LOG4 POP PUSH1 0x1 PUSH2 0x56C JUMP JUMPDEST POP PUSH1 0x0 PUSH2 0x56C JUMP JUMPDEST PUSH2 0x1283 DUP5 DUP5 DUP5 DUP5 PUSH1 0x1 PUSH2 0x161B JUMP JUMPDEST PUSH2 0x7BE JUMPI PUSH1 0x40 MLOAD PUSH4 0x5274AFE7 PUSH1 0xE0 SHL DUP2 MSTORE PUSH1 0x1 PUSH1 0x1 PUSH1 0xA0 SHL SUB DUP6 AND PUSH1 0x4 DUP3 ADD MSTORE PUSH1 0x24 ADD PUSH2 0x810 JUMP JUMPDEST PUSH1 0x5 SLOAD PUSH1 0xFF AND ISZERO PUSH2 0x12CF JUMPI PUSH1 0x40 MLOAD PUSH4 0xD93C0665 PUSH1 0xE0 SHL DUP2 MSTORE PUSH1 0x4 ADD PUSH1 0x40 MLOAD DUP1 SWAP2 SUB SWAP1 REVERT JUMPDEST JUMP JUMPDEST PUSH2 0x12DE DUP4 DUP4 DUP4 PUSH1 0x1 PUSH2 0x168D JUMP JUMPDEST PUSH2 0xBF4 JUMPI PUSH1 0x40 MLOAD PUSH4 0x5274AFE7 PUSH1 0xE0 SHL DUP2 MSTORE PUSH1 0x1 PUSH1 0x1 PUSH1 0xA0 SHL SUB DUP5 AND PUSH1 0x4 DUP3 ADD MSTORE PUSH1 0x24 ADD PUSH2 0x810 JUMP JUMPDEST PUSH1 0x0 PUSH2 0x1312 DUP4 DUP4 PUSH2 0xC22 JUMP JUMPDEST ISZERO PUSH2 0x126D JUMPI PUSH1 0x0 DUP4 DUP2 MSTORE PUSH1 0x6 PUSH1 0x20 SWAP1 DUP2 MSTORE PUSH1 0x40 DUP1 DUP4 KECCAK256 PUSH1 0x1 PUSH1 0x1 PUSH1 0xA0 SHL SUB DUP7 AND DUP1 DUP6 MSTORE SWAP3 MSTORE DUP1 DUP4 KECCAK256 DUP1 SLOAD PUSH1 0xFF NOT AND SWAP1 SSTORE MLOAD CALLER SWAP3 DUP7 SWAP2 PUSH32 0xF6391F5C32D9C69D2A47EA670B442974B53935D1EDC7FD64EB21E047A839171B SWAP2 SWAP1 LOG4 POP PUSH1 0x1 PUSH2 0x56C JUMP JUMPDEST PUSH2 0x137B PUSH2 0x16F3 JUMP JUMPDEST PUSH1 0x5 DUP1 SLOAD PUSH1 0xFF NOT AND SWAP1 SSTORE PUSH32 0x5DB9EE0A495BF2E6FF9C91A7834C1BA4FDD244A5E8AA4E537BD38AEAE4B073AA CALLER JUMPDEST PUSH1 0x40 MLOAD PUSH1 0x1 PUSH1 0x1 PUSH1 0xA0 SHL SUB SWAP1 SWAP2 AND DUP2 MSTORE PUSH1 0x20 ADD PUSH1 0x40 MLOAD DUP1 SWAP2 SUB SWAP1 LOG1 JUMP JUMPDEST PUSH2 0x13CD PUSH2 0x12AB JUMP JUMPDEST PUSH1 0x5 DUP1 SLOAD PUSH1 0xFF NOT AND PUSH1 0x1 OR SWAP1 SSTORE PUSH32 0x62E78CEA01BEE320CD4E420270B5EA74000D11B0C9F74754EBDBFC544B05A258 PUSH2 0x13A8 CALLER SWAP1 JUMP JUMPDEST PUSH1 0x1 PUSH1 0x1 PUSH1 0xA0 SHL SUB DUP3 AND PUSH2 0x142C JUMPI PUSH1 0x40 MLOAD PUSH4 0xEC442F05 PUSH1 0xE0 SHL DUP2 MSTORE PUSH1 0x0 PUSH1 0x4 DUP3 ADD MSTORE PUSH1 0x24 ADD PUSH2 0x810 JUMP JUMPDEST PUSH2 0x1438 PUSH1 0x0 DUP4 DUP4 PUSH2 0x1503 JUMP JUMPDEST POP POP JUMP JUMPDEST PUSH1 0x1 PUSH1 0x1 PUSH1 0xA0 SHL SUB DUP5 AND PUSH2 0x1466 JUMPI PUSH1 0x40 MLOAD PUSH4 0xE602DF05 PUSH1 0xE0 SHL DUP2 MSTORE PUSH1 0x0 PUSH1 0x4 DUP3 ADD MSTORE PUSH1 0x24 ADD PUSH2 0x810 JUMP JUMPDEST PUSH1 0x1 PUSH1 0x1 PUSH1 0xA0 SHL SUB DUP4 AND PUSH2 0x1490 JUMPI PUSH1 0x40 MLOAD PUSH4 0x4A1406B1 PUSH1 0xE1 SHL DUP2 MSTORE PUSH1 0x0 PUSH1 0x4 DUP3 ADD MSTORE PUSH1 0x24 ADD PUSH2 0x810 JUMP JUMPDEST PUSH1 0x1 PUSH1 0x1 PUSH1 0xA0 SHL SUB DUP1 DUP6 AND PUSH1 0x0 SWAP1 DUP2 MSTORE PUSH1 0x1 PUSH1 0x20 SWAP1 DUP2 MSTORE PUSH1 0x40 DUP1 DUP4 KECCAK256 SWAP4 DUP8 AND DUP4 MSTORE SWAP3 SWAP1 MSTORE KECCAK256 DUP3 SWAP1 SSTORE DUP1 ISZERO PUSH2 0x7BE JUMPI DUP3 PUSH1 0x1 PUSH1 0x1 PUSH1 0xA0 SHL SUB AND DUP5 PUSH1 0x1 PUSH1 0x1 PUSH1 0xA0 SHL SUB AND PUSH32 0x8C5BE1E5EBEC7D5BD14F71427D1E84F3DD0314C0F7B2291E5B200AC8C7C3B925 DUP5 PUSH1 0x40 MLOAD PUSH2 0xDE7 SWAP2 DUP2 MSTORE PUSH1 0x20 ADD SWAP1 JUMP JUMPDEST PUSH1 0x1 PUSH1 0x1 PUSH1 0xA0 SHL SUB DUP4 AND ISZERO DUP1 ISZERO SWAP1 PUSH2 0x1523 JUMPI POP PUSH1 0x1 PUSH1 0x1 PUSH1 0xA0 SHL SUB DUP3 AND ISZERO ISZERO JUMPDEST ISZERO PUSH2 0x15D7 JUMPI PUSH1 0x40 MLOAD PUSH4 0x6C85CF67 PUSH1 0xE0 SHL DUP2 MSTORE PUSH1 0x1 PUSH1 0x1 PUSH1 0xA0 SHL SUB DUP5 DUP2 AND PUSH1 0x4 DUP4 ADD MSTORE DUP4 DUP2 AND PUSH1 0x24 DUP4 ADD MSTORE PUSH32 0x0 AND SWAP1 PUSH4 0x6C85CF67 SWAP1 PUSH1 0x44 ADD PUSH1 0x20 PUSH1 0x40 MLOAD DUP1 DUP4 SUB DUP2 DUP7 GAS STATICCALL ISZERO DUP1 ISZERO PUSH2 0x1596 JUMPI RETURNDATASIZE PUSH1 0x0 DUP1 RETURNDATACOPY RETURNDATASIZE PUSH1 0x0 REVERT JUMPDEST POP POP POP POP PUSH1 0x40 MLOAD RETURNDATASIZE PUSH1 0x1F NOT PUSH1 0x1F DUP3 ADD AND DUP3 ADD DUP1 PUSH1 0x40 MSTORE POP DUP2 ADD SWAP1 PUSH2 0x15BA SWAP2 SWAP1 PUSH2 0x1C6B JUMP JUMPDEST PUSH2 0x15D7 JUMPI PUSH1 0x40 MLOAD PUSH4 0xA0E1ACCB PUSH1 0xE0 SHL DUP2 MSTORE PUSH1 0x4 ADD PUSH1 0x40 MLOAD DUP1 SWAP2 SUB SWAP1 REVERT JUMPDEST PUSH2 0xBF4 DUP4 DUP4 DUP4 PUSH2 0x1716 JUMP JUMPDEST PUSH2 0x15EC DUP3 DUP3 PUSH2 0xC22 JUMP JUMPDEST PUSH2 0x1438 JUMPI PUSH1 0x40 MLOAD PUSH4 0xE2517D3F PUSH1 0xE0 SHL DUP2 MSTORE PUSH1 0x1 PUSH1 0x1 PUSH1 0xA0 SHL SUB DUP3 AND PUSH1 0x4 DUP3 ADD MSTORE PUSH1 0x24 DUP2 ADD DUP4 SWAP1 MSTORE PUSH1 0x44 ADD PUSH2 0x810 JUMP JUMPDEST PUSH1 0x40 MLOAD PUSH4 0x23B872DD PUSH1 0xE0 SHL PUSH1 0x0 DUP2 DUP2 MSTORE PUSH1 0x1 PUSH1 0x1 PUSH1 0xA0 SHL SUB DUP8 DUP2 AND PUSH1 0x4 MSTORE DUP7 AND PUSH1 0x24 MSTORE PUSH1 0x44 DUP6 SWAP1 MSTORE SWAP2 PUSH1 0x20 DUP4 PUSH1 0x64 DUP2 DUP1 DUP13 GAS CALL SWAP3 POP PUSH1 0x1 PUSH1 0x0 MLOAD EQ DUP4 AND PUSH2 0x167B JUMPI DUP4 DUP4 ISZERO AND ISZERO PUSH2 0x166E JUMPI RETURNDATASIZE PUSH1 0x0 DUP3 RETURNDATACOPY RETURNDATASIZE DUP2 REVERT JUMPDEST PUSH1 0x0 DUP9 EXTCODESIZE GT RETURNDATASIZE ISZERO AND DUP4 AND SWAP3 POP JUMPDEST PUSH1 0x40 MSTORE POP PUSH1 0x0 PUSH1 0x60 MSTORE SWAP6 SWAP5 POP POP POP POP POP JUMP JUMPDEST PUSH1 0x40 MLOAD PUSH4 0xA9059CBB PUSH1 0xE0 SHL PUSH1 0x0 DUP2 DUP2 MSTORE PUSH1 0x1 PUSH1 0x1 PUSH1 0xA0 SHL SUB DUP7 AND PUSH1 0x4 MSTORE PUSH1 0x24 DUP6 SWAP1 MSTORE SWAP2 PUSH1 0x20 DUP4 PUSH1 0x44 DUP2 DUP1 DUP12 GAS CALL SWAP3 POP PUSH1 0x1 PUSH1 0x0 MLOAD EQ DUP4 AND PUSH2 0x16E7 JUMPI DUP4 DUP4 ISZERO AND ISZERO PUSH2 0x16DA JUMPI RETURNDATASIZE PUSH1 0x0 DUP3 RETURNDATACOPY RETURNDATASIZE DUP2 REVERT JUMPDEST PUSH1 0x0 DUP8 EXTCODESIZE GT RETURNDATASIZE ISZERO AND DUP4 AND SWAP3 POP JUMPDEST PUSH1 0x40 MSTORE POP SWAP5 SWAP4 POP POP POP POP JUMP JUMPDEST PUSH1 0x5 SLOAD PUSH1 0xFF AND PUSH2 0x12CF JUMPI PUSH1 0x40 MLOAD PUSH4 0x8DFC202B PUSH1 0xE0 SHL DUP2 MSTORE PUSH1 0x4 ADD PUSH1 0x40 MLOAD DUP1 SWAP2 SUB SWAP1 REVERT JUMPDEST PUSH2 0x171E PUSH2 0x12AB JUMP JUMPDEST PUSH2 0xBF4 DUP4 DUP4 DUP4 PUSH1 0x1 PUSH1 0x1 PUSH1 0xA0 SHL SUB DUP4 AND PUSH2 0x174F JUMPI DUP1 PUSH1 0x2 PUSH1 0x0 DUP3 DUP3 SLOAD PUSH2 0x1744 SWAP2 SWAP1 PUSH2 0x1DF0 JUMP JUMPDEST SWAP1 SWAP2 SSTORE POP PUSH2 0x17C1 SWAP1 POP JUMP JUMPDEST PUSH1 0x1 PUSH1 0x1 PUSH1 0xA0 SHL SUB DUP4 AND PUSH1 0x0 SWAP1 DUP2 MSTORE PUSH1 0x20 DUP2 SWAP1 MSTORE PUSH1 0x40 SWAP1 KECCAK256 SLOAD DUP2 DUP2 LT ISZERO PUSH2 0x17A2 JUMPI PUSH1 0x40 MLOAD PUSH4 0x391434E3 PUSH1 0xE2 SHL DUP2 MSTORE PUSH1 0x1 PUSH1 0x1 PUSH1 0xA0 SHL SUB DUP6 AND PUSH1 0x4 DUP3 ADD MSTORE PUSH1 0x24 DUP2 ADD DUP3 SWAP1 MSTORE PUSH1 0x44 DUP2 ADD DUP4 SWAP1 MSTORE PUSH1 0x64 ADD PUSH2 0x810 JUMP JUMPDEST PUSH1 0x1 PUSH1 0x1 PUSH1 0xA0 SHL SUB DUP5 AND PUSH1 0x0 SWAP1 DUP2 MSTORE PUSH1 0x20 DUP2 SWAP1 MSTORE PUSH1 0x40 SWAP1 KECCAK256 SWAP1 DUP3 SWAP1 SUB SWAP1 SSTORE JUMPDEST PUSH1 0x1 PUSH1 0x1 PUSH1 0xA0 SHL SUB DUP3 AND PUSH2 0x17DD JUMPI PUSH1 0x2 DUP1 SLOAD DUP3 SWAP1 SUB SWAP1 SSTORE PUSH2 0x17FC JUMP JUMPDEST PUSH1 0x1 PUSH1 0x1 PUSH1 0xA0 SHL SUB DUP3 AND PUSH1 0x0 SWAP1 DUP2 MSTORE PUSH1 0x20 DUP2 SWAP1 MSTORE PUSH1 0x40 SWAP1 KECCAK256 DUP1 SLOAD DUP3 ADD SWAP1 SSTORE JUMPDEST DUP2 PUSH1 0x1 PUSH1 0x1 PUSH1 0xA0 SHL SUB AND DUP4 PUSH1 0x1 PUSH1 0x1 PUSH1 0xA0 SHL SUB AND PUSH32 0xDDF252AD1BE2C89B69C2B068FC378DAA952BA7F163C4A11628F55A4DF523B3EF DUP4 PUSH1 0x40 MLOAD PUSH2 0x1841 SWAP2 DUP2 MSTORE PUSH1 0x20 ADD SWAP1 JUMP JUMPDEST PUSH1 0x40 MLOAD DUP1 SWAP2 SUB SWAP1 LOG3 POP POP POP JUMP JUMPDEST PUSH1 0x0 PUSH1 0x20 DUP3 DUP5 SUB SLT ISZERO PUSH2 0x1860 JUMPI PUSH1 0x0 DUP1 REVERT JUMPDEST DUP2 CALLDATALOAD PUSH1 0x1 PUSH1 0x1 PUSH1 0xE0 SHL SUB NOT DUP2 AND DUP2 EQ PUSH2 0x6C4 JUMPI PUSH1 0x0 DUP1 REVERT JUMPDEST DUP1 CALLDATALOAD PUSH1 0x1 PUSH1 0x1 PUSH1 0xA0 SHL SUB DUP2 AND DUP2 EQ PUSH2 0x188F JUMPI PUSH1 0x0 DUP1 REVERT JUMPDEST SWAP2 SWAP1 POP JUMP JUMPDEST PUSH1 0x0 DUP1 PUSH1 0x0 PUSH1 0x60 DUP5 DUP7 SUB SLT ISZERO PUSH2 0x18A9 JUMPI PUSH1 0x0 DUP1 REVERT JUMPDEST DUP4 CALLDATALOAD SWAP3 POP PUSH1 0x20 DUP5 ADD CALLDATALOAD SWAP2 POP PUSH2 0x18C0 PUSH1 0x40 DUP6 ADD PUSH2 0x1878 JUMP JUMPDEST SWAP1 POP SWAP3 POP SWAP3 POP SWAP3 JUMP JUMPDEST PUSH1 0x0 DUP2 MLOAD DUP1 DUP5 MSTORE PUSH1 0x0 JUMPDEST DUP2 DUP2 LT ISZERO PUSH2 0x18EF JUMPI PUSH1 0x20 DUP2 DUP6 ADD DUP2 ADD MLOAD DUP7 DUP4 ADD DUP3 ADD MSTORE ADD PUSH2 0x18D3 JUMP JUMPDEST POP PUSH1 0x0 PUSH1 0x20 DUP3 DUP7 ADD ADD MSTORE PUSH1 0x20 PUSH1 0x1F NOT PUSH1 0x1F DUP4 ADD AND DUP6 ADD ADD SWAP2 POP POP SWAP3 SWAP2 POP POP JUMP JUMPDEST PUSH1 0x20 DUP2 MSTORE PUSH1 0x0 PUSH2 0x6C4 PUSH1 0x20 DUP4 ADD DUP5 PUSH2 0x18C9 JUMP JUMPDEST PUSH1 0x0 DUP1 PUSH1 0x40 DUP4 DUP6 SUB SLT ISZERO PUSH2 0x1935 JUMPI PUSH1 0x0 DUP1 REVERT JUMPDEST PUSH2 0x193E DUP4 PUSH2 0x1878 JUMP JUMPDEST SWAP5 PUSH1 0x20 SWAP4 SWAP1 SWAP4 ADD CALLDATALOAD SWAP4 POP POP POP JUMP JUMPDEST PUSH1 0x0 DUP1 PUSH1 0x0 PUSH1 0x60 DUP5 DUP7 SUB SLT ISZERO PUSH2 0x1961 JUMPI PUSH1 0x0 DUP1 REVERT JUMPDEST PUSH2 0x196A DUP5 PUSH2 0x1878 JUMP JUMPDEST SWAP3 POP PUSH2 0x1978 PUSH1 0x20 DUP6 ADD PUSH2 0x1878 JUMP JUMPDEST SWAP2 POP PUSH1 0x40 DUP5 ADD CALLDATALOAD SWAP1 POP SWAP3 POP SWAP3 POP SWAP3 JUMP JUMPDEST PUSH1 0x0 PUSH1 0x20 DUP3 DUP5 SUB SLT ISZERO PUSH2 0x199A JUMPI PUSH1 0x0 DUP1 REVERT JUMPDEST POP CALLDATALOAD SWAP2 SWAP1 POP JUMP JUMPDEST PUSH1 0x0 DUP1 PUSH1 0x40 DUP4 DUP6 SUB SLT ISZERO PUSH2 0x19B4 JUMPI PUSH1 0x0 DUP1 REVERT JUMPDEST DUP3 CALLDATALOAD SWAP2 POP PUSH2 0x19C4 PUSH1 0x20 DUP5 ADD PUSH2 0x1878 JUMP JUMPDEST SWAP1 POP SWAP3 POP SWAP3 SWAP1 POP JUMP JUMPDEST PUSH1 0x0 DUP1 PUSH1 0x0 PUSH1 0x60 DUP5 DUP7 SUB SLT ISZERO PUSH2 0x19E2 JUMPI PUSH1 0x0 DUP1 REVERT JUMPDEST POP POP DUP2 CALLDATALOAD SWAP4 PUSH1 0x20 DUP4 ADD CALLDATALOAD SWAP4 POP PUSH1 0x40 SWAP1 SWAP3 ADD CALLDATALOAD SWAP2 SWAP1 POP JUMP JUMPDEST PUSH1 0x0 DUP1 PUSH1 0x40 DUP4 DUP6 SUB SLT ISZERO PUSH2 0x1A0C JUMPI PUSH1 0x0 DUP1 REVERT JUMPDEST POP POP DUP1 CALLDATALOAD SWAP3 PUSH1 0x20 SWAP1 SWAP2 ADD CALLDATALOAD SWAP2 POP JUMP JUMPDEST PUSH1 0x0 PUSH1 0x20 DUP3 DUP5 SUB SLT ISZERO PUSH2 0x1A2D JUMPI PUSH1 0x0 DUP1 REVERT JUMPDEST PUSH2 0x6C4 DUP3 PUSH2 0x1878 JUMP JUMPDEST PUSH1 0x0 DUP1 PUSH1 0x0 PUSH1 0x60 DUP5 DUP7 SUB SLT ISZERO PUSH2 0x1A4B JUMPI PUSH1 0x0 DUP1 REVERT JUMPDEST PUSH2 0x1A54 DUP5 PUSH2 0x1878 JUMP JUMPDEST SWAP6 PUSH1 0x20 DUP6 ADD CALLDATALOAD SWAP6 POP PUSH1 0x40 SWAP1 SWAP5 ADD CALLDATALOAD SWAP4 SWAP3 POP POP POP JUMP JUMPDEST PUSH4 0x4E487B71 PUSH1 0xE0 SHL PUSH1 0x0 MSTORE PUSH1 0x21 PUSH1 0x4 MSTORE PUSH1 0x24 PUSH1 0x0 REVERT JUMPDEST PUSH1 0x4 DUP2 LT PUSH2 0x1A9D JUMPI PUSH4 0x4E487B71 PUSH1 0xE0 SHL PUSH1 0x0 MSTORE PUSH1 0x21 PUSH1 0x4 MSTORE PUSH1 0x24 PUSH1 0x0 REVERT JUMPDEST SWAP1 MSTORE JUMP JUMPDEST DUP7 ISZERO ISZERO DUP2 MSTORE PUSH2 0x1AB3 PUSH1 0x20 DUP3 ADD DUP8 PUSH2 0x1A7F JUMP JUMPDEST PUSH1 0xC0 PUSH1 0x40 DUP3 ADD MSTORE PUSH1 0x0 PUSH2 0x1AC9 PUSH1 0xC0 DUP4 ADD DUP8 PUSH2 0x18C9 JUMP JUMPDEST PUSH1 0x60 DUP4 ADD SWAP6 SWAP1 SWAP6 MSTORE POP PUSH1 0x80 DUP2 ADD SWAP3 SWAP1 SWAP3 MSTORE PUSH1 0xA0 SWAP1 SWAP2 ADD MSTORE SWAP4 SWAP3 POP POP POP JUMP JUMPDEST PUSH1 0x0 DUP1 PUSH1 0x40 DUP4 DUP6 SUB SLT ISZERO PUSH2 0x1AFA JUMPI PUSH1 0x0 DUP1 REVERT JUMPDEST PUSH2 0x1B03 DUP4 PUSH2 0x1878 JUMP JUMPDEST SWAP2 POP PUSH2 0x19C4 PUSH1 0x20 DUP5 ADD PUSH2 0x1878 JUMP JUMPDEST PUSH1 0x0 DUP1 PUSH1 0x0 DUP1 PUSH1 0x0 DUP1 PUSH1 0x0 PUSH1 0xC0 DUP9 DUP11 SUB SLT ISZERO PUSH2 0x1B2C JUMPI PUSH1 0x0 DUP1 REVERT JUMPDEST DUP8 CALLDATALOAD SWAP7 POP PUSH1 0x20 DUP9 ADD CALLDATALOAD PUSH1 0x4 DUP2 LT PUSH2 0x1B42 JUMPI PUSH1 0x0 DUP1 REVERT JUMPDEST SWAP6 POP PUSH1 0x40 DUP9 ADD CALLDATALOAD PUSH8 0xFFFFFFFFFFFFFFFF DUP1 DUP3 GT ISZERO PUSH2 0x1B5F JUMPI PUSH1 0x0 DUP1 REVERT JUMPDEST DUP2 DUP11 ADD SWAP2 POP DUP11 PUSH1 0x1F DUP4 ADD SLT PUSH2 0x1B73 JUMPI PUSH1 0x0 DUP1 REVERT JUMPDEST DUP2 CALLDATALOAD DUP2 DUP2 GT ISZERO PUSH2 0x1B82 JUMPI PUSH1 0x0 DUP1 REVERT JUMPDEST DUP12 PUSH1 0x20 DUP3 DUP6 ADD ADD GT ISZERO PUSH2 0x1B94 JUMPI PUSH1 0x0 DUP1 REVERT JUMPDEST SWAP9 SWAP12 SWAP8 SWAP11 POP POP PUSH1 0x20 ADD SWAP8 PUSH1 0x60 DUP2 ADD CALLDATALOAD SWAP7 PUSH1 0x80 DUP3 ADD CALLDATALOAD SWAP7 POP PUSH1 0xA0 SWAP1 SWAP2 ADD CALLDATALOAD SWAP5 POP SWAP3 POP POP POP JUMP JUMPDEST PUSH4 0x4E487B71 PUSH1 0xE0 SHL PUSH1 0x0 MSTORE PUSH1 0x32 PUSH1 0x4 MSTORE PUSH1 0x24 PUSH1 0x0 REVERT JUMPDEST PUSH4 0x4E487B71 PUSH1 0xE0 SHL PUSH1 0x0 MSTORE PUSH1 0x11 PUSH1 0x4 MSTORE PUSH1 0x24 PUSH1 0x0 REVERT JUMPDEST DUP1 DUP3 MUL DUP2 ISZERO DUP3 DUP3 DIV DUP5 EQ OR PUSH2 0x56C JUMPI PUSH2 0x56C PUSH2 0x1BCF JUMP JUMPDEST PUSH1 0x0 DUP3 PUSH2 0x1C19 JUMPI PUSH4 0x4E487B71 PUSH1 0xE0 SHL PUSH1 0x0 MSTORE PUSH1 0x12 PUSH1 0x4 MSTORE PUSH1 0x24 PUSH1 0x0 REVERT JUMPDEST POP DIV SWAP1 JUMP JUMPDEST PUSH1 0x1 DUP2 DUP2 SHR SWAP1 DUP3 AND DUP1 PUSH2 0x1C32 JUMPI PUSH1 0x7F DUP3 AND SWAP2 POP JUMPDEST PUSH1 0x20 DUP3 LT DUP2 SUB PUSH2 0x1C52 JUMPI PUSH4 0x4E487B71 PUSH1 0xE0 SHL PUSH1 0x0 MSTORE PUSH1 0x22 PUSH1 0x4 MSTORE PUSH1 0x24 PUSH1 0x0 REVERT JUMPDEST POP SWAP2 SWAP1 POP JUMP JUMPDEST DUP2 DUP2 SUB DUP2 DUP2 GT ISZERO PUSH2 0x56C JUMPI PUSH2 0x56C PUSH2 0x1BCF JUMP JUMPDEST PUSH1 0x0 PUSH1 0x20 DUP3 DUP5 SUB SLT ISZERO PUSH2 0x1C7D JUMPI PUSH1 0x0 DUP1 REVERT JUMPDEST DUP2 MLOAD DUP1 ISZERO ISZERO DUP2 EQ PUSH2 0x6C4 JUMPI PUSH1 0x0 DUP1 REVERT JUMPDEST PUSH4 0x4E487B71 PUSH1 0xE0 SHL PUSH1 0x0 MSTORE PUSH1 0x41 PUSH1 0x4 MSTORE PUSH1 0x24 PUSH1 0x0 REVERT JUMPDEST PUSH1 0x1F DUP3 GT ISZERO PUSH2 0xBF4 JUMPI PUSH1 0x0 DUP2 PUSH1 0x0 MSTORE PUSH1 0x20 PUSH1 0x0 KECCAK256 PUSH1 0x1F DUP6 ADD PUSH1 0x5 SHR DUP2 ADD PUSH1 0x20 DUP7 LT ISZERO PUSH2 0x1CCC JUMPI POP DUP1 JUMPDEST PUSH1 0x1F DUP6 ADD PUSH1 0x5 SHR DUP3 ADD SWAP2 POP JUMPDEST DUP2 DUP2 LT ISZERO PUSH2 0x1CEB JUMPI DUP3 DUP2 SSTORE PUSH1 0x1 ADD PUSH2 0x1CD8 JUMP JUMPDEST POP POP POP POP POP POP JUMP JUMPDEST DUP2 MLOAD PUSH8 0xFFFFFFFFFFFFFFFF DUP2 GT ISZERO PUSH2 0x1D0D JUMPI PUSH2 0x1D0D PUSH2 0x1C8D JUMP JUMPDEST PUSH2 0x1D21 DUP2 PUSH2 0x1D1B DUP5 SLOAD PUSH2 0x1C1E JUMP JUMPDEST DUP5 PUSH2 0x1CA3 JUMP JUMPDEST PUSH1 0x20 DUP1 PUSH1 0x1F DUP4 GT PUSH1 0x1 DUP2 EQ PUSH2 0x1D56 JUMPI PUSH1 0x0 DUP5 ISZERO PUSH2 0x1D3E JUMPI POP DUP6 DUP4 ADD MLOAD JUMPDEST PUSH1 0x0 NOT PUSH1 0x3 DUP7 SWAP1 SHL SHR NOT AND PUSH1 0x1 DUP6 SWAP1 SHL OR DUP6 SSTORE PUSH2 0x1CEB JUMP JUMPDEST PUSH1 0x0 DUP6 DUP2 MSTORE PUSH1 0x20 DUP2 KECCAK256 PUSH1 0x1F NOT DUP7 AND SWAP2 JUMPDEST DUP3 DUP2 LT ISZERO PUSH2 0x1D85 JUMPI DUP9 DUP7 ADD MLOAD DUP3 SSTORE SWAP5 DUP5 ADD SWAP5 PUSH1 0x1 SWAP1 SWAP2 ADD SWAP1 DUP5 ADD PUSH2 0x1D66 JUMP JUMPDEST POP DUP6 DUP3 LT ISZERO PUSH2 0x1DA3 JUMPI DUP8 DUP6 ADD MLOAD PUSH1 0x0 NOT PUSH1 0x3 DUP9 SWAP1 SHL PUSH1 0xF8 AND SHR NOT AND DUP2 SSTORE JUMPDEST POP POP POP POP POP PUSH1 0x1 SWAP1 DUP2 SHL ADD SWAP1 SSTORE POP JUMP JUMPDEST PUSH2 0x1DBD DUP2 DUP6 PUSH2 0x1A7F JUMP JUMPDEST PUSH1 0x40 PUSH1 0x20 DUP3 ADD MSTORE DUP2 PUSH1 0x40 DUP3 ADD MSTORE DUP2 DUP4 PUSH1 0x60 DUP4 ADD CALLDATACOPY PUSH1 0x0 DUP2 DUP4 ADD PUSH1 0x60 SWAP1 DUP2 ADD SWAP2 SWAP1 SWAP2 MSTORE PUSH1 0x1F SWAP1 SWAP3 ADD PUSH1 0x1F NOT AND ADD ADD SWAP3 SWAP2 POP POP JUMP JUMPDEST DUP1 DUP3 ADD DUP1 DUP3 GT ISZERO PUSH2 0x56C JUMPI PUSH2 0x56C PUSH2 0x1BCF JUMP INVALID GT 0x4E PUSH21 0xF6EA3BD819998F78687BFCB11B140DA08E9B7D222F 0xA9 0xC1 CALL 0xBA 0x1F 0x2A LOG1 0x22 LOG2 PUSH5 0x6970667358 0x22 SLT KECCAK256 PUSH3 0x15C6AB TSTORE SWAP13 0x2F 0xCE 0xD0 CREATE 0x2C 0x2D 0x2D 0xA7 PUSH11 0x809E2B0C6C587FD54A8BC0 CREATE2 0xDB PUSH21 0x392DDD64736F6C6343000818003300000000000000 "},"methodIdentifiers":{"DEFAULT_ADMIN_ROLE()":"a217fddf","ISSUER_ROLE()":"82aefa24","allowance(address,address)":"dd62ed3e","approve(address,uint256)":"095ea7b3","assets(bytes32)":"9fda5b66","balanceOf(address)":"70a08231","claimDividend(bytes32,uint256)":"354cd135","complianceModule()":"c1ac79ae","couponToken()":"457cf77a","decimals()":"313ce567","dividendFunding(bytes32,uint256)":"a935ba6e","dividendSchedules(bytes32,uint256)":"92193ecd","fundDividend(bytes32,uint256,uint256)":"306057d2","getRoleAdmin(bytes32)":"248a9ca3","grantRole(bytes32,address)":"2f2ff15d","hasClaimedDividend(bytes32,uint256,address)":"77231218","hasRole(bytes32,address)":"91d14854","mintForAsset(address,uint256,bytes32)":"9e4a803f","name()":"06fdde03","pause()":"8456cb59","paused()":"5c975abb","previewDividendClaim(bytes32,uint256,address)":"06affb81","registerAsset(bytes32,uint8,string,uint256,uint256,bytes32)":"fdfb8cee","renounceRole(bytes32,address)":"36568abe","revokeRole(bytes32,address)":"d547741f","scheduleDividend(bytes32,uint256,uint256)":"a8caf842","supportsInterface(bytes4)":"01ffc9a7","symbol()":"95d89b41","totalSupply()":"18160ddd","transfer(address,uint256)":"a9059cbb","transferFrom(address,address,uint256)":"23b872dd","unpause()":"3f4ba83a"}}}}}