{"contracts/ComplianceOracle.sol":{"ComplianceOracle":{"abi":[{"inputs":[{"internalType":"address","name":"admin","type":"address"},{"internalType":"address","name":"updater","type":"address"}],"stateMutability":"nonpayable","type":"constructor"},{"inputs":[],"name":"AccessControlBadConfirmation","type":"error"},{"inputs":[{"internalType":"address","name":"account","type":"address"},{"internalType":"bytes32","name":"neededRole","type":"bytes32"}],"name":"AccessControlUnauthorizedAccount","type":"error"},{"inputs":[{"internalType":"uint8","name":"score","type":"uint8"}],"name":"InvalidScore","type":"error"},{"anonymous":false,"inputs":[{"indexed":true,"internalType":"bytes32","name":"assetId","type":"bytes32"},{"indexed":false,"internalType":"uint8","name":"score","type":"uint8"},{"indexed":false,"internalType":"bytes32","name":"reportHash","type":"bytes32"},{"indexed":true,"internalType":"address","name":"updater","type":"address"}],"name":"ComplianceScoreUpdated","type":"event"},{"anonymous":false,"inputs":[{"indexed":true,"internalType":"bytes32","name":"role","type":"bytes32"},{"indexed":true,"internalType":"bytes32","name":"previousAdminRole","type":"bytes32"},{"indexed":true,"internalType":"bytes32","name":"newAdminRole","type":"bytes32"}],"name":"RoleAdminChanged","type":"event"},{"anonymous":false,"inputs":[{"indexed":true,"internalType":"bytes32","name":"role","type":"bytes32"},{"indexed":true,"internalType":"address","name":"account","type":"address"},{"indexed":true,"internalType":"address","name":"sender","type":"address"}],"name":"RoleGranted","type":"event"},{"anonymous":false,"inputs":[{"indexed":true,"internalType":"bytes32","name":"role","type":"bytes32"},{"indexed":true,"internalType":"address","name":"account","type":"address"},{"indexed":true,"internalType":"address","name":"sender","type":"address"}],"name":"RoleRevoked","type":"event"},{"inputs":[],"name":"DEFAULT_ADMIN_ROLE","outputs":[{"internalType":"bytes32","name":"","type":"bytes32"}],"stateMutability":"view","type":"function"},{"inputs":[],"name":"ORACLE_UPDATER_ROLE","outputs":[{"internalType":"bytes32","name":"","type":"bytes32"}],"stateMutability":"view","type":"function"},{"inputs":[{"internalType":"bytes32","name":"role","type":"bytes32"}],"name":"getRoleAdmin","outputs":[{"internalType":"bytes32","name":"","type":"bytes32"}],"stateMutability":"view","type":"function"},{"inputs":[{"internalType":"bytes32","name":"assetId","type":"bytes32"}],"name":"getScore","outputs":[{"internalType":"uint8","name":"score","type":"uint8"},{"internalType":"uint64","name":"updatedAt","type":"uint64"},{"internalType":"bytes32","name":"reportHash","type":"bytes32"}],"stateMutability":"view","type":"function"},{"inputs":[{"internalType":"bytes32","name":"role","type":"bytes32"},{"internalType":"address","name":"account","type":"address"}],"name":"grantRole","outputs":[],"stateMutability":"nonpayable","type":"function"},{"inputs":[{"internalType":"bytes32","name":"role","type":"bytes32"},{"internalType":"address","name":"account","type":"address"}],"name":"hasRole","outputs":[{"internalType":"bool","name":"","type":"bool"}],"stateMutability":"view","type":"function"},{"inputs":[{"internalType":"bytes32","name":"assetId","type":"bytes32"},{"internalType":"uint8","name":"threshold","type":"uint8"}],"name":"isCompliant","outputs":[{"internalType":"bool","name":"","type":"bool"}],"stateMutability":"view","type":"function"},{"inputs":[{"internalType":"bytes32","name":"role","type":"bytes32"},{"internalType":"address","name":"callerConfirmation","type":"address"}],"name":"renounceRole","outputs":[],"stateMutability":"nonpayable","type":"function"},{"inputs":[{"internalType":"bytes32","name":"role","type":"bytes32"},{"internalType":"address","name":"account","type":"address"}],"name":"revokeRole","outputs":[],"stateMutability":"nonpayable","type":"function"},{"inputs":[{"internalType":"bytes32","name":"assetId","type":"bytes32"},{"internalType":"uint8","name":"score","type":"uint8"},{"internalType":"bytes32","name":"reportHash","type":"bytes32"}],"name":"submitScore","outputs":[],"stateMutability":"nonpayable","type":"function"},{"inputs":[{"internalType":"bytes4","name":"interfaceId","type":"bytes4"}],"name":"supportsInterface","outputs":[{"internalType":"bool","name":"","type":"bool"}],"stateMutability":"view","type":"function"}],"evm":{"bytecode":{"linkReferences":{},"object":"608060405234801561001057600080fd5b5060405161083b38038061083b83398101604081905261002f9161014a565b61003a600083610082565b5061007a7f9792fdc19ab98adfa72ab2fa98d342618c661e01c406979c105b31eda87f5e6f6001600160a01b038316156100745782610082565b83610082565b50505061017d565b6000828152602081815260408083206001600160a01b038516845290915281205460ff16610124576000838152602081815260408083206001600160a01b03861684529091529020805460ff191660011790556100dc3390565b6001600160a01b0316826001600160a01b0316847f2f8788117e7eff1d82e926ec794901d17c78024a50270940304540a733656f0d60405160405180910390a4506001610128565b5060005b92915050565b80516001600160a01b038116811461014557600080fd5b919050565b6000806040838503121561015d57600080fd5b6101668361012e565b91506101746020840161012e565b90509250929050565b6106af8061018c6000396000f3fe608060405234801561001057600080fd5b50600436106100a95760003560e01c806336568abe1161007157806336568abe146101565780637a4f2425146101695780637ba532851461019357806391d1485414610212578063a217fddf14610225578063d547741f1461022d57600080fd5b806301ffc9a7146100ae5780630fd161fe146100d65780631732d330146100eb578063248a9ca3146101205780632f2ff15d14610143575b600080fd5b6100c16100bc36600461057c565b610240565b60405190151581526020015b60405180910390f35b6100e96100e43660046105c3565b610277565b005b6101127f9792fdc19ab98adfa72ab2fa98d342618c661e01c406979c105b31eda87f5e6f81565b6040519081526020016100cd565b61011261012e3660046105f8565b60009081526020819052604090206001015490565b6100e9610151366004610611565b610384565b6100e9610164366004610611565b6103af565b6100c161017736600461064d565b6000918252600160205260409091205460ff9182169116101590565b6101ea6101a13660046105f8565b6000908152600160208181526040928390208351606081018552815460ff811680835261010090910467ffffffffffffffff169382018490529190930154929093018290529192565b6040805160ff909416845267ffffffffffffffff9092166020840152908201526060016100cd565b6100c1610220366004610611565b6103e7565b610112600081565b6100e961023b366004610611565b610410565b60006001600160e01b03198216637965db0b60e01b148061027157506301ffc9a760e01b6001600160e01b03198316145b92915050565b7f9792fdc19ab98adfa72ab2fa98d342618c661e01c406979c105b31eda87f5e6f6102a181610435565b60648360ff1611156102d0576040516306fae60560e11b815260ff841660048201526024015b60405180910390fd5b6040805160608101825260ff808616825267ffffffffffffffff428116602080850191825284860188815260008b81526001928390528790209551865493519094166101000268ffffffffffffffffff199093169390941692909217178355905191015551339085907fa3d6525bfd89d6899d74a3a062f24e291c8de8d3604c99752b761ae44ca679f190610376908790879060ff929092168252602082015260400190565b60405180910390a350505050565b60008281526020819052604090206001015461039f81610435565b6103a98383610442565b50505050565b6001600160a01b03811633146103d85760405163334bd91960e11b815260040160405180910390fd5b6103e282826104d4565b505050565b6000918252602082815260408084206001600160a01b0393909316845291905290205460ff1690565b60008281526020819052604090206001015461042b81610435565b6103a983836104d4565b61043f813361053f565b50565b600061044e83836103e7565b6104cc576000838152602081815260408083206001600160a01b03861684529091529020805460ff191660011790556104843390565b6001600160a01b0316826001600160a01b0316847f2f8788117e7eff1d82e926ec794901d17c78024a50270940304540a733656f0d60405160405180910390a4506001610271565b506000610271565b60006104e083836103e7565b156104cc576000838152602081815260408083206001600160a01b0386168085529252808320805460ff1916905551339286917ff6391f5c32d9c69d2a47ea670b442974b53935d1edc7fd64eb21e047a839171b9190a4506001610271565b61054982826103e7565b6105785760405163e2517d3f60e01b81526001600160a01b0382166004820152602481018390526044016102c7565b5050565b60006020828403121561058e57600080fd5b81356001600160e01b0319811681146105a657600080fd5b9392505050565b803560ff811681146105be57600080fd5b919050565b6000806000606084860312156105d857600080fd5b833592506105e8602085016105ad565b9150604084013590509250925092565b60006020828403121561060a57600080fd5b5035919050565b6000806040838503121561062457600080fd5b8235915060208301356001600160a01b038116811461064257600080fd5b809150509250929050565b6000806040838503121561066057600080fd5b82359150610670602084016105ad565b9050925092905056fea264697066735822122079c1e2ea47754e9071185370547c42be4951fd115660c5ee1b91853f5548c9e564736f6c63430008180033","opcodes":"PUSH1 0x80 PUSH1 0x40 MSTORE CALLVALUE DUP1 ISZERO PUSH2 0x10 JUMPI PUSH1 0x0 DUP1 REVERT JUMPDEST POP PUSH1 0x40 MLOAD PUSH2 0x83B CODESIZE SUB DUP1 PUSH2 0x83B DUP4 CODECOPY DUP2 ADD PUSH1 0x40 DUP2 SWAP1 MSTORE PUSH2 0x2F SWAP2 PUSH2 0x14A JUMP JUMPDEST PUSH2 0x3A PUSH1 0x0 DUP4 PUSH2 0x82 JUMP JUMPDEST POP PUSH2 0x7A PUSH32 0x9792FDC19AB98ADFA72AB2FA98D342618C661E01C406979C105B31EDA87F5E6F PUSH1 0x1 PUSH1 0x1 PUSH1 0xA0 SHL SUB DUP4 AND ISZERO PUSH2 0x74 JUMPI DUP3 PUSH2 0x82 JUMP JUMPDEST DUP4 PUSH2 0x82 JUMP JUMPDEST POP POP POP PUSH2 0x17D JUMP JUMPDEST PUSH1 0x0 DUP3 DUP2 MSTORE PUSH1 0x20 DUP2 DUP2 MSTORE PUSH1 0x40 DUP1 DUP4 KECCAK256 PUSH1 0x1 PUSH1 0x1 PUSH1 0xA0 SHL SUB DUP6 AND DUP5 MSTORE SWAP1 SWAP2 MSTORE DUP2 KECCAK256 SLOAD PUSH1 0xFF AND PUSH2 0x124 JUMPI PUSH1 0x0 DUP4 DUP2 MSTORE PUSH1 0x20 DUP2 DUP2 MSTORE PUSH1 0x40 DUP1 DUP4 KECCAK256 PUSH1 0x1 PUSH1 0x1 PUSH1 0xA0 SHL SUB DUP7 AND DUP5 MSTORE SWAP1 SWAP2 MSTORE SWAP1 KECCAK256 DUP1 SLOAD PUSH1 0xFF NOT AND PUSH1 0x1 OR SWAP1 SSTORE PUSH2 0xDC CALLER SWAP1 JUMP JUMPDEST PUSH1 0x1 PUSH1 0x1 PUSH1 0xA0 SHL SUB AND DUP3 PUSH1 0x1 PUSH1 0x1 PUSH1 0xA0 SHL SUB AND DUP5 PUSH32 0x2F8788117E7EFF1D82E926EC794901D17C78024A50270940304540A733656F0D PUSH1 0x40 MLOAD PUSH1 0x40 MLOAD DUP1 SWAP2 SUB SWAP1 LOG4 POP PUSH1 0x1 PUSH2 0x128 JUMP JUMPDEST POP PUSH1 0x0 JUMPDEST SWAP3 SWAP2 POP POP JUMP JUMPDEST DUP1 MLOAD PUSH1 0x1 PUSH1 0x1 PUSH1 0xA0 SHL SUB DUP2 AND DUP2 EQ PUSH2 0x145 JUMPI PUSH1 0x0 DUP1 REVERT JUMPDEST SWAP2 SWAP1 POP JUMP JUMPDEST PUSH1 0x0 DUP1 PUSH1 0x40 DUP4 DUP6 SUB SLT ISZERO PUSH2 0x15D JUMPI PUSH1 0x0 DUP1 REVERT JUMPDEST PUSH2 0x166 DUP4 PUSH2 0x12E JUMP JUMPDEST SWAP2 POP PUSH2 0x174 PUSH1 0x20 DUP5 ADD PUSH2 0x12E JUMP JUMPDEST SWAP1 POP SWAP3 POP SWAP3 SWAP1 POP JUMP JUMPDEST PUSH2 0x6AF DUP1 PUSH2 0x18C PUSH1 0x0 CODECOPY PUSH1 0x0 RETURN INVALID PUSH1 0x80 PUSH1 0x40 MSTORE CALLVALUE DUP1 ISZERO PUSH2 0x10 JUMPI PUSH1 0x0 DUP1 REVERT JUMPDEST POP PUSH1 0x4 CALLDATASIZE LT PUSH2 0xA9 JUMPI PUSH1 0x0 CALLDATALOAD PUSH1 0xE0 SHR DUP1 PUSH4 0x36568ABE GT PUSH2 0x71 JUMPI DUP1 PUSH4 0x36568ABE EQ PUSH2 0x156 JUMPI DUP1 PUSH4 0x7A4F2425 EQ PUSH2 0x169 JUMPI DUP1 PUSH4 0x7BA53285 EQ PUSH2 0x193 JUMPI DUP1 PUSH4 0x91D14854 EQ PUSH2 0x212 JUMPI DUP1 PUSH4 0xA217FDDF EQ PUSH2 0x225 JUMPI DUP1 PUSH4 0xD547741F EQ PUSH2 0x22D JUMPI PUSH1 0x0 DUP1 REVERT JUMPDEST DUP1 PUSH4 0x1FFC9A7 EQ PUSH2 0xAE JUMPI DUP1 PUSH4 0xFD161FE EQ PUSH2 0xD6 JUMPI DUP1 PUSH4 0x1732D330 EQ PUSH2 0xEB JUMPI DUP1 PUSH4 0x248A9CA3 EQ PUSH2 0x120 JUMPI DUP1 PUSH4 0x2F2FF15D EQ PUSH2 0x143 JUMPI JUMPDEST PUSH1 0x0 DUP1 REVERT JUMPDEST PUSH2 0xC1 PUSH2 0xBC CALLDATASIZE PUSH1 0x4 PUSH2 0x57C JUMP JUMPDEST PUSH2 0x240 JUMP JUMPDEST PUSH1 0x40 MLOAD SWAP1 ISZERO ISZERO DUP2 MSTORE PUSH1 0x20 ADD JUMPDEST PUSH1 0x40 MLOAD DUP1 SWAP2 SUB SWAP1 RETURN JUMPDEST PUSH2 0xE9 PUSH2 0xE4 CALLDATASIZE PUSH1 0x4 PUSH2 0x5C3 JUMP JUMPDEST PUSH2 0x277 JUMP JUMPDEST STOP JUMPDEST PUSH2 0x112 PUSH32 0x9792FDC19AB98ADFA72AB2FA98D342618C661E01C406979C105B31EDA87F5E6F DUP2 JUMP JUMPDEST PUSH1 0x40 MLOAD SWAP1 DUP2 MSTORE PUSH1 0x20 ADD PUSH2 0xCD JUMP JUMPDEST PUSH2 0x112 PUSH2 0x12E CALLDATASIZE PUSH1 0x4 PUSH2 0x5F8 JUMP JUMPDEST PUSH1 0x0 SWAP1 DUP2 MSTORE PUSH1 0x20 DUP2 SWAP1 MSTORE PUSH1 0x40 SWAP1 KECCAK256 PUSH1 0x1 ADD SLOAD SWAP1 JUMP JUMPDEST PUSH2 0xE9 PUSH2 0x151 CALLDATASIZE PUSH1 0x4 PUSH2 0x611 JUMP JUMPDEST PUSH2 0x384 JUMP JUMPDEST PUSH2 0xE9 PUSH2 0x164 CALLDATASIZE PUSH1 0x4 PUSH2 0x611 JUMP JUMPDEST PUSH2 0x3AF JUMP JUMPDEST PUSH2 0xC1 PUSH2 0x177 CALLDATASIZE PUSH1 0x4 PUSH2 0x64D JUMP JUMPDEST PUSH1 0x0 SWAP2 DUP3 MSTORE PUSH1 0x1 PUSH1 0x20 MSTORE PUSH1 0x40 SWAP1 SWAP2 KECCAK256 SLOAD PUSH1 0xFF SWAP2 DUP3 AND SWAP2 AND LT ISZERO SWAP1 JUMP JUMPDEST PUSH2 0x1EA PUSH2 0x1A1 CALLDATASIZE PUSH1 0x4 PUSH2 0x5F8 JUMP JUMPDEST PUSH1 0x0 SWAP1 DUP2 MSTORE PUSH1 0x1 PUSH1 0x20 DUP2 DUP2 MSTORE PUSH1 0x40 SWAP3 DUP4 SWAP1 KECCAK256 DUP4 MLOAD PUSH1 0x60 DUP2 ADD DUP6 MSTORE DUP2 SLOAD PUSH1 0xFF DUP2 AND DUP1 DUP4 MSTORE PUSH2 0x100 SWAP1 SWAP2 DIV PUSH8 0xFFFFFFFFFFFFFFFF AND SWAP4 DUP3 ADD DUP5 SWAP1 MSTORE SWAP2 SWAP1 SWAP4 ADD SLOAD SWAP3 SWAP1 SWAP4 ADD DUP3 SWAP1 MSTORE SWAP2 SWAP3 JUMP JUMPDEST PUSH1 0x40 DUP1 MLOAD PUSH1 0xFF SWAP1 SWAP5 AND DUP5 MSTORE PUSH8 0xFFFFFFFFFFFFFFFF SWAP1 SWAP3 AND PUSH1 0x20 DUP5 ADD MSTORE SWAP1 DUP3 ADD MSTORE PUSH1 0x60 ADD PUSH2 0xCD JUMP JUMPDEST PUSH2 0xC1 PUSH2 0x220 CALLDATASIZE PUSH1 0x4 PUSH2 0x611 JUMP JUMPDEST PUSH2 0x3E7 JUMP JUMPDEST PUSH2 0x112 PUSH1 0x0 DUP2 JUMP JUMPDEST PUSH2 0xE9 PUSH2 0x23B CALLDATASIZE PUSH1 0x4 PUSH2 0x611 JUMP JUMPDEST PUSH2 0x410 JUMP JUMPDEST PUSH1 0x0 PUSH1 0x1 PUSH1 0x1 PUSH1 0xE0 SHL SUB NOT DUP3 AND PUSH4 0x7965DB0B PUSH1 0xE0 SHL EQ DUP1 PUSH2 0x271 JUMPI POP PUSH4 0x1FFC9A7 PUSH1 0xE0 SHL PUSH1 0x1 PUSH1 0x1 PUSH1 0xE0 SHL SUB NOT DUP4 AND EQ JUMPDEST SWAP3 SWAP2 POP POP JUMP JUMPDEST PUSH32 0x9792FDC19AB98ADFA72AB2FA98D342618C661E01C406979C105B31EDA87F5E6F PUSH2 0x2A1 DUP2 PUSH2 0x435 JUMP JUMPDEST PUSH1 0x64 DUP4 PUSH1 0xFF AND GT ISZERO PUSH2 0x2D0 JUMPI PUSH1 0x40 MLOAD PUSH4 0x6FAE605 PUSH1 0xE1 SHL DUP2 MSTORE PUSH1 0xFF DUP5 AND PUSH1 0x4 DUP3 ADD MSTORE PUSH1 0x24 ADD JUMPDEST PUSH1 0x40 MLOAD DUP1 SWAP2 SUB SWAP1 REVERT JUMPDEST PUSH1 0x40 DUP1 MLOAD PUSH1 0x60 DUP2 ADD DUP3 MSTORE PUSH1 0xFF DUP1 DUP7 AND DUP3 MSTORE PUSH8 0xFFFFFFFFFFFFFFFF TIMESTAMP DUP2 AND PUSH1 0x20 DUP1 DUP6 ADD SWAP2 DUP3 MSTORE DUP5 DUP7 ADD DUP9 DUP2 MSTORE PUSH1 0x0 DUP12 DUP2 MSTORE PUSH1 0x1 SWAP3 DUP4 SWAP1 MSTORE DUP8 SWAP1 KECCAK256 SWAP6 MLOAD DUP7 SLOAD SWAP4 MLOAD SWAP1 SWAP5 AND PUSH2 0x100 MUL PUSH9 0xFFFFFFFFFFFFFFFFFF NOT SWAP1 SWAP4 AND SWAP4 SWAP1 SWAP5 AND SWAP3 SWAP1 SWAP3 OR OR DUP4 SSTORE SWAP1 MLOAD SWAP2 ADD SSTORE MLOAD CALLER SWAP1 DUP6 SWAP1 PUSH32 0xA3D6525BFD89D6899D74A3A062F24E291C8DE8D3604C99752B761AE44CA679F1 SWAP1 PUSH2 0x376 SWAP1 DUP8 SWAP1 DUP8 SWAP1 PUSH1 0xFF SWAP3 SWAP1 SWAP3 AND DUP3 MSTORE PUSH1 0x20 DUP3 ADD MSTORE PUSH1 0x40 ADD SWAP1 JUMP JUMPDEST PUSH1 0x40 MLOAD DUP1 SWAP2 SUB SWAP1 LOG3 POP POP POP POP JUMP JUMPDEST PUSH1 0x0 DUP3 DUP2 MSTORE PUSH1 0x20 DUP2 SWAP1 MSTORE PUSH1 0x40 SWAP1 KECCAK256 PUSH1 0x1 ADD SLOAD PUSH2 0x39F DUP2 PUSH2 0x435 JUMP JUMPDEST PUSH2 0x3A9 DUP4 DUP4 PUSH2 0x442 JUMP JUMPDEST POP POP POP POP JUMP JUMPDEST PUSH1 0x1 PUSH1 0x1 PUSH1 0xA0 SHL SUB DUP2 AND CALLER EQ PUSH2 0x3D8 JUMPI PUSH1 0x40 MLOAD PUSH4 0x334BD919 PUSH1 0xE1 SHL DUP2 MSTORE PUSH1 0x4 ADD PUSH1 0x40 MLOAD DUP1 SWAP2 SUB SWAP1 REVERT JUMPDEST PUSH2 0x3E2 DUP3 DUP3 PUSH2 0x4D4 JUMP JUMPDEST POP POP POP JUMP JUMPDEST PUSH1 0x0 SWAP2 DUP3 MSTORE PUSH1 0x20 DUP3 DUP2 MSTORE PUSH1 0x40 DUP1 DUP5 KECCAK256 PUSH1 0x1 PUSH1 0x1 PUSH1 0xA0 SHL SUB SWAP4 SWAP1 SWAP4 AND DUP5 MSTORE SWAP2 SWAP1 MSTORE SWAP1 KECCAK256 SLOAD PUSH1 0xFF AND SWAP1 JUMP JUMPDEST PUSH1 0x0 DUP3 DUP2 MSTORE PUSH1 0x20 DUP2 SWAP1 MSTORE PUSH1 0x40 SWAP1 KECCAK256 PUSH1 0x1 ADD SLOAD PUSH2 0x42B DUP2 PUSH2 0x435 JUMP JUMPDEST PUSH2 0x3A9 DUP4 DUP4 PUSH2 0x4D4 JUMP JUMPDEST PUSH2 0x43F DUP2 CALLER PUSH2 0x53F JUMP JUMPDEST POP JUMP JUMPDEST PUSH1 0x0 PUSH2 0x44E DUP4 DUP4 PUSH2 0x3E7 JUMP JUMPDEST PUSH2 0x4CC JUMPI PUSH1 0x0 DUP4 DUP2 MSTORE PUSH1 0x20 DUP2 DUP2 MSTORE PUSH1 0x40 DUP1 DUP4 KECCAK256 PUSH1 0x1 PUSH1 0x1 PUSH1 0xA0 SHL SUB DUP7 AND DUP5 MSTORE SWAP1 SWAP2 MSTORE SWAP1 KECCAK256 DUP1 SLOAD PUSH1 0xFF NOT AND PUSH1 0x1 OR SWAP1 SSTORE PUSH2 0x484 CALLER SWAP1 JUMP JUMPDEST PUSH1 0x1 PUSH1 0x1 PUSH1 0xA0 SHL SUB AND DUP3 PUSH1 0x1 PUSH1 0x1 PUSH1 0xA0 SHL SUB AND DUP5 PUSH32 0x2F8788117E7EFF1D82E926EC794901D17C78024A50270940304540A733656F0D PUSH1 0x40 MLOAD PUSH1 0x40 MLOAD DUP1 SWAP2 SUB SWAP1 LOG4 POP PUSH1 0x1 PUSH2 0x271 JUMP JUMPDEST POP PUSH1 0x0 PUSH2 0x271 JUMP JUMPDEST PUSH1 0x0 PUSH2 0x4E0 DUP4 DUP4 PUSH2 0x3E7 JUMP JUMPDEST ISZERO PUSH2 0x4CC JUMPI PUSH1 0x0 DUP4 DUP2 MSTORE PUSH1 0x20 DUP2 DUP2 MSTORE PUSH1 0x40 DUP1 DUP4 KECCAK256 PUSH1 0x1 PUSH1 0x1 PUSH1 0xA0 SHL SUB DUP7 AND DUP1 DUP6 MSTORE SWAP3 MSTORE DUP1 DUP4 KECCAK256 DUP1 SLOAD PUSH1 0xFF NOT AND SWAP1 SSTORE MLOAD CALLER SWAP3 DUP7 SWAP2 PUSH32 0xF6391F5C32D9C69D2A47EA670B442974B53935D1EDC7FD64EB21E047A839171B SWAP2 SWAP1 LOG4 POP PUSH1 0x1 PUSH2 0x271 JUMP JUMPDEST PUSH2 0x549 DUP3 DUP3 PUSH2 0x3E7 JUMP JUMPDEST PUSH2 0x578 JUMPI PUSH1 0x40 MLOAD PUSH4 0xE2517D3F PUSH1 0xE0 SHL DUP2 MSTORE PUSH1 0x1 PUSH1 0x1 PUSH1 0xA0 SHL SUB DUP3 AND PUSH1 0x4 DUP3 ADD MSTORE PUSH1 0x24 DUP2 ADD DUP4 SWAP1 MSTORE PUSH1 0x44 ADD PUSH2 0x2C7 JUMP JUMPDEST POP POP JUMP JUMPDEST PUSH1 0x0 PUSH1 0x20 DUP3 DUP5 SUB SLT ISZERO PUSH2 0x58E JUMPI PUSH1 0x0 DUP1 REVERT JUMPDEST DUP2 CALLDATALOAD PUSH1 0x1 PUSH1 0x1 PUSH1 0xE0 SHL SUB NOT DUP2 AND DUP2 EQ PUSH2 0x5A6 JUMPI PUSH1 0x0 DUP1 REVERT JUMPDEST SWAP4 SWAP3 POP POP POP JUMP JUMPDEST DUP1 CALLDATALOAD PUSH1 0xFF DUP2 AND DUP2 EQ PUSH2 0x5BE JUMPI PUSH1 0x0 DUP1 REVERT JUMPDEST SWAP2 SWAP1 POP JUMP JUMPDEST PUSH1 0x0 DUP1 PUSH1 0x0 PUSH1 0x60 DUP5 DUP7 SUB SLT ISZERO PUSH2 0x5D8 JUMPI PUSH1 0x0 DUP1 REVERT JUMPDEST DUP4 CALLDATALOAD SWAP3 POP PUSH2 0x5E8 PUSH1 0x20 DUP6 ADD PUSH2 0x5AD JUMP JUMPDEST SWAP2 POP PUSH1 0x40 DUP5 ADD CALLDATALOAD SWAP1 POP SWAP3 POP SWAP3 POP SWAP3 JUMP JUMPDEST PUSH1 0x0 PUSH1 0x20 DUP3 DUP5 SUB SLT ISZERO PUSH2 0x60A JUMPI PUSH1 0x0 DUP1 REVERT JUMPDEST POP CALLDATALOAD SWAP2 SWAP1 POP JUMP JUMPDEST PUSH1 0x0 DUP1 PUSH1 0x40 DUP4 DUP6 SUB SLT ISZERO PUSH2 0x624 JUMPI PUSH1 0x0 DUP1 REVERT JUMPDEST DUP3 CALLDATALOAD SWAP2 POP PUSH1 0x20 DUP4 ADD CALLDATALOAD PUSH1 0x1 PUSH1 0x1 PUSH1 0xA0 SHL SUB DUP2 AND DUP2 EQ PUSH2 0x642 JUMPI PUSH1 0x0 DUP1 REVERT JUMPDEST DUP1 SWAP2 POP POP SWAP3 POP SWAP3 SWAP1 POP JUMP JUMPDEST PUSH1 0x0 DUP1 PUSH1 0x40 DUP4 DUP6 SUB SLT ISZERO PUSH2 0x660 JUMPI PUSH1 0x0 DUP1 REVERT JUMPDEST DUP3 CALLDATALOAD SWAP2 POP PUSH2 0x670 PUSH1 0x20 DUP5 ADD PUSH2 0x5AD JUMP JUMPDEST SWAP1 POP SWAP3 POP SWAP3 SWAP1 POP JUMP INVALID LOG2 PUSH5 0x6970667358 0x22 SLT KECCAK256 PUSH26 0xC1E2EA47754E9071185370547C42BE4951FD115660C5EE1B9185 EXTCODEHASH SSTORE BASEFEE 0xC9 0xE5 PUSH5 0x736F6C6343 STOP ADDMOD XOR STOP CALLER "},"methodIdentifiers":{"DEFAULT_ADMIN_ROLE()":"a217fddf","ORACLE_UPDATER_ROLE()":"1732d330","getRoleAdmin(bytes32)":"248a9ca3","getScore(bytes32)":"7ba53285","grantRole(bytes32,address)":"2f2ff15d","hasRole(bytes32,address)":"91d14854","isCompliant(bytes32,uint8)":"7a4f2425","renounceRole(bytes32,address)":"36568abe","revokeRole(bytes32,address)":"d547741f","submitScore(bytes32,uint8,bytes32)":"0fd161fe","supportsInterface(bytes4)":"01ffc9a7"}}}}}