{
  "_format": "hh-sol-artifact-1",
  "contractName": "MockUSDY",
  "sourceName": "contracts/MockUSDY.sol",
  "abi": [
    {
      "inputs": [
        {
          "internalType": "address",
          "name": "admin",
          "type": "address"
        }
      ],
      "stateMutability": "nonpayable",
      "type": "constructor"
    },
    {
      "inputs": [
        {
          "internalType": "address",
          "name": "spender",
          "type": "address"
        },
        {
          "internalType": "uint256",
          "name": "allowance",
          "type": "uint256"
        },
        {
          "internalType": "uint256",
          "name": "needed",
          "type": "uint256"
        }
      ],
      "name": "ERC20InsufficientAllowance",
      "type": "error"
    },
    {
      "inputs": [
        {
          "internalType": "address",
          "name": "sender",
          "type": "address"
        },
        {
          "internalType": "uint256",
          "name": "balance",
          "type": "uint256"
        },
        {
          "internalType": "uint256",
          "name": "needed",
          "type": "uint256"
        }
      ],
      "name": "ERC20InsufficientBalance",
      "type": "error"
    },
    {
      "inputs": [
        {
          "internalType": "address",
          "name": "approver",
          "type": "address"
        }
      ],
      "name": "ERC20InvalidApprover",
      "type": "error"
    },
    {
      "inputs": [
        {
          "internalType": "address",
          "name": "receiver",
          "type": "address"
        }
      ],
      "name": "ERC20InvalidReceiver",
      "type": "error"
    },
    {
      "inputs": [
        {
          "internalType": "address",
          "name": "sender",
          "type": "address"
        }
      ],
      "name": "ERC20InvalidSender",
      "type": "error"
    },
    {
      "inputs": [
        {
          "internalType": "address",
          "name": "spender",
          "type": "address"
        }
      ],
      "name": "ERC20InvalidSpender",
      "type": "error"
    },
    {
      "inputs": [
        {
          "internalType": "address",
          "name": "owner",
          "type": "address"
        }
      ],
      "name": "OwnableInvalidOwner",
      "type": "error"
    },
    {
      "inputs": [
        {
          "internalType": "address",
          "name": "account",
          "type": "address"
        }
      ],
      "name": "OwnableUnauthorizedAccount",
      "type": "error"
    },
    {
      "anonymous": false,
      "inputs": [
        {
          "indexed": true,
          "internalType": "address",
          "name": "owner",
          "type": "address"
        },
        {
          "indexed": true,
          "internalType": "address",
          "name": "spender",
          "type": "address"
        },
        {
          "indexed": false,
          "internalType": "uint256",
          "name": "value",
          "type": "uint256"
        }
      ],
      "name": "Approval",
      "type": "event"
    },
    {
      "anonymous": false,
      "inputs": [
        {
          "indexed": true,
          "internalType": "address",
          "name": "previousOwner",
          "type": "address"
        },
        {
          "indexed": true,
          "internalType": "address",
          "name": "newOwner",
          "type": "address"
        }
      ],
      "name": "OwnershipTransferred",
      "type": "event"
    },
    {
      "anonymous": false,
      "inputs": [
        {
          "indexed": true,
          "internalType": "address",
          "name": "from",
          "type": "address"
        },
        {
          "indexed": true,
          "internalType": "address",
          "name": "to",
          "type": "address"
        },
        {
          "indexed": false,
          "internalType": "uint256",
          "name": "value",
          "type": "uint256"
        }
      ],
      "name": "Transfer",
      "type": "event"
    },
    {
      "inputs": [
        {
          "internalType": "address",
          "name": "owner",
          "type": "address"
        },
        {
          "internalType": "address",
          "name": "spender",
          "type": "address"
        }
      ],
      "name": "allowance",
      "outputs": [
        {
          "internalType": "uint256",
          "name": "",
          "type": "uint256"
        }
      ],
      "stateMutability": "view",
      "type": "function"
    },
    {
      "inputs": [
        {
          "internalType": "address",
          "name": "spender",
          "type": "address"
        },
        {
          "internalType": "uint256",
          "name": "value",
          "type": "uint256"
        }
      ],
      "name": "approve",
      "outputs": [
        {
          "internalType": "bool",
          "name": "",
          "type": "bool"
        }
      ],
      "stateMutability": "nonpayable",
      "type": "function"
    },
    {
      "inputs": [
        {
          "internalType": "address",
          "name": "account",
          "type": "address"
        }
      ],
      "name": "balanceOf",
      "outputs": [
        {
          "internalType": "uint256",
          "name": "",
          "type": "uint256"
        }
      ],
      "stateMutability": "view",
      "type": "function"
    },
    {
      "inputs": [],
      "name": "decimals",
      "outputs": [
        {
          "internalType": "uint8",
          "name": "",
          "type": "uint8"
        }
      ],
      "stateMutability": "view",
      "type": "function"
    },
    {
      "inputs": [
        {
          "internalType": "address",
          "name": "recipient",
          "type": "address"
        },
        {
          "internalType": "uint256",
          "name": "amount",
          "type": "uint256"
        }
      ],
      "name": "deposit",
      "outputs": [
        {
          "internalType": "uint256",
          "name": "shares",
          "type": "uint256"
        }
      ],
      "stateMutability": "nonpayable",
      "type": "function"
    },
    {
      "inputs": [
        {
          "internalType": "address",
          "name": "to",
          "type": "address"
        },
        {
          "internalType": "uint256",
          "name": "amount",
          "type": "uint256"
        }
      ],
      "name": "mint",
      "outputs": [],
      "stateMutability": "nonpayable",
      "type": "function"
    },
    {
      "inputs": [],
      "name": "name",
      "outputs": [
        {
          "internalType": "string",
          "name": "",
          "type": "string"
        }
      ],
      "stateMutability": "view",
      "type": "function"
    },
    {
      "inputs": [],
      "name": "owner",
      "outputs": [
        {
          "internalType": "address",
          "name": "",
          "type": "address"
        }
      ],
      "stateMutability": "view",
      "type": "function"
    },
    {
      "inputs": [
        {
          "internalType": "uint256",
          "name": "shares",
          "type": "uint256"
        },
        {
          "internalType": "address",
          "name": "recipient",
          "type": "address"
        }
      ],
      "name": "redeem",
      "outputs": [
        {
          "internalType": "uint256",
          "name": "amount",
          "type": "uint256"
        }
      ],
      "stateMutability": "nonpayable",
      "type": "function"
    },
    {
      "inputs": [],
      "name": "renounceOwnership",
      "outputs": [],
      "stateMutability": "nonpayable",
      "type": "function"
    },
    {
      "inputs": [],
      "name": "symbol",
      "outputs": [
        {
          "internalType": "string",
          "name": "",
          "type": "string"
        }
      ],
      "stateMutability": "view",
      "type": "function"
    },
    {
      "inputs": [],
      "name": "totalSupply",
      "outputs": [
        {
          "internalType": "uint256",
          "name": "",
          "type": "uint256"
        }
      ],
      "stateMutability": "view",
      "type": "function"
    },
    {
      "inputs": [
        {
          "internalType": "address",
          "name": "to",
          "type": "address"
        },
        {
          "internalType": "uint256",
          "name": "value",
          "type": "uint256"
        }
      ],
      "name": "transfer",
      "outputs": [
        {
          "internalType": "bool",
          "name": "",
          "type": "bool"
        }
      ],
      "stateMutability": "nonpayable",
      "type": "function"
    },
    {
      "inputs": [
        {
          "internalType": "address",
          "name": "from",
          "type": "address"
        },
        {
          "internalType": "address",
          "name": "to",
          "type": "address"
        },
        {
          "internalType": "uint256",
          "name": "value",
          "type": "uint256"
        }
      ],
      "name": "transferFrom",
      "outputs": [
        {
          "internalType": "bool",
          "name": "",
          "type": "bool"
        }
      ],
      "stateMutability": "nonpayable",
      "type": "function"
    },
    {
      "inputs": [
        {
          "internalType": "address",
          "name": "newOwner",
          "type": "address"
        }
      ],
      "name": "transferOwnership",
      "outputs": [],
      "stateMutability": "nonpayable",
      "type": "function"
    }
  ],
  "bytecode": "0x60806040523480156200001157600080fd5b5060405162000e2f38038062000e2f8339810160408190526200003491620002b5565b80604051806040016040528060098152602001684d6f636b205553445960b81b815250604051806040016040528060058152602001646d5553445960d81b81525081600390816200008691906200038e565b5060046200009582826200038e565b5050506001600160a01b038116620000c857604051631e4fbdf760e01b8152600060048201526024015b60405180910390fd5b620000d381620000f2565b50620000eb816a084595161401484a00000062000144565b5062000482565b600580546001600160a01b038381166001600160a01b0319831681179093556040519116919082907f8be0079c531659141344cd1fd0a4f28419497f9722a3daafe3b4186f6b6457e090600090a35050565b6001600160a01b038216620001705760405163ec442f0560e01b815260006004820152602401620000bf565b6200017e6000838362000182565b5050565b6001600160a01b038316620001b1578060026000828254620001a591906200045a565b90915550620002259050565b6001600160a01b03831660009081526020819052604090205481811015620002065760405163391434e360e21b81526001600160a01b03851660048201526024810182905260448101839052606401620000bf565b6001600160a01b03841660009081526020819052604090209082900390555b6001600160a01b038216620002435760028054829003905562000262565b6001600160a01b03821660009081526020819052604090208054820190555b816001600160a01b0316836001600160a01b03167fddf252ad1be2c89b69c2b068fc378daa952ba7f163c4a11628f55a4df523b3ef83604051620002a891815260200190565b60405180910390a3505050565b600060208284031215620002c857600080fd5b81516001600160a01b0381168114620002e057600080fd5b9392505050565b634e487b7160e01b600052604160045260246000fd5b600181811c908216806200031257607f821691505b6020821081036200033357634e487b7160e01b600052602260045260246000fd5b50919050565b601f82111562000389576000816000526020600020601f850160051c81016020861015620003645750805b601f850160051c820191505b81811015620003855782815560010162000370565b5050505b505050565b81516001600160401b03811115620003aa57620003aa620002e7565b620003c281620003bb8454620002fd565b8462000339565b602080601f831160018114620003fa5760008415620003e15750858301515b600019600386901b1c1916600185901b17855562000385565b600085815260208120601f198616915b828110156200042b578886015182559484019460019091019084016200040a565b50858210156200044a5787850151600019600388901b60f8161c191681555b5050505050600190811b01905550565b808201808211156200047c57634e487b7160e01b600052601160045260246000fd5b92915050565b61099d80620004926000396000f3fe608060405234801561001057600080fd5b50600436106100f55760003560e01c806370a082311161009757806395d89b411161006657806395d89b41146101f6578063a9059cbb146101fe578063dd62ed3e14610211578063f2fde38b1461024a57600080fd5b806370a0823114610197578063715018a6146101c05780637bde82f2146101c85780638da5cb5b146101db57600080fd5b806323b872dd116100d357806323b872dd1461014d578063313ce5671461016057806340c10f191461016f57806347e7ef241461018457600080fd5b806306fdde03146100fa578063095ea7b31461011857806318160ddd1461013b575b600080fd5b61010261025d565b60405161010f91906107c3565b60405180910390f35b61012b61012636600461082e565b6102ef565b604051901515815260200161010f565b6002545b60405190815260200161010f565b61012b61015b366004610858565b610309565b6040516012815260200161010f565b61018261017d36600461082e565b61032d565b005b61013f61019236600461082e565b610343565b61013f6101a5366004610894565b6001600160a01b031660009081526020819052604090205490565b61018261035c565b61013f6101d63660046108b6565b610370565b6005546040516001600160a01b03909116815260200161010f565b610102610389565b61012b61020c36600461082e565b610398565b61013f61021f3660046108e2565b6001600160a01b03918216600090815260016020908152604080832093909416825291909152205490565b610182610258366004610894565b6103a6565b60606003805461026c9061090c565b80601f01602080910402602001604051908101604052809291908181526020018280546102989061090c565b80156102e55780601f106102ba576101008083540402835291602001916102e5565b820191906000526020600020905b8154815290600101906020018083116102c857829003601f168201915b5050505050905090565b6000336102fd8185856103e9565b60019150505b92915050565b6000336103178582856103fb565b61032285858561047a565b506001949350505050565b6103356104d9565b61033f8282610506565b5050565b600061035033308461047a565b50806103038382610506565b6103646104d9565b61036e600061053c565b565b600061037c338461058e565b508161030330838361047a565b60606004805461026c9061090c565b6000336102fd81858561047a565b6103ae6104d9565b6001600160a01b0381166103dd57604051631e4fbdf760e01b8152600060048201526024015b60405180910390fd5b6103e68161053c565b50565b6103f683838360016105c4565b505050565b6001600160a01b03838116600090815260016020908152604080832093861683529290522054600019811015610474578181101561046557604051637dc7a0d960e11b81526001600160a01b038416600482015260248101829052604481018390526064016103d4565b610474848484840360006105c4565b50505050565b6001600160a01b0383166104a457604051634b637e8f60e11b8152600060048201526024016103d4565b6001600160a01b0382166104ce5760405163ec442f0560e01b8152600060048201526024016103d4565b6103f6838383610699565b6005546001600160a01b0316331461036e5760405163118cdaa760e01b81523360048201526024016103d4565b6001600160a01b0382166105305760405163ec442f0560e01b8152600060048201526024016103d4565b61033f60008383610699565b600580546001600160a01b038381166001600160a01b0319831681179093556040519116919082907f8be0079c531659141344cd1fd0a4f28419497f9722a3daafe3b4186f6b6457e090600090a35050565b6001600160a01b0382166105b857604051634b637e8f60e11b8152600060048201526024016103d4565b61033f82600083610699565b6001600160a01b0384166105ee5760405163e602df0560e01b8152600060048201526024016103d4565b6001600160a01b03831661061857604051634a1406b160e11b8152600060048201526024016103d4565b6001600160a01b038085166000908152600160209081526040808320938716835292905220829055801561047457826001600160a01b0316846001600160a01b03167f8c5be1e5ebec7d5bd14f71427d1e84f3dd0314c0f7b2291e5b200ac8c7c3b9258460405161068b91815260200190565b60405180910390a350505050565b6001600160a01b0383166106c45780600260008282546106b99190610946565b909155506107369050565b6001600160a01b038316600090815260208190526040902054818110156107175760405163391434e360e21b81526001600160a01b038516600482015260248101829052604481018390526064016103d4565b6001600160a01b03841660009081526020819052604090209082900390555b6001600160a01b03821661075257600280548290039055610771565b6001600160a01b03821660009081526020819052604090208054820190555b816001600160a01b0316836001600160a01b03167fddf252ad1be2c89b69c2b068fc378daa952ba7f163c4a11628f55a4df523b3ef836040516107b691815260200190565b60405180910390a3505050565b60006020808352835180602085015260005b818110156107f1578581018301518582016040015282016107d5565b506000604082860101526040601f19601f8301168501019250505092915050565b80356001600160a01b038116811461082957600080fd5b919050565b6000806040838503121561084157600080fd5b61084a83610812565b946020939093013593505050565b60008060006060848603121561086d57600080fd5b61087684610812565b925061088460208501610812565b9150604084013590509250925092565b6000602082840312156108a657600080fd5b6108af82610812565b9392505050565b600080604083850312156108c957600080fd5b823591506108d960208401610812565b90509250929050565b600080604083850312156108f557600080fd5b6108fe83610812565b91506108d960208401610812565b600181811c9082168061092057607f821691505b60208210810361094057634e487b7160e01b600052602260045260246000fd5b50919050565b8082018082111561030357634e487b7160e01b600052601160045260246000fdfea2646970667358221220b8895576d9697f707d36ce436c238e6a0481acbe5e06228e4f1556a596a444b264736f6c63430008180033",
  "linkReferences": {},
  "deployedLinkReferences": {}
}