{
  "_format": "hh-sol-artifact-1",
  "contractName": "ComplianceModule",
  "sourceName": "contracts/ComplianceModule.sol",
  "abi": [
    {
      "inputs": [
        {
          "internalType": "address",
          "name": "admin",
          "type": "address"
        },
        {
          "internalType": "contract IdentityRegistry",
          "name": "registry",
          "type": "address"
        },
        {
          "internalType": "contract ComplianceOracle",
          "name": "oracle",
          "type": "address"
        },
        {
          "internalType": "uint8",
          "name": "minScore",
          "type": "uint8"
        }
      ],
      "stateMutability": "nonpayable",
      "type": "constructor"
    },
    {
      "inputs": [],
      "name": "AccessControlBadConfirmation",
      "type": "error"
    },
    {
      "inputs": [
        {
          "internalType": "address",
          "name": "account",
          "type": "address"
        },
        {
          "internalType": "bytes32",
          "name": "neededRole",
          "type": "bytes32"
        }
      ],
      "name": "AccessControlUnauthorizedAccount",
      "type": "error"
    },
    {
      "anonymous": false,
      "inputs": [
        {
          "indexed": false,
          "internalType": "uint8",
          "name": "newScore",
          "type": "uint8"
        }
      ],
      "name": "MinScoreUpdated",
      "type": "event"
    },
    {
      "anonymous": false,
      "inputs": [
        {
          "indexed": true,
          "internalType": "bytes32",
          "name": "role",
          "type": "bytes32"
        },
        {
          "indexed": true,
          "internalType": "bytes32",
          "name": "previousAdminRole",
          "type": "bytes32"
        },
        {
          "indexed": true,
          "internalType": "bytes32",
          "name": "newAdminRole",
          "type": "bytes32"
        }
      ],
      "name": "RoleAdminChanged",
      "type": "event"
    },
    {
      "anonymous": false,
      "inputs": [
        {
          "indexed": true,
          "internalType": "bytes32",
          "name": "role",
          "type": "bytes32"
        },
        {
          "indexed": true,
          "internalType": "address",
          "name": "account",
          "type": "address"
        },
        {
          "indexed": true,
          "internalType": "address",
          "name": "sender",
          "type": "address"
        }
      ],
      "name": "RoleGranted",
      "type": "event"
    },
    {
      "anonymous": false,
      "inputs": [
        {
          "indexed": true,
          "internalType": "bytes32",
          "name": "role",
          "type": "bytes32"
        },
        {
          "indexed": true,
          "internalType": "address",
          "name": "account",
          "type": "address"
        },
        {
          "indexed": true,
          "internalType": "address",
          "name": "sender",
          "type": "address"
        }
      ],
      "name": "RoleRevoked",
      "type": "event"
    },
    {
      "inputs": [],
      "name": "DEFAULT_ADMIN_ROLE",
      "outputs": [
        {
          "internalType": "bytes32",
          "name": "",
          "type": "bytes32"
        }
      ],
      "stateMutability": "view",
      "type": "function"
    },
    {
      "inputs": [],
      "name": "POLICY_ADMIN_ROLE",
      "outputs": [
        {
          "internalType": "bytes32",
          "name": "",
          "type": "bytes32"
        }
      ],
      "stateMutability": "view",
      "type": "function"
    },
    {
      "inputs": [
        {
          "internalType": "address",
          "name": "to",
          "type": "address"
        },
        {
          "internalType": "bytes32",
          "name": "assetId",
          "type": "bytes32"
        }
      ],
      "name": "canMint",
      "outputs": [
        {
          "internalType": "bool",
          "name": "",
          "type": "bool"
        }
      ],
      "stateMutability": "view",
      "type": "function"
    },
    {
      "inputs": [
        {
          "internalType": "address",
          "name": "from",
          "type": "address"
        },
        {
          "internalType": "address",
          "name": "to",
          "type": "address"
        }
      ],
      "name": "canTransfer",
      "outputs": [
        {
          "internalType": "bool",
          "name": "",
          "type": "bool"
        }
      ],
      "stateMutability": "view",
      "type": "function"
    },
    {
      "inputs": [],
      "name": "complianceOracle",
      "outputs": [
        {
          "internalType": "contract ComplianceOracle",
          "name": "",
          "type": "address"
        }
      ],
      "stateMutability": "view",
      "type": "function"
    },
    {
      "inputs": [
        {
          "internalType": "bytes32",
          "name": "role",
          "type": "bytes32"
        }
      ],
      "name": "getRoleAdmin",
      "outputs": [
        {
          "internalType": "bytes32",
          "name": "",
          "type": "bytes32"
        }
      ],
      "stateMutability": "view",
      "type": "function"
    },
    {
      "inputs": [
        {
          "internalType": "bytes32",
          "name": "role",
          "type": "bytes32"
        },
        {
          "internalType": "address",
          "name": "account",
          "type": "address"
        }
      ],
      "name": "grantRole",
      "outputs": [],
      "stateMutability": "nonpayable",
      "type": "function"
    },
    {
      "inputs": [
        {
          "internalType": "bytes32",
          "name": "role",
          "type": "bytes32"
        },
        {
          "internalType": "address",
          "name": "account",
          "type": "address"
        }
      ],
      "name": "hasRole",
      "outputs": [
        {
          "internalType": "bool",
          "name": "",
          "type": "bool"
        }
      ],
      "stateMutability": "view",
      "type": "function"
    },
    {
      "inputs": [],
      "name": "identityRegistry",
      "outputs": [
        {
          "internalType": "contract IdentityRegistry",
          "name": "",
          "type": "address"
        }
      ],
      "stateMutability": "view",
      "type": "function"
    },
    {
      "inputs": [],
      "name": "minComplianceScore",
      "outputs": [
        {
          "internalType": "uint8",
          "name": "",
          "type": "uint8"
        }
      ],
      "stateMutability": "view",
      "type": "function"
    },
    {
      "inputs": [
        {
          "internalType": "bytes32",
          "name": "role",
          "type": "bytes32"
        },
        {
          "internalType": "address",
          "name": "callerConfirmation",
          "type": "address"
        }
      ],
      "name": "renounceRole",
      "outputs": [],
      "stateMutability": "nonpayable",
      "type": "function"
    },
    {
      "inputs": [
        {
          "internalType": "bytes32",
          "name": "role",
          "type": "bytes32"
        },
        {
          "internalType": "address",
          "name": "account",
          "type": "address"
        }
      ],
      "name": "revokeRole",
      "outputs": [],
      "stateMutability": "nonpayable",
      "type": "function"
    },
    {
      "inputs": [
        {
          "internalType": "uint8",
          "name": "score",
          "type": "uint8"
        }
      ],
      "name": "setMinComplianceScore",
      "outputs": [],
      "stateMutability": "nonpayable",
      "type": "function"
    },
    {
      "inputs": [
        {
          "internalType": "bytes4",
          "name": "interfaceId",
          "type": "bytes4"
        }
      ],
      "name": "supportsInterface",
      "outputs": [
        {
          "internalType": "bool",
          "name": "",
          "type": "bool"
        }
      ],
      "stateMutability": "view",
      "type": "function"
    }
  ],
  "bytecode": "0x60c060405234801561001057600080fd5b50604051610ad6380380610ad683398101604081905261002f91610156565b61003a600085610092565b506100657face7350211ab645c1937904136ede4855ac3aa1eabb4970e1a51a335d2e1992085610092565b506001600160a01b03928316608052911660a0526001805460ff191660ff909216919091179055506101bb565b6000828152602081815260408083206001600160a01b038516845290915281205460ff16610134576000838152602081815260408083206001600160a01b03861684529091529020805460ff191660011790556100ec3390565b6001600160a01b0316826001600160a01b0316847f2f8788117e7eff1d82e926ec794901d17c78024a50270940304540a733656f0d60405160405180910390a4506001610138565b5060005b92915050565b6001600160a01b038116811461015357600080fd5b50565b6000806000806080858703121561016c57600080fd5b84516101778161013e565b60208601519094506101888161013e565b60408601519093506101998161013e565b606086015190925060ff811681146101b057600080fd5b939692955090935050565b60805160a0516108da6101fc600039600081816101b401526104fe01526000818161011c0152818161033f015281816103d2015261046701526108da6000f3fe608060405234801561001057600080fd5b50600436106100ea5760003560e01c806371e885ac1161008c578063a1bbc1ef11610066578063a1bbc1ef14610236578063a217fddf14610255578063a913c04c1461025d578063d547741f1461027057600080fd5b806371e885ac146101e957806391d14854146101fc578063a17620c11461020f57600080fd5b80632f2ff15d116100c85780632f2ff15d1461018757806336568abe1461019c578063410239bf146101af5780636c85cf67146101d657600080fd5b806301ffc9a7146100ef578063134e18f414610117578063248a9ca314610156575b600080fd5b6101026100fd366004610780565b610283565b60405190151581526020015b60405180910390f35b61013e7f000000000000000000000000000000000000000000000000000000000000000081565b6040516001600160a01b03909116815260200161010e565b6101796101643660046107aa565b60009081526020819052604090206001015490565b60405190815260200161010e565b61019a6101953660046107df565b6102ba565b005b61019a6101aa3660046107df565b6102e5565b61013e7f000000000000000000000000000000000000000000000000000000000000000081565b6101026101e436600461080b565b61031d565b6101026101f7366004610835565b610445565b61010261020a3660046107df565b610535565b6101797face7350211ab645c1937904136ede4855ac3aa1eabb4970e1a51a335d2e1992081565b6001546102439060ff1681565b60405160ff909116815260200161010e565b610179600081565b61019a61026b36600461085f565b61055e565b61019a61027e3660046107df565b610614565b60006001600160e01b03198216637965db0b60e01b14806102b457506301ffc9a760e01b6001600160e01b03198316145b92915050565b6000828152602081905260409020600101546102d581610639565b6102df8383610646565b50505050565b6001600160a01b038116331461030e5760405163334bd91960e11b815260040160405180910390fd5b61031882826106d8565b505050565b6040516366e305fd60e01b81526001600160a01b0383811660048301526000917f0000000000000000000000000000000000000000000000000000000000000000909116906366e305fd90602401602060405180830381865afa158015610388573d6000803e3d6000fd5b505050506040513d601f19601f820116820180604052508101906103ac9190610882565b801561043e57506040516366e305fd60e01b81526001600160a01b0383811660048301527f000000000000000000000000000000000000000000000000000000000000000016906366e305fd906024015b602060405180830381865afa15801561041a573d6000803e3d6000fd5b505050506040513d601f19601f8201168201806040525081019061043e9190610882565b9392505050565b6040516366e305fd60e01b81526001600160a01b0383811660048301526000917f0000000000000000000000000000000000000000000000000000000000000000909116906366e305fd90602401602060405180830381865afa1580156104b0573d6000803e3d6000fd5b505050506040513d601f19601f820116820180604052508101906104d49190610882565b801561043e5750600154604051637a4f242560e01b81526004810184905260ff90911660248201527f00000000000000000000000000000000000000000000000000000000000000006001600160a01b031690637a4f2425906044016103fd565b6000918252602082815260408084206001600160a01b0393909316845291905290205460ff1690565b7face7350211ab645c1937904136ede4855ac3aa1eabb4970e1a51a335d2e1992061058881610639565b60648260ff1611156105cb5760405162461bcd60e51b81526020600482015260076024820152661a5b9d985b1a5960ca1b60448201526064015b60405180910390fd5b6001805460ff191660ff84169081179091556040519081527fc062c38c5b0d7510cd8d09e700ab116eb9d04550cb6ba0c258378cb01229ccf29060200160405180910390a15050565b60008281526020819052604090206001015461062f81610639565b6102df83836106d8565b6106438133610743565b50565b60006106528383610535565b6106d0576000838152602081815260408083206001600160a01b03861684529091529020805460ff191660011790556106883390565b6001600160a01b0316826001600160a01b0316847f2f8788117e7eff1d82e926ec794901d17c78024a50270940304540a733656f0d60405160405180910390a45060016102b4565b5060006102b4565b60006106e48383610535565b156106d0576000838152602081815260408083206001600160a01b0386168085529252808320805460ff1916905551339286917ff6391f5c32d9c69d2a47ea670b442974b53935d1edc7fd64eb21e047a839171b9190a45060016102b4565b61074d8282610535565b61077c5760405163e2517d3f60e01b81526001600160a01b0382166004820152602481018390526044016105c2565b5050565b60006020828403121561079257600080fd5b81356001600160e01b03198116811461043e57600080fd5b6000602082840312156107bc57600080fd5b5035919050565b80356001600160a01b03811681146107da57600080fd5b919050565b600080604083850312156107f257600080fd5b82359150610802602084016107c3565b90509250929050565b6000806040838503121561081e57600080fd5b610827836107c3565b9150610802602084016107c3565b6000806040838503121561084857600080fd5b610851836107c3565b946020939093013593505050565b60006020828403121561087157600080fd5b813560ff8116811461043e57600080fd5b60006020828403121561089457600080fd5b8151801515811461043e57600080fdfea264697066735822122002ad9abfd4519221564304efac1475d450bf5d1048cb23773f47b35ef1de808a64736f6c63430008180033",
  "linkReferences": {},
  "deployedLinkReferences": {}
}